:020000040000fa
:10000000f03f0020890300001305000015050000e3
:1000100000000000000000000000000000000000e0
:1000200000000000000000000000000011050000ba
:100030000000000000000000110500001105000094
:100040001105000011050000110500001105000058
:10005000410300001105000011050000110500001a
:100060001105000011050000110500001105000038
:100070001105000011050000110500001105000028
:100080001105000011050000110500001105000018
:100090001105000000000000000000001105000034
:1000a00011050000110500001105000011050000f8
:0800b000000000001105000032
:020000040000fa
:1000b800f8b5c046f8bc08bc9e467047210300004e
:1000c800f8b5c046f8bc08bc9e467047f902000067
:020000040000fa
:1000d80010b51e4a137801210b43137053785bb295
:1000e800002bfbdb194940238b611b02cb61184baa
:1000f800cb60184b10221a72012018751f301a5441
:100108000c301a540c301a540c301a540c301a543f
:100118000c301a540c301a540c301a540c301a542f
:100128000c300b241c540c301a540c301a540c305c
:100138001a540c301a540b78022213430b700a001d
:1001480053785bb2002bfbdb10bdc04600180040a3
:08015800020800000000002075
:020000040000fa
:10016000194b00229a619a8c80218a439a841a0042
:100170001023d1680b42fcd0144b1b689b0e3f2b05
:1001800020d09b028022920013430f4a93621023d7
:10019000d1680b42fcd00c4b02229a841a00102327
:1001a000d1680b42fcd00a4b0a4a5a601a005378b5
:1001b0005bb2002bfbdb064b074a5a80024b002246
:1001c0001a627047203bdce7000800402460800092
:0c01d000000c004000070100054000008a
:020000040000fa
:1001dc000021f0b5174b184a934208d30027174a51
:1001ec0013685168002b05d1002903d1f0bd19709b
:1001fc000133f1e7100095680c305c18002d16d017
:10020c000b25ed1a5219a3420ad10b0003221340fd
:10021c005a1e934189085918890040180200dfe7db
:10022c005d1cae5c1e702b00ede71f700133a3420a
:10023c00fbd1f3e70000002000000020a802000022
:020000040000fa
:10024c0000230e4a10b513600d4a13600d4a13605b
:10025c000d4a13600d4a13600d4a5362136101334a
:10026c00936000f053f900f051f90a4c0a4b9c4290
:10027c0000d310bd08cc9847f8e7c04630010020e9
:10028c00cc000020c8000020c0000020c4000020ca
:0c029c00d0000020c4000000c8000000da
:020000040000fa
:1002a800100100201c0000000000000000000020d9
:1002b800c0000000000000002c0100200400000025
:1002c80000000000c00000205000000000000000f6
:1002d80030010020040000000000000000000000c1
:1002e80000000000444444444444444444444444d6
:020000040000fa
:1002f80010b5064c2378002b07d1054b002b02d0f4
:10030800044800e000bf0123237010bd1001002045
:100318000000000000000000044b10b5002b03d0c3
:100328000349044800e000bf10bdc04600000000bb
:08033800140100200000000088
:020000040000fa
:10034000f0b5c64600b50e4d00240e4f0123984669
:1003500004e03e6101340c35102c0ed02a7ae3b251
:100360009a42f7d13b694646a6401e42f2d02b681e
:10037000002beed068689847ebe704bc9046f0bdd0
:080380000000002000180040fd
:020000040000fa
:1003880010b50a4b98470a4b984700f0b9f8094b43
:10039800ff229343084a9360084b9847084b9847b5
:1003a800084b984700f010f8fee7c0461705000014
:1003b800170500000000000000ed00e04d020000fd
:0803c8001705000017050000f5
:020000040000fa
:1003d00010b5002000f040f800f072f8074800f077
:1003e00087f8012000f076f800220549012000f08e
:1003f0000bf8044a01235361fde7c046a0860100c3
:08040000fd040000004400416e
:020000040000fa
:1004080030b543001b189b00064ce3181b7a834247
:1004180000d030bd43001d18ad002951601942605d
:08042800f7e7c04600000020c8
:020000040000fa
:10043000084b0121196040220220985401320330f8
:10044000985400222b301a549b301954b4315a540a
:080450007047c0460044004162
:020000040000fa
:1004580010b5084b06225a60fff7e6fffff77cfe4f
:1004680000f03cf800f01af8fff732fe00f004f84c
:0804780010bdc0460040004128
:020000040000fa
:10048000bff35f8f62b6064ac12189005358ff202f
:1004900083433f3803435350102313607047c046d3
:0404a00000e100e097
:020000040000fa
:1004a400044b00221a609a60034a5a6004221a60bc
:0c04b4007047c04610e000e07fbb000075
:020000040000fa
:1004c000034b00229a601a6801210a431a607047a0
:0404d00010e000e058
:020000040000fa
:1004d40001238340014ad3607047c046001800409e
:020000040000fa
:0c04e400014b82225a607047004000412a
:020000040000fa
:0c04f0000138014b5860704710e000e03c
:020000040000fa
:0c04fc00014b01229a617047004400414e
:020000040000fa
:0805080010b5fff767fe10bdfe
:020000040000fa
:02051000fee704
:020000040000fa
:02051200fee702
:020000040000fa
:02051400fee700
:020000040000fa
:0205160070472c
:020000040000fa
:0205180070472a
:020000040000fa
:0200000400807a
:0440000077c700d8a6
:020000040000fa
:0200000400807a
:044004005c00ffff5e
:00000001FF
