:020000040000fa
:10000000f83f0020590b0000c70a00007b0d0000dc
:1000100000000000000000000000000000000000e0
:100020000000000000000000000000003f0700008a
:1000300000000000000000003f0700003f07000034
:100040003f0700003f0700003f0700003f07000098
:100050003f0700003f0700003f0700003f07000088
:100060003f0700003f070000f10300003f070000ca
:100070003f0700003f0700003f0700003f07000068
:100080003f0700003f0700003f0700003f07000058
:100090003f07000000000000000000003f070000d4
:1000a0003f0700003f0700003f0700003f07000038
:0800b000000000003f07000002
:020000040000fa
:1000b800f8b5c046f8bc08bc9e467047f10a000077
:1000c800f8b5c046f8bc08bc9e467047c90a00008f
:020000040000fa
:1000d800680600201c0000000000000084060020c4
:1000e8000c00000000000000a8060020010000002d
:1000f8000000000098060020040000000000000036
:10010800180600205000000000000000ac06002087
:100118006c00000001000000b8060020b4060020b2
:10012800b80600200000000025000000080000209c
:1001380000040000000000000000000000000000b3
:1001480000000000000000000000000000000000a7
:1001580000000000e71000000000000000000000a0
:100168000000000000000000b107000000000000cf
:100178000000000000000000000000000000000077
:10018800000000000000002008040000000000003b
:100198007807002020000000010000000100000096
:1001a8000300000000000000000000000000000044
:1001b80000000000000000009006002090060020cb
:1001c80008000000000000009c0600200400000059
:1001d80000000000080400201002000000000000d9
:1001e8001807002060000000010000000100000066
:1001f80003000000000000000000000000000000f4
:1002080000000000000000002909000000000000b4
:100218000000000000000000bd10000013100000e6
:1002280000000000000000000000000000000000c6
:1002380000000000000000000000000000000000b6
:10024800000000000000000000000000a0060020e0
:100258000400000000000000a406002004000000c4
:100268000000000000000000000000004444444476
:020000040000fa
:10027800f0b587b0039003a800f0d0fc002802da9c
:10028800002007b0f0bd039b1b095d1e202d09d976
:100298004f49023b4f4a8b4224d8db08d318043b12
:1002a8001d7801352a000120002100f097fe002466
:1002b80043428c4100930194474f00983a687b6809
:1002c8001040020001990b401a433fd1039b05a837
:1002d8001033059300f08efe002809d10c223f4b05
:1002e8001a60cee7db09d318043b1d781135d9e72e
:1002f8003b490c68a04206d0059b0400103b0593bf
:100308000123103483600125059be2180a602b4302
:10031800083a083c28c26360002cb1d0200000f0e5
:1003280010fd00280bd023686168ab43e31a5a68b4
:10033800aa4352185a606168a94362501c00200001
:10034800039900f0c6fd200008309ae7214a2549a4
:100358003c32002831d1584203404b43db0ed65c77
:100368002036300000f0eafd731cdb00fc58083b27
:10037800fb189c42a0d0272e25dd0235ae4201dcb9
:100388003f2e20d101226368039f9343dd1b280081
:10039800009300f063fc864215d1e268a168e31976
:1003a800da60996093609a68d360012217431f60ee
:1003b8005d60009be5506760c1e7434203404b43e3
:1003c800db0ed65ccde73100200000f029fbb6e754
:1003d800ff010000cc08000010040020a006002047
:0803e8000804002029e66b0760
:020000040000fa
:1003f00070b5364b1c7ee4b29b7d23423ad0a307f6
:1004000013d5334a012313709370304b5b8bdb069b
:10041000db0f53705368002b1ad091680120984766
:10042000002828d0002000f0f5f9630710d5284bec
:100430005d68002d0cd000f01dfe002823d1244b58
:1004400099680230a847002819d0002000f0e2f98e
:10045000e3070cd51e4b00221a705b68002b03d0fb
:100460001b4a916804209847184b01221a7664b2ff
:10047000002c1edb70bd012000f0ccf9d5e7012077
:1004800000f0c8f9e4e700f0fdfd002803d0104bb0
:100490009b78002b09d00e4eb1680320a84700239b
:1004a000b370022000f0b6f9d2e7032000f0b2f9f1
:1004b000cee7074b5b68002b03d0054a9168052007
:1004c0009847024b80221a76d4e7c046000c0042bf
:0404d000840600207e
:020000040000fa
:1004d400f7b5002858d00838436801221e00964317
:1004e40085192a680400934200d0ffde01276b6857
:1004f400226813403b420ed1200000f024fc002867
:1005040043d1280000f050fc0028f0d06b68bb43b6
:10051400f618ed18ebe73b003343636030002b60c3
:1005240000f09efb019000f00bfd6b682268134005
:100534003b42e1d0184b019a1868596800f044fd19
:10054400384212d1019a0120002100f049fd0b002c
:10055400002804d0104a126802430f480260002b9e
:1005640003d00d4a53680b435360019b0a4a01337d
:10057400db00d3181a005b68083a66602e60e360fb
:10058400a260d460e3689c60f7bd2368bb43e41aaf
:0c0594006368bb43f618b4e710040020b5
:020000040000fa
:1005a0001f4b00229a619a8c80218a439a841a00f8
:1005b0001023d1680b42fcd01a4b1b689b0e3f2bbb
:1005c0002bd09b02802292001343154a9362102382
:1005d000d1680b42fcd0124b02229a841a001023dd
:1005e000d1680b42fcd0104b04221a720f4b104af8
:1005f0005a60f02212019a601a0053785bb2002b05
:10060000fbdb0a4b0b4a5a800b4a5a80064b0b4abb
:100610001a62034b00221a627047203bd1e7c046a2
:10062000000800402460800000040040000c0040ee
:10063000000701001540000019400000880001007b
:020000040000fa
:10064000f0b51600050002278369426987b002935e
:10065000d31a03939b1904910596019302ac3a00b7
:100660002100286800f025fc019b984208d1ab6866
:10067000ea68ab619a18aa626b61300007b0f0bdfe
:1006800000280cda102200236968ab620a43ab61d0
:100690006b616a60022f12d06368f61aede7019b66
:1006a0001b1a01936368984202d9c01a0834013fab
:1006b00023681b1823606368181a6060cfe71e0068
:0206c000dbe776
:020000040000fa
:1006c200f8b5846a05000f001600002c0ad0ab6a48
:1006d2006a699b1ab3420cd2320039002800fff734
:1006e200aeff05e000f04bfc03002000002beed033
:1006f200f8bd002ef0d02b0034331b785bb2002bf8
:100702001adb3400dbb2621eb95c994212d12200bc
:1007120039002800fff793ffa042e9d33f19341ba9
:1007220022003900686900f09bfc6b6930001c19db
:0c0732006c61dde7141ee6d13400f1e735
:020000040000fa
:02073e00fee7d4
:020000040000fa
:100740000021f0b5174b184a934208d30027174ae7
:1007500013685168002b05d1002903d1f0bd197031
:100760000133f1e7100095680c305c18002d16d0ad
:100770000b25ed1a5219a3420ad10b000322134094
:100780005a1e934189085918890040180200dfe772
:100790005d1cae5c1e702b00ede71f700133a342a1
:1007a000fbd1f3e70000002000000020d80000008b
:020000040000fa
:1007b0007fb51600c2680d0013000091591e8b41d1
:1007c000f31a0193836804000392694602220068c9
:1007d000029300f05afb002808dc1822082302408c
:1007e0005340626813436360060010e0019b83423c
:1007f000fad2a268c01ae3681018e2632064002be2
:1008000005d0531ce3631378ad19013d2b70300004
:0408100004b070bd03
:020000040000fa
:10081400002808d112494b68124a1a40c0239b028f
:1008240013434b60704701280cd0022811d00328d1
:10083400f8d10b494b680c4a1a4080239b0213439e
:100844004b60efe7064a5168e023db020b43536039
:10085400e8e7034a5168c0239b020b435360e1e776
:0c086400000c0042fffff8fffffffcff4c
:020000040000fa
:1008700000230e4a10b513600d4a13600d4a136031
:100880000d4a13600d4a13600d4a53621361013320
:10089000936000f0fffb00f044fb0a4c0a4b9c42c3
:1008a00000d310bd08cc9847f8e7c0469c0600204e
:1008b0002406002020060020180600201c06002028
:0c08c00028060020c4000000c800000052
:020000040000fa
:1008cc0020212223242425252626272728282828ca
:1008dc00292929292a2a2a2a2b2b2b2b2c2c2c2c64
:1008ec002c2c2c2c2d2d2d2d2d2d2d2d2e2e2e2e2c
:1008fc002e2e2e2e2f2f2f2f2f2f2f2f00011702a2
:10090c001d1813031e1b190b1408040d1f161c12a3
:0c091c001a0a070c1511090610050f0e31
:020000040000fa
:1009280070b504000d00002801d1002070bd436897
:100938009b0607d543698269934215d80023a362b1
:10094800a3616361e16b236c994204d2c91a012245
:10095800206800f0c6fb00232364e3639d42e4d0d3
:10096800206800f0b9fbe1e70022c36a110098474c
:0c0978006369002be2d101204042d7e768
:020000040000fa
:10098400f8b505000c000020002d20d000f050fa2e
:10099400002c17d000200e4a0421072605e0178ded
:1009a4004300ef52013084420dd0137e0b42fcd041
:1009b400538b334207d153683340012befd0138d4f
:1009c4002b54efe72000201a44426041c0b2f8bd26
:0409d400001c0042c1
:020000040000fa
:1009d80070b5040016001d00022a1cd043689b064f
:1009e80019d4002908d1002d01d18025ed00280057
:1009f8000830fff73dfc010020236268a160134323
:100a080063602300e5603433ff22012e00d10a22ff
:100a18001a70024be362002070bdc046c306000096
:020000040000fa
:100a280070b5c668856804000a00ae4211d101207d
:100a3800002100f0d3fac043c943431c03d00b4b39
:100a48001a68104018604b1c03d0084a53681940b4
:100a58005160012319006268b56011439a43ee6042
:100a68006160a41822681343236070bd100400203d
:020000040000fa
:100a780037b56b46dd1d836a04002970002b0cd046
:100a88006369a26a93420fd3e36a01222900200016
:100a98009847012805d1287805e000f06dfa00286c
:100aa800eed0012040423ebd220034321278287830
:0e0ab80052b29042e8d05a1c62611870f3e707
:020000040000fa
:020ac600fee749
:020000040000fa
:100ac80010b5064c2378002b07d1054b002b02d01c
:100ad800044800e000bf0123237010bd6806002011
:100ae8000000000000000000044b10b5002b03d0ec
:100af8000349044800e000bf10bdc04600000000e4
:080b08006c0600200000000053
:020000040000fa
:100b100010b50e4b06225a600d4b1b681868002159
:100b200000f096fa0b4b1b681868002100f090fa51
:100b300000f054f9fff734fd00f0b4fa00f052f879
:100b400000f0ccf800f060f910bdc0460040004154
:080b5000b0060020940700200c
:020000040000fa
:100b580010b50a4b98470a4b984700f0b0fa094b72
:100b6800ff229343084a9360084b9847084b9847dd
:100b7800084b984700f01afafee7c046db0d000064
:100b8800db0d00000000000000ed00e0710800002f
:080b9800db0d0000db0d000085
:020000040000fa
:100ba00070b5002818d0002918d000250c4a01245f
:100bb000072605e06b00c35a13850135a94209d009
:100bc000137e2342fcd053683340012bf2d0435da7
:100bd0001385f2e7012070bd0020fce70120fae751
:040be000001c0042b3
:020000040000fa
:100be4000d4b01221a601a00d369002bfcd10a4b69
:100bf4000a4a1a601a00d369002bfcd1064b4e2214
:100c04005a6239329a751a6802210a431a601a0024
:100c1400d369002bfcd17047000c00421000100077
:020000040000fa
:100c24000c4a036810b5546a0b4a591e121b9142b0
:100c34000bd9002b05d00c220120084b40421a602e
:100c440010bd102202600020fae70f2217339343ed
:100c54000360f8e728060020efffff7fa0060020ce
:020000040000fa
:100c64000309013b1800202b07d90a4a934205d8ef
:100c74000948db08c318043b18787047e0223f207a
:100c840052019342f9d80448db09c318043b18788d
:0c0c94001030f2e7ff010000cc08000067
:020000040000fa
:100ca0000b00496810b50200890603d4190000f052
:100cb00031f810bd190034310978c0b249b281420f
:100cc00007d059699c6aa14203d24c1c5c610a702e
:0c0cd000efe711001800fff7cffeeae785
:020000040000fa
:100cdc000a4b0b4a1a600b4a9a81c02292025a6044
:100cec001a00d369002bfcd1044a136802210b4370
:100cfc001360d369002bfcd17047c046001c004226
:080d0c0004012040b6f3ffffd3
:020000040000fa
:100d140013b50b006a46d41d5a68c1b22170d205be
:100d240005d55a69c0b2541c5c61117016bd01220c
:100d34002100180000f080f9002801d02078f5e7a0
:060d440001204042f2e72d
:020000040000fa
:100d4a00f8b5050001262c68344201d000200ee0d7
:100d5a002000fff782ff070000f0eff82868a042a2
:100d6a00f1d1b043281a3900fff759fe0120f8bd26
:020000040000fa
:020d7a00fee792
:020000040000fa
:100d7c00084b02001968002901d10749196018684d
:100d8c00064982188a4201d81a60704701204042f5
:100d9c00fbe7c046a4060020a0070020a009002005
:020000040000fa
:100dac00f8b5050001276c683c4201d000200de02d
:100dbc002000fff751ff060000f0bef86b68a3425d
:0e0dcc00f1d128003100fff729fe0120f8bd0b
:020000040000fa
:020dda00704760
:020000040000fa
:100ddc00094b012250215a5401315a5405315a54ad
:100dec001e39222058543539193019549b301a5455
:0c0dfc00ba3299547047c04600440041d0
:020000040000fa
:100e0800bff35f8f62b6074bc22080001a580649ad
:100e18001140c02212040a431a508022d2001a60dc
:0c0e28007047c04600e100e0ffff00ff43
:020000040000fa
:100e3400094b5b8b5b070dd0074b80221a76793afe
:100e44005a831b7e5b0705d5034b04211a8d1a7e3a
:0c0e54000a42fbd17047c046001c00425f
:020000040000fa
:100e6000020000234832d356591e0b43137004234b
:100e70004268134005d010231343436001204042d1
:0a0e800070470364c3631800fae72b
:020000040000fa
:100e8a00f7b5002507000c002e000192019b9e4237
:100e9a0001db2800febd62682168380000f02bf8eb
:080eaa0001362d180834f1e7b0
:020000040000fa
:100eb200f7b5002507000c002e000192019b9e420f
:100ec20001db2800febd62682168380000f049f8a5
:080ed20001362d180834f1e788
:020000040000fa
:100eda00012370b544689c43651a102d0ad942183b
:100eea0019432b43116053600832035141601000cb
:060efa00fff7ebfa70bdea
:020000040000fa
:100f000010b50c000023002809d10300002a06d0e8
:100f100001212000fff736fd0028f9d00123180039
:020f200010bd02
:020000040000fa
:020f2200704716
:020000040000fa
:100f240010b50023052801d1180010bd00f034f8d5
:100f3400024b187000f076f80123f5e7a8060020ac
:020000040000fa
:100f4400064b0130c000c258002a05d10200083afd
:100f5400d21819184a60c2507047c04610040020c5
:020000040000fa
:100f640070b50d001400012801d0200070bd2100cf
:0c0f74002800fff713fe0028f9d0f6e774
:020000040000fa
:100f800010b50400fff76cff002805d1a368e268e4
:0a0f9000a36163619b18a36210bd0a
:020000040000fa
:020f9a0070479e
:020000040000fa
:100f9c00044ad369002bfcd1024a2833d05cc0b27e
:080fac007047c046000c004232
:020000040000fa
:100fb40010b50020fff7aafd0021024800f076f8e2
:080fc400fee7c046250f000006
:020000040000fa
:100fcc00d0400b1cd1409c46203ad340184352428f
:100fdc0063469340184370479140031c90409c46d5
:100fec00203a9340194352426346d3401943704709
:020000040000fa
:100ffc00006810b5002801da002010bdfff7b8fe1c
:06100c00431cfad1f8e7d5
:020000040000fa
:02101200704725
:020000040000fa
:1010140010b500f05ff8024b1860586010bdc04670
:041024009006002012
:020000040000fa
:1010280010b5034b1b68196800f04df810bdc04699
:0410380094070020f9
:020000040000fa
:10103c00c36a10b5002b01d0984710bd0068fff7ac
:04104c008bfffae735
:020000040000fa
:101050004a424a41802310b55200db00fff7bcfc36
:0210600010bdc1
:020000040000fa
:10106200002310b59a4200d110bdcc5cc4540133a8
:02107200f8e79d
:020000040000fa
:10107400024b588b0007c00f7047c046000c00425b
:020000040000fa
:10108400024b588b4007c00f7047c046000c00420b
:020000040000fa
:1010940010b5fff7bdfffff77efffff77cff10bd24
:020000040000fa
:0c10a400014b80225a6070470040004160
:020000040000fa
:0c10b000014b58609960704784060020d6
:020000040000fa
:0a10bc0010b50068fff750ff10bdeb
:020000040000fa
:0810c60010b5fff73afb10bd65
:020000040000fa
:0810ce0010b5fff7e6fd10bdaf
:020000040000fa
:0810d8000048704718070020d2
:020000040000fa
:0610e000012040427047b0
:020000040000fa
:0410e600002070472f
:020000040000fa
:0410ea00002070472b
:020000040000fa
:0200000400807a
:0440000077c700d8a6
:020000040000fa
:0200000400807a
:044004005c00ffff5e
:00000001FF
