:020000040000fa
:10000000f03f0020110d00008b0f00007b1000005e
:1000100000000000000000000000000000000000e0
:10002000000000000000000000000000df070000ea
:100030000000000000000000df070000df070000f4
:10004000df070000df070000df070000df07000018
:10005000df070000df070000e1070000df07000006
:10006000df070000df07000051040000df07000089
:10007000df070000df070000df070000df070000e8
:10008000df070000df070000df070000df070000d8
:10009000df0700000000000000000000df07000094
:1000a000df070000df070000df070000df070000b8
:0800b00000000000df07000062
:020000040000fa
:1000b800f8b5c046f8bc08bc9e467047f10c000075
:1000c800f8b5c046f8bc08bc9e467047c90c00008d
:020000040000fa
:1000d800c80800201c0000000000000018060020ce
:1000e80000010000000000001807002000010000c7
:1000f80000000000e40800201c00000000000000d0
:10010800000900201c00000000000000200a002058
:100118001c00000001000000616263646566676896
:10012800696a6b6c6d6e6f707172737475767778bf
:10013800797a0a006808002020000000000000000a
:10014800880800202000000000000000a808002007
:100158002000000000000000240900200400000026
:1001680000000000180800205000000000000000f7
:10017800340900206c000000010000004009002044
:100188003c09002040090020000000002500000074
:10019800080000200004000000000000000000002b
:1001a8000000000000000000000000000000000047
:1001b80000000000000000009f1100000000000087
:1001c800000000000000000000000000bd09000061
:1001d8000000000000000000000000000000000017
:1001e80000000000000000000000002008040000db
:1001f80000000000000a00202000000001000000ac
:1002080001000000030000000000000000000000e2
:100218000000000000000000000000001c09002091
:100228001c09002008000000000000002809002028
:100238000400000000000000080400201002000074
:1002480000000000a009002060000000010000007c
:100258000100000003000000000000000000000092
:10026800000000000000000000000000d90a0000a3
:100278000000000000000000000000007d110000e8
:10028800a7110000000000000000000000000000ae
:100298000000000000000000000000000000000056
:1002a8000000000000000000000000000000000046
:1002b8002c09002004000000000000003009002084
:1002c8000400000000000000000000000000000022
:020000040000fa
:1002d800f0b587b0039003a800f05cfd002802daaf
:1002e800002007b0f0bd039b1b095d1e202d09d916
:1002f8004f49023b4f4a8b4224d8db08d318043bb2
:100308001d7801352a000120002100f0ebfe0024b1
:1003180043428c4100930194474f00983a687b68a8
:100328001040020001990b401a433fd1039b05a8d6
:100338001033059300f0e2fe002809d10c223f4b50
:100348001a60cee7db09d318043b1d781135d9e7cd
:100358003b490c68a04206d0059b0400103b05935e
:100368000123103483600125059be2180a602b43a2
:10037800083a083c28c26360002cb1d0200000f085
:10038800b9fd00280bd023686168ab43e31a5a68ab
:10039800aa4352185a606168a94362501c002000a1
:1003a800039900f042fe200008309ae7214a2549c7
:1003b8003c32002831d1584203404b43db0ed65c17
:1003c8002036300000f056fe731cdb00fc58083b5a
:1003d800fb189c42a0d0272e25dd0235ae4201dc59
:1003e8003f2e20d101226368039f9343dd1b280021
:1003f800009300f02bfd864215d1e268a168e3194d
:10040800da60996093609a68d360012217431f608d
:100418005d60009be5506760c1e7434203404b4382
:10042800db0ed65ccde73100200000f0fbfbb6e721
:10043800ff0100007c0a0000100400202c090020a5
:080448000804002029e66b07ff
:020000040000fa
:1004500010b5334b1c7ee4b21b7e1b074dd4304bd2
:100460005b8b5b0710d504222e4bda602c4b5a8332
:100470001b7e5b0705d52a4b04219a6a1a7e0a4225
:10048000fbd1274b80221a76254b1b7e5b070cd5b0
:10049000234b9a6a234b9b69ff2b06d8214b996902
:1004a000214842549a6901329a611d4b1b7edb0739
:1004b00012d51c4b5a691b699a422dd2194b5a69a5
:1004c0001a49895c5a6901325a61154b1b7e9b0798
:1004d00000d50224124b9962a3070dd5104b0222be
:1004e0001a76104b00221a705a611a615b68002b51
:1004f00002d00c4a9068984710bd094b08221a7622
:10050000063a9a75074b00229a6101321a7001214e
:10051000074800f02dfea2e7014b01221a75dbe728
:10052000000c0042e40800201806002018070020f4
:040530000044004142
:020000040000fa
:10053400f7b5002858d00838436801221e009643b6
:1005440085192a680400934200d0ffde01276b68f6
:10055400226813403b420ed1200000f0cdfc00285d
:1005640043d1280000f0f8fc0028f0d06b68bb43ae
:10057400f618ed18ebe73b003343636030002b6063
:1005840000f066fc019000f077fd6b682268134070
:100594003b42e1d0184b019a1868596800f098fd65
:1005a400384212d1019a0120002100f09dfd0b0078
:1005b400002804d0104a126802430f480260002b3e
:1005c40003d00d4a53680b435360019b0a4a01331d
:1005d400db00d3181a005b68083a66602e60e3609b
:1005e400a260d460e3689c60f7bd2368bb43e41a4f
:0c05f4006368bb43f618b4e71004002055
:020000040000fa
:10060000f0b52e4e3f25745de4b2705506012c4db9
:10061000ad192d7b002d05d0284e4e25765d002589
:10062000b6073bd0254e4e25032777550501244eae
:100630007619023f3773234ead5b6d0533d5c9186c
:100640000601204dad19696001011e4d495b090588
:100650002ed5d21805011b4949198a60194905018f
:100660006a5a9205920fd3409bb249194b80134aa4
:100670004021535c02252b435354516c536c9b0413
:100680009b0e08220a4013430125002b06d10b4a7a
:100690001169012383400b4313610125074a3f235e
:1006a000d4542800f0bd0601064dad196960cbe7b2
:1006b0000501044949198a60d0e7c0460048004155
:0806c0008808002068080020f2
:020000040000fa
:1006c8001c4b00229a619a8c80218a439a841a00d2
:1006d8001023d1680b42fcd0174b1b689b0e3f2b95
:1006e80025d09b02802292001343124a9362102362
:1006f800d1680b42fcd00f4b02229a841a001023b7
:10070800d1680b42fcd00d4b0d4a5a601a00537841
:100718005bb2002bfbdb094b0a4a5a800a4a5a8013
:100728000a4b0b4a1a62034b00221a627047203b9d
:10073800d7e7c0460008004024608000000c004055
:1007480000070100154000001940000000040040a7
:040758008800010014
:020000040000fa
:10075c00f0b51600050002278369426987b0029341
:10076c00d31a03939b1904910596019302ac3a009a
:10077c002100286800f043fc019b984208d1ab682b
:10078c00ea68ab619a18aa626b61300007b0f0bde1
:10079c0000280cda102200236968ab620a43ab61b3
:1007ac006b616a60022f12d06368f61aede7019b49
:1007bc001b1a01936368984202d9c01a0834013f8e
:1007cc0023681b1823606368181a6060cfe71e004b
:0207dc00dbe759
:020000040000fa
:0207de00fee734
:020000040000fa
:1007e00030b583b0002301931a4a118c0f330b40ac
:1007f0003f21545ce4b253540f31525cd2b20192a7
:10080000019a0220920708d512494e2288541901f4
:10081000114a5218002111730138019ad20709d5e3
:100820000c494e220120885419010b4a521800210c
:10083000117301301901084a52185568002d03d070
:10084000054a53189968a847024a3f23d45403b075
:0c08500030bdc046004800418808002070
:020000040000fa
:10085c00f8b5846a05000f001600002c0ad0ab6aac
:10086c006a699b1ab3420cd2320039002800fff798
:10087c006fff05e000f01afc03002000002beed007
:10088c00f8bd002ef0d02b0034331b785bb2002b5c
:10089c001adb3400dbb2621eb95c994212d1220021
:1008ac0039002800fff754ffa042e9d33f19341b4d
:1008bc0022003900686900f03efc6b6930001c199d
:0c08cc006c61dde7141ee6d13400f1e79a
:020000040000fa
:1008d80070b5124a002151609160117351619161a4
:1008e80011770f480f4b58630f4c9c630f4c5c619a
:1008f8003f2699550e4959640e490180012111700e
:100908004d2403251d5599550b4e5e640b4e0682ea
:1009180011741d550a4a1a8070bdc0468808002007
:100928006808002000480041a808002081818181d2
:10093800000380000908000000048000090400008a
:04094800020f00009a
:020000040000fa
:10094c000021f0b5174b184a934208d30027174ad9
:10095c0013685168002b05d1002903d1f0bd197023
:10096c000133f1e7100095680c305c18002d16d09f
:10097c000b25ed1a5219a3420ad10b000322134086
:10098c005a1e934189085918890040180200dfe764
:10099c005d1cae5c1e702b00ede71f700133a34293
:1009ac00fbd1f3e70000002000000020d80000007d
:020000040000fa
:1009bc007fb51600c2680d0013000091591e8b41c3
:1009cc00f31a0193836804000392694602220068bb
:1009dc00029300f000fb002808dc182208230240d8
:1009ec005340626813436360060010e0019b83422e
:1009fc00fad2a268c01ae3681018e2632064002bd4
:100a0c0005d0531ce3631378ad19013d2b703000f6
:040a1c0004b070bdf5
:020000040000fa
:100a200000230e4a10b513600d4a13600d4a13607f
:100a30000d4a13600d4a13600d4a5362136101336e
:100a4000936000f087fb00f068fb0a4c0a4b9c4265
:100a500000d310bd08cc9847f8e7c046280900200d
:100a60002408002020080020180800201c0800206e
:0c0a700028080020c4000000c80000009e
:020000040000fa
:100a7c002021222324242525262627272828282818
:100a8c00292929292a2a2a2a2b2b2b2b2c2c2c2cb2
:100a9c002c2c2c2c2d2d2d2d2d2d2d2d2e2e2e2e7a
:100aac002e2e2e2e2f2f2f2f2f2f2f2f00011702f0
:100abc001d1813031e1b190b1408040d1f161c12f2
:0c0acc001a0a070c1511090610050f0e80
:020000040000fa
:100ad80070b504000d00002801d1002070bd4368e6
:100ae8009b0607d543698269934215d80023a36200
:100af800a3616361e16b236c994204d2c91a012294
:100b0800206800f04afb00232364e3639d42e4d09d
:100b1800206800f03dfbe1e70022c36a1100984716
:0c0b28006369002be2d101204042d7e7b6
:020000040000fa
:100b340010b50f4b0f4a5a601a00d369002bfcd131
:100b44000b4b0d4a1a601a00d369002bfcd10b4bd6
:100b540000229a615a611a61da605a601a70044b71
:100b64000c329a7500220121054800f0fffa10bded
:100b7400000c0042400202000a013000e408002098
:040b840000440041e8
:020000040000fa
:100b8800f8b505000c000020002d20d000f0faf97f
:100b9800002c17d000200e4a0421072605e0178de7
:100ba8004300ef52013084420dd0137e0b42fcd03b
:100bb800538b334207d153683340012befd0138d49
:100bc8002b54efe72000201a44426041c0b2f8bd20
:040bd800001c0042bb
:020000040000fa
:100bdc0070b5040016001d00022a1cd043689b0649
:100bec0019d4002908d1002d01d18025ed00280051
:100bfc000830fff76bfb010020236268a1601343f0
:100c0c0063602300e5603433ff22012e00d10a22f9
:100c1c001a70024be362002070bdc0465d080000f4
:020000040000fa
:100c2c0070b5c668856804000a00ae4211d1012077
:100c3c00002100f055fac043c943431c03d00b4bb1
:100c4c001a68104018604b1c03d0084a53681940ae
:100c5c005160012319006268b56011439a43ee603c
:100c6c006160a41822681343236070bd1004002037
:020000040000fa
:100c7c0010b50f4b06225a600e4b1b6818680021ea
:100c8c0000f050fa0c4b1b681868002100f04afa6f
:100c9c0000f0f8f8fff712fd00f05efafff744ffe2
:100cac00fff714fe00f00af900f0b0f810bdc046d2
:0c0cbc0000400041380900201c0a002004
:020000040000fa
:100cc80010b5064c2378002b07d1054b002b02d01a
:100cd800044800e000bf0123237010bdc8080020ad
:100ce8000000000000000000044b10b5002b03d0ea
:100cf8000349044800e000bf10bdc04600000000e2
:080d0800cc08002000000000ef
:020000040000fa
:100d100010b50a4b98470a4b984700f034fa094b34
:100d2000ff229343084a9360084b9847084b984723
:100d3000084b984700f052f8fee7c046d310000079
:100d4000d31000000000000000ed00e0210a0000c8
:080d5000d3100000d3100000d5
:020000040000fa
:100d580070b5002818d0002918d000250c4a0124a5
:100d6800072605e06b00c35a13850135a94209d04f
:100d7800137e2342fcd053683340012bf2d0435ded
:100d88001385f2e7012070bd0020fce70120fae797
:040d9800001c0042f9
:020000040000fa
:100d9c000c4a036810b5546a0b4a591e121b914237
:100dac000bd9002b05d00c220120084b40421a60b5
:100dbc0010bd102202600020fae70f221733934374
:100dcc000360f8e728080020efffff7f2c090020c4
:020000040000fa
:100ddc0070b50020fff74cff094d0a4c0a4e1c233e
:100dec002a0021000020fff705fc1c232200310003
:100dfc000120fff7fffb1c212800fff7a7ffeee700
:0c0e0c0000090020280c0042200a0020f1
:020000040000fa
:100e180010b5bff35f8f62b60a4bc12080001a5825
:100e2800094c2240c02109040a431a5040221a6082
:100e380004301a582240114319508022d2001a60f7
:0c0e480010bdc04600e100e0ffff00ff0d
:020000040000fa
:100e54000309013b1800202b07d90a4a934205d8fd
:100e64000948db08c318043b18787047e0223f2088
:100e740052019342f9d80448db09c318043b18789b
:0c0e84001030f2e7ff0100007c0a0000c3
:020000040000fa
:100e90000c4b012250215a5401315a5401315a54f9
:100ea00001315a5403315a5434393820195401301d
:100eb00019541f39023019549b301a54ba329954bc
:080ec0007047c04600440041e8
:020000040000fa
:100ec8000a4b0b4a1a60d22252429a81c0229202dd
:100ed8005a601a00d369002bfcd1044a1368022116
:100ee8000b431360d369002bfcd17047001c0042f0
:040ef8000401204091
:020000040000fa
:100efc00f8b5050001262c68344201d000200ee024
:100f0c002000fff7a1ff070000f0b2f82868a0420c
:100f1c00f1d1b043281a3900fff782fe0120f8bd49
:020000040000fa
:100f2c00084b02001968002901d10749196018689b
:100f3c00064982188a4201d81a6070470120404243
:100f4c00fbe7c04630090020400a0020400c00207e
:020000040000fa
:100f5c00f8b5050001276c683c4201d000200de07b
:100f6c002000fff771ff060000f082f86b68a342c7
:0e0f7c00f1d128003100fff753fe0120f8bd2f
:020000040000fa
:020f8a00fee780
:020000040000fa
:100f8c00094b5b8b5b070dd0074b80221a76793aa5
:100f9c005a831b7e5b0705d5034b04211a8d1a7ee1
:0c0fac000a42fbd17047c046001c004206
:020000040000fa
:100fb800020000234832d356591e0b4313700423f2
:100fc8004268134005d01023134343600120404278
:0a0fd80070470364c3631800fae7d2
:020000040000fa
:100fe200f7b5002507000c002e000192019b9e42de
:100ff20001db2800febd62682168380000f02bf892
:0810020001362d180834f1e756
:020000040000fa
:10100a00f7b5002507000c002e000192019b9e42b5
:10101a0001db2800febd62682168380000f039f85b
:08102a0001362d180834f1e72e
:020000040000fa
:10103200012370b544689c43651a102d0ad94218e1
:1010420019432b4311605360083203514160100071
:06105200fff76ffa70bd0c
:020000040000fa
:1010580010b50c000023002809d10300002a06d08f
:1010680001212000fff78cfd0028f9d0012318008a
:0210780010bda9
:020000040000fa
:02107a00fee78f
:020000040000fa
:10107c00064b0130c000c258002a05d10200083ac4
:10108c00d21819184a60c2507047c046100400208c
:020000040000fa
:10109c0070b50d001400012801d0200070bd210096
:0c10ac002800fff753fe0028f9d0f6e7fb
:020000040000fa
:1010b80010b50400fff77cff002805d1a368e2689b
:0a10c800a36163619b18a36210bdd1
:020000040000fa
:0210d200704765
:020000040000fa
:1010d400d0400b1cd1409c46203ad3401843524286
:1010e40063469340184370479140031c90409c46cc
:1010f400203a9340194352426346d3401943704700
:020000040000fa
:10110400006810b5002801da002010bdfff70cffbd
:06111400431cfad1f8e7cc
:020000040000fa
:02111a0070471c
:020000040000fa
:10111c0010b500f037f8024b1860586010bdc0468f
:04112c001c0900207a
:020000040000fa
:101130004a424a41802310b55200db00fff74efdc2
:0211400010bde0
:020000040000fa
:10114200002310b59a4200d110bdcc5cc4540133c7
:02115200f8e7bc
:020000040000fa
:1011540010b5fff7e1ff00f018f800f016f810bd25
:020000040000fa
:0c116400014b82225a607047004000419d
:020000040000fa
:0c11700003695a4011405940016170476a
:020000040000fa
:0a117c0010b50068fff78cff10bdee
:020000040000fa
:0811860010b5fff7e0fb10bdfe
:020000040000fa
:02118e007047a8
:020000040000fa
:0811900000487047a00900208f
:020000040000fa
:06119800012040427047f7
:020000040000fa
:04119e000020704776
:020000040000fa
:0411a2000020704772
:020000040000fa
:0211a600704790
:020000040000fa
:0200000400807a
:0440000077c700d8a6
:020000040000fa
:0200000400807a
:044004005c00ffff5e
:00000001FF
