:020000040000fa
:10000000f03f0020cd320000ab1a0000db230000df
:1000100000000000000000000000000000000000e0
:10002000000000000000000000000000931200002b
:10003000000000000000000093120000dd39000005
:10004000931200009312000093120000931200001c
:10005000931200009312000093120000931200000c
:1000600093120000931200009312000093120000fc
:10007000931200009312000093120000f138000068
:1000800093120000931200009312000093120000dc
:100090009312000000000000000000009312000016
:1000a00093120000931200009312000093120000bc
:0800b0000000000093120000a3
:020000040000fa
:1000b800f8b5c046f8bc08bc9e467047ad32000093
:1000c800f8b5c046f8bc08bc9e46704785320000ab
:020000040000fa
:0800d800d21f0000010000002e
:020000040000fa
:1000e000f0b59bb013930b6815900d934b6812916c
:1000f00004938b680e930b691893cb68069313686f
:100100000b9353680b98089300220023089903f07f
:1001100005fa00280dd10d9b5b073ad408200d9bf2
:1001200003400c930e9b07930c9b002b0fd02023b6
:1001300006e0802212069446089b634408932d2310
:10014000069a13700e9b013b079301230c93089ba7
:100150000b995b005b08984a00291ed193421cd181
:10016000069c139ba4460c9a413b624493491000a1
:10017000192b10d803f0d4fd069803f09efd0d9bbb
:100180000200009306990e9b159802f0aefc1bb07e
:10019000f0bd2b23d4e70431ece7934203d810d110
:1001a0000b9b002b0dd0069c139ba4460c9a413b45
:1001b000624482491000192b01d80831dae70c316a
:1001c000d8e7002200230b98089903f0fafa0026da
:1001d0007b4f002833d000230393139803f086fd50
:1001e000c3b20f93049b002b00dae8e10f9b0a9344
:1001f000672b00d0f1e0049b002b00d1dae1039bd8
:10020000043304db039b049a934200dae0e06523a5
:10021000f9e026002f00039b013303930022694b72
:100220003000390001f098fb0b9a089b04000d0088
:1002300003f055f90028ecd00024012524e00390b8
:10024000ece7039b1a00604b9a4212da002c10d1a3
:1002500000225e4b0b98089901f07efb00220b9068
:10026000089130003900594b01f076fb2c00060054
:100270000f00544b30003900002201f0edff060062
:100280000f00039b013b039332003b000b9808993e
:1002900003f044f90028d4d19fe7002300241093f1
:1002a0001194fee0089609970a9b039d652b00d0e8
:1002b00019e1002517e1002f0ad1002d08da2e23bd
:1002c000069a149901365354079b0137013b079353
:1002d000a21933009446302102e0069ad15401332a
:1002e0009c45fad1079aa319141b069a30305e1c5c
:1002f000d054631e0793002421e0129b14961b69bf
:100300000493053bb34200d8f7e0089a099b0b9889
:10031000109901f0a1ff02f061f80490059103f03b
:10032000a9f9092800dd092010230d9a1340034381
:10033000c1d10f9b672bbed1002dc9da01348020bb
:100340000006844610990b9a61440b0004980599a5
:1003500000920193089a099b03f0b8fc80231b06c6
:10036000cb180b901093089809990022154b01f0b7
:1003700073ff013d08900991bbe00d9bdb0600d4a3
:10038000bee02e23069a93550136b9e00398390052
:1003900002f07af9069b3031013c19550398390077
:1003a00002f028f9079b0390013b0793bfe0069af0
:1003b000125c1a540138ede00000f07faa3c000006
:1003c0000000f03f00002440d4feffff0000504337
:1003d000039b002b16da66230a93049b01330493d4
:1003e0000a9b662b10d1039b002b03da0023002607
:1003f000764f03930f9b672b04d0039a049b94467c
:100400006344049366230a930023109611970b9d6f
:10041000089c1493109a119b2800210001f01cffe6
:1004200001f0dcff1690179103f024f980212a00d7
:100430000906631819900092019316981799109a5b
:10044000119b03f043fc80231b06cc180022604b59
:1004500005001098119901f0fffe149b1090119166
:1004600001331493149a049b9342d3d10022594b25
:1004700001f072fa1090119102000b002800210087
:1004800003f04cf8002800d007e7109a119b2800d1
:10049000210003f096f9002803d0199bdb0700d454
:1004a000fbe6109a119b0b98089901f085f8002241
:1004b0000b901091464b3000390001f04dfa0b9a29
:1004c000109b0890099102f047ff002800d1e9e64f
:1004d000039b013303930a9b662b00d0e4e6049b45
:1004e000039d0133049300242700049b0c9eeb1a08
:1004f0001693169b9d4200d0ffe6002f00d13ce7eb
:100500000025069b9b1904931d700a9b652b31d116
:10051000189b5c1e069b1d55039bab4202da5b4297
:100520000393013503230a27189a9b1a0893039b08
:10053000002b00d02ae7089b1b19002b00dd25e7c4
:10054000621e2d23002d00d1023b0699023c8b54e4
:10055000139b413b192b01d845230a93069b19197c
:100560000a9b0b70079b023b0793a64202da049892
:1005700003f0d6fb03230d9a1340022b00d0fbe5ba
:10058000079b002b00dcf7e5069803f096fb069b23
:10059000079a9b180c9a824200dc08e71300069a1f
:1005a0003021944663441800079a03f066fb002349
:1005b0000e93e1e50123049321e60623fbe70f9b5d
:1005c000672bfad00a930623049306e70000f03f56
:0805d00000002440000014406b
:020000040000fa
:1005d800f0b599b014930b68566809934b6813905b
:1005e8000d938b68cf680c930b69310011931368d6
:1005f800002207930798002302f08cff00280cd1f3
:10060800099b5b0732d40820099b0c9d0340059386
:100618000cd02023013d3b7006e080231b06f61812
:100628002d233b700c9b5d1e01230593079a7300d5
:100638005b08002a1cd1b24a934219d1149bb14cd1
:10064800059a413bb8182100192b00d9211d03f048
:1006580063fb201d03f02dfb099b0200009339006a
:100668000c9b139802f03dfa19b0f0bd2b23d8e784
:10067800a34a934203d812d1079b002b0fd0149b97
:10068800a04c059a413bb8182100192b05d8083110
:1006980003f042fb20000c30dce70c31f8e7059b47
:1006a80005995a1c30237b54149b413b0e930e9999
:1006b8005823192900d920330599bb540231ab1ea0
:1006c80005910893002200230798310003f075f87c
:1006d800002800d164e100238b4c06930293039415
:1006e8000d9b1093002b01da18231093029b039c97
:1006f8000a930b9434000023079d129328000a9a4a
:100708000b9b210001f0a4fd01f064fe0a9a0b9beb
:100718001690179101f01cf902000b002800210027
:1007280003f0d8fa794b05000c000a980b990022bf
:1007380001f00ef9129b0a900b9101330f930d9b58
:10074800002b07da002200232800210003f035f8e7
:10075800002806d1109b129a934200dd26e101334e
:100768000f9300220a980b99694b01f0f1f80a904f
:100778000b9102000b002800210002f0cbfe00289c
:1007880000d015e10a9a0b9b2800210003f015f808
:10079800002806d01698179902f068ffc30700d4fe
:1007a80006e10a9a0b9b0798310000f001ff1291ad
:1007b80049000a904908002803d1514b994200d1b9
:1007c8003ce70025059c10950795119b2600053be5
:1007d800a34230d9029a039b0a98129901f038fd76
:1007e80001f0f8fd1490159102f040ff031e00d0af
:1007f800e3e0079a002a00d1dfe00135029a039b63
:100808001498159901f0a4f802000b000a9812999f
:1008180003f060fa00220a9012913c4b0298039967
:1008280001f096f8079b0290039101330793079a0a
:100838000f9b9342c9d1109b002b1ad1002d00d1d8
:10084800fce00d9b002b00dcf8e0099bdb0700d5e2
:10085800f4e02e2230213b191a702a19ba1859705f
:1008680001339a42fbd12c19ed43089b0134eb1854
:10087800089300263b191e700293119b5d1e069b70
:100888007e55b34202da5b42069301360223119a7f
:100898009b1a0793069b002b00d0bbe0079b5b19b4
:1008a800012b00d1b6e06a1e2d23002e00d1023b99
:1008b800bb540e9a023d5023192a00d920337919c6
:1008c8000b70ac4202da029803f026fa0323099a65
:1008d8001340022b12d1089d023d002d0edd380079
:1008e80003f0e7f97b19059a904200dba2e0b818fb
:1008f80030212a0003f0bdf900230c933800a9e643
:100908000000f07f9a3c00000000f03f0000b03f7c
:1009180000002040069b0294039501330693029a37
:10092800039b1000190000f043fe04000d000200b4
:100938000b000798310002f0edfd0028ead0029a7a
:10094800039b0798310002f0e5fd002800d1c7e6b7
:100958000298039900223d4b00f0faff0022002381
:1009680002f02bff00280fd0029803990022384b81
:1009780000f0eeff002202900391354b07983100fa
:1009880000f0e6ff0e000790304b02980399002212
:1009980000f0deff069b02900391013b0693cee731
:1009a80000232c4c069002930394b8e70f9ba4e60f
:1009b800002300240a930b94f3e6109a002a0ad124
:1009c800079a002a07d02e22ba55089a0134013a0c
:1009d8000892012210922e1902e030223a55013471
:1009e800b442fad11800089a5730551b092b01dc7c
:1009f800303318000e9b192b06d820230343613b84
:100a0800192b01d803f075f96b1e741cb85508939f
:100a18000025f3e606980a2101f032fe013d303147
:100a2800795506980a2101f0e1fd089b0690013be3
:100a380008932fe73a5c1a54013854e7099bdb0600
:100a480000d416e72e233b55013412e70000e03f9f
:080a5800000050430000f03fd4
:020000040000fa
:100a6000f0b58bb0040001910292242901d801292c
:100a700003d11622b84b1a6056e0e36be26c934246
:100a800024d25a1ce2631d78202df6d02b00093b9e
:100a9000042bf2d90222223b934300220392934279
:100aa0000bd12d3d6b425d416b420393e26ce36bd6
:100ab000934210d25a1ce2631d78019be26c002b1a
:100ac0000ed0102b55d1302d0cd052e0200002f06a
:100ad000e5f90500d8e7200002f0e0f90500ece7b1
:100ae000302d44d1e36b934224d25a1ce2631d782b
:100af00020232b43782b2ed1e36be26c93421ed242
:100b00005a1ce2631d781022944b01925b5d0f2bff
:100b100000d8c7e0e36c002b00d1a9e1029ae36b97
:100b2000002a11d0023be363002600273000390081
:100b30000bb0f0bd200002f0b1f90500d8e72000ad
:100b400002f0acf90500dee7013be3630021200081
:100b500002f0ceffe8e7019b002b00d1a0e0019b53
:100b60000a2b00d09ee00023019f02931ce00a2381
:100b700001937a4b01995b5d8b42f0d3002a02d03e
:100b8000e36b013be3630021200002f0b1ff70e75b
:100b9000029ee36b7e43e26c7519303d02959342f1
:100ba00068d25a1ce2631d782b00303b092b03d816
:100bb0006b4b029a9a42ebd90027029e2b00303be6
:100bc0000293092b33d8674b9f4213d802d1664b4f
:100bd0009e420fd800230a223000390002f0defbcb
:100be000029b049300230593049bdb434a1c46d1dc
:100bf000984244d9594b019a5b5d934217d2e36bfb
:100c0000e26c934200d318e15a1ce2631878534b0c
:100c1000019a1b5c9342f2d3109e119f22224e4bed
:100c20001a600123109a134201d000230393e36c4e
:100c3000002b02d0e36b013be363119bbb4200d965
:100c40000ce103d1109bb34200d907e10123109ab4
:100c5000134200d0f5e0039b002b00d0f1e02222ec
:100c600001267642f7173c4b1a60109b119cf61830
:100c700067415be7200002f011f9050094e7e36ba0
:100c8000e26c049e059f36184f41934203d25a1cd2
:100c9000e2631d7892e7200002f000f905008de77d
:100ca00008230193019b5e1e3340029300d0bce0f9
:100cb000019a173353432d4a1b065b0fd35c0493f1
:100cc000264b019a5b5d9a4203d9294a02999142c7
:100cd0002bd9049a01204042c11702f047ff002798
:100ce000029e089006911d4b5b5d0293029a019b48
:100cf000934200d87ee7069b9f4200d97ae703d152
:100d0000089b9e4200d975e7049a3000390002f032
:100d100039ff029be26c03431e00e36b0f0093421a
:100d200015d25a1ce2631d78dde7029e049a9640b4
:100d3000e26c1e43e36b0296934203d25a1ce263b9
:100d40001d78bde7200002f0a9f80500b8e72000f3
:100d500002f0a4f80500c6e7a8060020c01e0000a7
:100d6000989999199999991999999999b61e000084
:100d7000ffffff07029e019a5643f3180293e26cad
:100d8000e36b93424cd25a1ce2631d783c4b019ab0
:100d90005b5d9a4203d93b4a02999142ead9002706
:100da000029e374b5b5d0293029a019b934200d8ef
:100db00020e7002f17d01a0000233000190002f09e
:100dc000edfa002304913a001900019802f0e6fac6
:100dd000049b089300230993089a099b80185941a2
:100de000002900d006e73b0032000198002102f004
:100df000d5fa029b069300230793069bdb434a1c0c
:100e000002d1984200d9f5e6069e079fe36be26c9b
:100e100036184f4193420bd25a1ce2631d78c0e74b
:100e2000200002f03bf80500b0e700230293ade795
:100e3000200002f033f80500b3e7200002f02ef89e
:100e4000e5e6119b9f4203d808d1109b9e4205d92d
:100e5000109e119f22220c4b1a6067e6039b013300
:100e600000d063e633003c0000275e42a7415de608
:100e7000029b00260027002b00d057e666e6c046fe
:0c0e8000c01e0000c6711c07a806002060
:020000040000fa
:100e8c000023f0b504001600f1b007910893049309
:100e9c00079b1b78002b67d0002309930a930b93b5
:100eac000eab0c93802307a920000d9302f0f6fbe8
:100ebc000500079b1a78002a01d0252a41d1089aef
:100ecc00551908951a78252a31d100255a1c0792f4
:100edc000b955a782a2a02d10233079301350798c9
:100eec0002f078fa01000b90200002f0fbfd079b4a
:100efc001a78303a092a4dd907a802f09bfb079bb8
:100f0c000700187802f0ecfe672865dc652800db2a
:100f1c00cce0612800d1c9e03fdc079b252800d13b
:100f2c00f3e05b2800d10ee1079b01330793039b91
:100f3c00013300d0fae0049b002b15d1013b049344
:100f4c0012e0e36be26c934211d25a1ce2631b7801
:100f5c000393079b039a1b7893420fd0e36c002bef
:100f6c0002d0e36b013be363049871b0f0bd200049
:100f7c0001f08eff030003900133ead1089b07a90f
:100f8c0001330893079b20000133079302f086fb83
:100f9c002d188ee701330793a9e7632800d199e058
:100fac006428c1d108ab09aa2ea9200002f0befb0f
:100fbc00002800da65e1079b01330793002d00d070
:100fcc00b4e03300012239002ea801f00cfd051eff
:100fdc0069da6b1cafd0c7e7702843d00bdc6e28e6
:100fec0052d031dc69289fd108ab09aa2ea9200068
:100ffc0000f012fedce7752815d078282bd073286a
:10100c0000d091e7802f00d08ee7079b0133079328
:10101c0000239d4203d133681a1d32601b68009374
:10102c00012208ab6ce008ab09aa2ea9200002f043
:10103c0094fb002800da24e1079b01330793002d71
:10104c0074d133002a00bee708ab09aa2ea92000f0
:10105c0001f01efbede708ab09aa2ea9200000f059
:10106c00a9ffe6e708ab09aa2ea9200000f0a2ff11
:10107c00002800da05e1079b01330793002d55d1b9
:10108c0033002a00f0219fe7079b01330793089b4d
:10109c002e93db172f93002d48d133002a003900f3
:1010ac002ea801f0a0fc049b5b19f0e608ab09aa82
:1010bc002ea9200002f049fe002800dae1e0079b8f
:1010cc0001330793002d31d1320039002ea802f0e4
:1010dc0087f87ce7802f00d026e70b9b0593002b2d
:1010ec0001d101330b93079b0133079300239d42de
:1010fc0003d133681a1d32601b680022009308abc1
:10110c0009a9200001f05cfb61e7802f00d00be700
:10111c0001330793e26ce36b934209d25a1ce263ee
:10112c001878252808d1089b013308930025bae7c5
:10113c00200001f0adfef4e7e36c002bf6d0e36b7e
:10114c00013be363f2e7802f00d0ede60027bd42c0
:10115c0003d13268111d316017685a1c07925a78f6
:10116c0000255e2a02d102330793013502222900a1
:10117c00ff322ea802f07bfda821002304aa5218ee
:10118c001370079b1a782d2a21d101330793012361
:10119c00a93204a95b1b5218137001232eaa5d1be4
:1011ac0007990b785d2b1cd10025af423bd1e36b2b
:1011bc00e26c934260d25a1ce2631b780393039a4d
:1011cc002eab9b185d78002d52d105953ae05d2a27
:1011dc00e3d101330793012304aa07325b1bff32cf
:1011ec00dae7002be0d02d2b07d0079b2ea819781f
:1011fc00013341184d700793d2e7089b1b78002be5
:10120c00f3d05d2bf1d04b1c0793069b1b784878d1
:10121c008342eada01339d54f9e7039b7b55089b23
:10122c00013501330893e36be26c059593421ad2b6
:10123c005a1ce2631b780393039a2eab9b185b78c2
:10124c00002bead1e36c002b02d0e36b013be36390
:10125c00059b002b00d167e6002f00d164e600232c
:10126c00059abb5460e6200001f012fe0390e3e700
:10127c00089b013308939ae7200001f009fe0390c4
:06128c009de70500a5e648
:020000040000fa
:02129200fee775
:020000040000fa
:101294000023f0b506001500afb005910193059940
:1012a4000b78002b00d10fe101235b420a930eabb4
:1012b40000240c93802309940b940d930b5d002b55
:1012c40001d0252b2ad1002c06d02200300002f0b8
:1012d4007ff9059b1b190593059b1a78252a00d0d5
:1012e400e7e0013302930593022310219c4608276b
:1012f400059803782b2b1bd025d8202b1bd0232b10
:101304001dd02a2b2ad002f069f80b90059b1a787d
:10131400303a092a33d801330593f7e70134cde78e
:101324000122099b80180393134309930590dfe777
:101334000423099a0ee0099b03933b430be0099baa
:1013440003930b4307e02d2bead0302bd9d162460f
:10135400099b0393134309930130e7e72b6801309a
:101364001a1d1b6805902a600b93002b07da099a53
:101374005b420392012203990b934a400992099b11
:10138400da0702d5022293430993059b1a782e2a81
:101394000ed10022581c0a9205905a782a2a28d184
:1013a400023305932b681a1d1b682a6003930a9362
:1013b40005a802f043f9059b0700187802f094fc95
:1013c400692800d183e035dc632800d1d6e01bdc3a
:1013d400252800d1dfe0612859d0252306aa1370ff
:1013e400029b0593002309930b93013b0a93023359
:1013f400b2e001f0f3ff0a90059b1a78303a092a0b
:10140400d6d801330593f7e7642860d06728e4dc75
:101414002a00390006a802f02cfa002800d1a9e01d
:10142400059b09a95a1c05921b7806aa3000fef7f1
:1014340055fe3de0702800d17de016dc6e2800d119
:1014440091e06f28c9d12b000022390006a800f0d2
:1014540063ff002800d18de0059b06aa013309a98a
:101464003000059301f0ecfb22e0752840d0782889
:101474004fd07328b1d1802f00d07be0059b2a6820
:1014840001330593131d2b601268002364e02a00c6
:10149400390006a802f0edf9002800d16ae0059ba6
:1014a40009a95a1c05921b7806aa3000fff792f886
:1014b4002418019b1c19a34200dc74e04f223b4b0f
:1014c4001a6001235b42019301982fb0f0bd2b00f9
:1014d4000122390006a800f01fff00284ad0059b0e
:1014e40006aa013309a93000059300f0cfffdfe716
:1014f4002b000022390006a800f00eff002839d086
:10150400059b06aa013309a93000059301f04efd9d
:10151400cee72b000022390006a800f0fdfe0028cb
:1015240028d0059b5a1c05921b7806aa09a93000ed
:1015340000f025fcbce72b000022f02106a800f0f7
:10154400ebfe002816d0059b079a01330593069bf2
:10155400134306d1164a163209a9300001f0f6fdec
:10156400a6e77823e1e7019b39001a1906a82b00a6
:1015740001f09dfb059b013305939ae7802ff9d178
:10158400059b013305932b681a1d1b682a6006aa64
:1015940013700123e0e7802fecd1059b06aa0133e9
:1015a40005931070f5e7019479e6c046a80600207b
:0415b400d43a000025
:020000040000fa
:1015b800f0b40125ed070f005f405ad48b4200d1eb
:1015c800824205d950404240504059404b40594012
:1015d8004e18760ddf187f0d3bd0741c640529d09a
:1015e800f41b352c26d80e0ddb022b43db0ac9026f
:1015f8002943c9121700202c1ed2e741e240574068
:10160800e3415a40a340e3405a400024801859411e
:101618000ad3b21c520521d0c207012f624117001c
:101628004008cb0718434908013636054208af4140
:1016380060417141f0bc7047203c06d01f00e74173
:10164800e3405f400024012a6741c0186141ebd3a1
:10165800dfe7002eeed129400020ebe70136310507
:101668000020e7e7e742e5d10020c143090dc9049e
:10167800e0e76b400e00871a9e4104d26e40c01b03
:10168800b141d21973414e18df18ac0ae642e9d2cb
:10169800760d7f0d31d0f41b362ccbd8b4460e0d09
:1016a800db022b43db0ac9022943c90a012c32d8c1
:1016b80004d1d4075208df073a435b08ef0a6442b3
:1016c800904199411ed0002239424dd12419404100
:1016d80049410124394204d10134001849413942b1
:1016e800fad06246a24204d9361b013e3605891952
:1016f800a0e7f10ac90700209ce736429ad10020ea
:10170800002197e70200224394d0b842ded20100bc
:1017180020002024e3d1202c13dd203ce2411700d7
:10172800a240e2405740e3415a40a340e3405a40b8
:10173800012fbf410137174300227c429841914154
:101748000ce01700e741e2405740e3415a40a3400c
:10175800e3405a407c429041994100220f0303d252
:10176800013e241940414941013e36054708ac4134
:0817780050417141f0bc7047c3
:020000040000fa
:10178000680600201c000000000000008406002005
:101790000c0000000000000090060020080000007f
:1017a00000000000a006002004000000000000006f
:1017b000180600205000000000000000b0060020c5
:1017c0006c00000001000000bc060020b8060020ec
:1017d000bc060020000000002500000008000020da
:1017e00000040000000000000000000000000000f5
:1017f00000000000000000000000000000000000e9
:10180000000000005b3d0000000000000000000040
:1018100000000000000000001b2d00000000000080
:1018200000000000000000000000000000000000b8
:10183000000000000000002008040000000000007c
:101840007c070020200000000100000001000000d3
:101850000300000000000000000000000000000085
:1018600000000000000000009806002098060020fc
:101870000800000000000000a40600200400000092
:1018800000000000a8060020040000000000000086
:101890000804002010020000000000001c070020c7
:1018a00060000000010000000100000003000000d3
:1018b0000000000000000000000000000000000028
:1018c00000000000552f0000000000000000000094
:1018d000000000002d3d00001f3800000000000047
:1018e00000000000000000000000000000000000f8
:1018f00000000000000000000000000000000000e8
:101900000000000000000000ac0600200400000001
:1019100000000000000000000000000044444444b7
:020000040000fa
:1019200008d1002806d1f54204d801d3002a01d1fc
:101930006d0d09d10020c143090dc904f0bdf9d1d5
:101940001242f7d1640df5d00020c1434905490882
:10195000a6e000206146f0bdf0b50127ff070e00ac
:101960005e403e40b446be0a4c18dd18f442d7d261
:10197000f542e4d2640decd06d0dead06419c902d1
:101980003943460dc0023143db023b43db0a10b44e
:101990008e4685b297b26f43140c6c433e0ca4196b
:1019a000260c2404bfb227439cb26c43a419190c23
:1019b0006943250ca4b249190d04090c6419000ce3
:1019c00095b245433e0c76193743bfb2360c150c21
:1019d0004543ad19a6b2240cad192e0437432e0c85
:1019e00036199db24543ad19acb22e0c89191d0ca8
:1019f00045436d182e04290c3443704680b295b2cd
:101a000045433e0c76193743bfb2360c150c45439f
:101a1000ad19a6b2ad19240c2e0437432e0c36197d
:101a20009db24543ad19acb22e0c89191d0c45432e
:101a30006d182e043443290c75462d0c90b2684362
:101a40003e0c80190604bfb23e43070ca0b23f18fb
:101a5000120c6a43d019020c80b2240ca4189ab25a
:101a60006a43121914042043120c89181b0c6b438f
:101a7000c91810bc01273d05294203d1b6194041c0
:101a80004941013cff077d0d013d641b0bdb6d00ef
:101a9000ac4209da240500254208be416841614193
:0a1aa00066463143f0bd54e74ee7ff
:020000040000fa
:021aaa00fee755
:020000040000fa
:101aac00f0b587b0039003a801f0b4fc002802da6b
:101abc00002007b0f0bd039b1b095d1e202d09d92a
:101acc004f49023b4f4a8b4224d8db08d318043bc6
:101adc001d7801352a000120002102f04df8002468
:101aec0043428c4100930194474f00983a687b68bd
:101afc001040020001990b401a433fd1039b05a8eb
:101b0c001033059302f05bf8002809d10c223f4bef
:101b1c001a60cee7db09d318043b1d781135d9e7e1
:101b2c003b490c68a04206d0059b0400103b059372
:101b3c000123103483600125059be2180a602b43b6
:101b4c00083a083c28c26360002cb1d0200001f098
:101b5c00bdfd00280bd023686168ab43e31a5a68bb
:101b6c00aa4352185a606168a94362501c002000b5
:101b7c00039901f007ff200008309ae7214a254914
:101b8c003c32002831d1584203404b43db0ed65c2b
:101b9c002036300001f050ff731cdb00fc58083b72
:101bac00fb189c42a0d0272e25dd0235ae4201dc6d
:101bbc003f2e20d101226368039f9343dd1b280035
:101bcc00009301f0c5fc864215d1e268a168e319c7
:101bdc00da60996093609a68d360012217431f60a2
:101bec005d60009be5506760c1e7434203404b4397
:101bfc00db0ed65ccde73100200001f07bfab6e7b6
:101c0c00ff010000f82e000010040020a8060020a0
:081c1c000804002029e66b0713
:020000040000fa
:101c2400f0b51f00936889b003931369040004930b
:101c3400d3680591019301f031fc3b681818039bac
:101c44003860002b02d1049b013b03930a230093c9
:101c540000231e000293039b9e4241da049b013b36
:101c6400b3423ddde36be26c93420fd25a1ce26354
:101c74001d782b0002222b3b9343334311d1019b4c
:101c84001d703b6801333b600123e2e7200001f053
:101c940003f90500431cecd1002e21d1280009b022
:101ca400f0bd029b9e4209d1731c0293009b0a2b38
:101cb4002cd1023b302d54d0002302932b00303b17
:101cc400092b48d9009b102b04d1280001f0f2fe07
:101cd400002847d1e36c002b02d0e36b013be363a4
:101ce4000023019a9355009b0a2b42d11a0007a99d
:101cf400019801f091ff059b019a18605960079bb8
:101d040001259342cad102256d42c7e7009b082be7
:101d1400d2d118332b43782bced1e36be26c9342b0
:101d240015d25a1ce2631878e36c002b02d0e36be3
:101d3400013be36301f0befe0028cbd0019b9d551f
:101d44003b68013601333b601023009383e7200096
:101d540001f0a2f8e8e7009b082b03d1372d01dd41
:101d640002330093019b9d553b68013601333b6070
:0e1d740071e7009a07a9019801f044ffbbe750
:020000040000fa
:101d8200f0b58fb00d934b680c9006938b680d00e5
:101d92000793cb6816000393069b0f68002b44db66
:101da20002239f4310233b400a93079b04930a9b01
:101db200002b07d0726833681343079a02d01300ce
:101dc200023b049308233b400b935a1e9341049a0f
:101dd200d31a04933368039a0893736809932b699f
:101de2005c1e00231355069b0593012c20dc0a9be5
:101df200002b52d10b9b002b03d02023039a013cd2
:101e020013552b6900975a1e039b121b19190c9824
:101e1200079b00f069fe0c9b5b68db0503d56b68d2
:101e2200984200da18000fb0f0bd01230693b9e71b
:101e3200089b099a13430cd1059b002b09dc069ad7
:101e4200049b9b1a059a9b18002bd0dd02231f428c
:101e5200cdd00f22089b013c134018005730092bac
:101e620001dc303318000d9b413b192b06d820238f
:101e72000343613b192b01d801f03eff039b185528
:101e8200059b013b0593099b1a07089b1b091a43f3
:101e9200099b08921b090993a7e70cce1343a9d00b
:101ea200039b0d9a1b19013b1a703023039a023cc3
:041eb20013559fe73e
:020000040000fa
:101eb600000102040703060500ffffffffffffff07
:101ec600ffffffffffffffffffffffffffffffff1c
:101ed600ffffffffffffffffffffffffffffffff0c
:101ee600ffffffffffffffffffff000102030405e7
:101ef60006070809ffffffffffffff0a0b0c0d0e89
:101f06000f101112131415161718191a1b1c1d1e63
:101f16001f20212223ffffffffffff0a0b0c0d0ee0
:101f26000f101112131415161718191a1b1c1d1e43
:101f36001f20212223ffffffffffffffffffffff01
:101f4600ffffffffffffffffffffffffffffffff9b
:101f5600ffffffffffffffffffffffffffffffff8b
:101f6600ffffffffffffffffffffffffffffffff7b
:101f7600ffffffffffffffffffffffffffffffff6b
:101f8600ffffffffffffffffffffffffffffffff5b
:101f9600ffffffffffffffffffffffffffffffff4b
:101fa600ffffffffffffffffffffffffffffffff3b
:0a1fb600ffffffffffffffffffff2b
:020000040000fa
:101fc000f0b51f00936887b0019313690400029372
:101fd000d3680391009301f063fa3b681818019be2
:101fe0003860002b02d1029b013b01930026019b2c
:101ff0009e4231da029b013bb3422ddde36be26c82
:1020000093423cd25a1ce2631d78280001f054fd33
:10201000002843d1012e19d1280001f067fe78284d
:1020200014d1009b1b78302b10d1e36be26c9342f0
:1020300030d25a1ce2631878e36c002b02d0e36bb9
:10204000013be36301f038fd002827d1e36c002b4e
:1020500002d0e36b013be3630023009a05a993558b
:102060000098102201f0d0fd039b009a186059607f
:10207000059b012593420ad102256d4207e020000d
:1020800000f00cff0500431cbfd1002ee4d1280056
:1020900007b0f0bd200000f001ffcde7009b9d558b
:0a20a0003b68013601333b60a1e705
:020000040000fa
:1020aa00f0b5060085b00f0015001c008b4265d8fc
:1020ba0001d1824262d82100280001f06afd39006c
:1020ca000090300001f065fd009b21001b1a1a00e8
:1020da002800039301f051fd00900191019bbb423e
:1020ea0046d802d1009bb34242d8009b019c039a76
:1020fa0001200021f61aa74101f03ffd039b002ba6
:10210a002fd0019b009adb0754081c43019b5d08f2
:10211a00039b9c46bd422ed801d1b4422bd8320033
:10212a003b00121bab41012692185b410027b618ef
:10213a005f4101235b429c446346002bead180192c
:10214a007941039a04000d003000390001f009fdbd
:10215a00039a06000f0001f010fd241a8d41200099
:10216a0029000a9b002b01d01e605f6005b0f0bdfc
:10217a0000200021c2e7b6197f41dae700200021da
:02218a00efe77d
:020000040000fa
:10218c00f7b5002858d00838436801221e00964342
:10219c0085192a680400934200d0ffde01276b6882
:1021ac00226813403b420ed1200001f08ffa002828
:1021bc0043d1280001f0e8fa0028f0d06b68bb434b
:1021cc00f618ed18ebe73b003343636030002b60ef
:1021dc0001f0bef9019001f02ffc6b6822681340ee
:1021ec003b42e1d0184b019a1868596801f0b8fcd1
:1021fc00384212d1019a0120002101f0bdfc0b00e4
:10220c00002804d0104a126802430f480260002bc9
:10221c0003d00d4a53680b435360019b0a4a0133a8
:10222c00db00d3181a005b68083a66602e60e36026
:10223c00a260d460e3689c60f7bd2368bb43e41ada
:0c224c006368bb43f618b4e710040020e0
:020000040000fa
:10225800f0b40125ed070c005c402c40a446ae0a02
:102268004c18df18f4423dd2f74245d2640d4cd0e9
:102278007f0d3cd0e41bc9022943cf0adb022b4364
:10228800db0a0600b61a9f4104d2013cb6197f4109
:10229800b6185f416812800d241838dd0018844292
:1022a80025d8e80c0021b6197f41b61a9f4103d3ff
:1022b80040414941f7d304e0b6185f41001849414d
:1022c800f1d32405b6197f41b61a9f4105d3374388
:1022d800c20717430022012f504161416246114352
:1022e800f0bc70470cd100280ad1f74208d2002070
:1022f800c143490d0905f1e7002a01d1f74206d08b
:102308000020c143090dc904eae77f0df8d0002079
:042318006146e5e74e
:020000040000fa
:10231c0010b588293cd015dc81294dd003dc8029ef
:10232c004ad0002010bd822911d08429f9d1196816
:10233c00002a26d00a1d1a6000228b5e0360db1770
:10234c00436011e0a02930d010dc9029e9d1196844
:10235c000724002a2ed00919a1430a0008321a605a
:10236c000b684c68036044600120dbe7c02901d096
:10237c00f029d6d11a68111d196013680360002367
:10238c00dee70c1d1c600b689bb203604260ebe740
:10239c001968002a04d00a1d1a600023cb56cde719
:1023ac000c1d1c600b68dbb2efe71a68111d19607d
:1023bc001368c3e70731cfe71968002a03d00a1d59
:0e23cc001a600b68bae70c1d1c600b68dde799
:020000040000fa
:0223da00fee71c
:020000040000fa
:1023dc004b005b0d264af0b55c1e944238d8254a5a
:1023ec009e1825d4332e22dc234a9b1827d4234a4b
:1023fc00da400700214b9743f3403c000f000240aa
:10240c009f4319403d000a430fd0002f0dda2023c3
:10241c005b42f11824d480204003c8400200802184
:10242c004903f1400b00a4185d4120002900f0bdc8
:10243c000020002901db0021f9e71149f7e72022f0
:10244c000e4b921b934001225242f2401a43d0e7aa
:10245c00002becd10022c90fcb0710001900e6e7c6
:10246c0020218020891b400388400200d7e7c0460a
:10247c00fd07000001fcffffe1fbffffffff0f006a
:04248c000000f0bf9d
:020000040000fa
:10249000f0b54b6889b005930b6807009c4607931d
:1024a000cb680c008e68049310685168cd0f44d03f
:1024b0000b000200002150429941059b002b08dbd4
:1024c0000222634693430793002d02d1079b5a07cc
:1024d0002ad5731e07aa02920a22009301920b00ca
:1024e0000200200000f046fa002d02d1079b5a0797
:1024f0001ed501382d23002d00d1023b049a135420
:1025000023695a1e049b121a1918079b380000935e
:10251000330000f0eafa7b68db0503d56368984274
:1025200000da180009b0f0bd1b07db0ff31ad1e782
:102530001b07e5d501382023e0e7059b002bbfda18
:02254000c4e7ee
:020000040000fa
:022542007047e0
:020000040000fa
:10254400f0b5c64600b584b0002000f027fe002098
:1025540000f024fe01f084fa01f040fb1f4801f072
:10256400d7fb1f4ca04633e0200001f059fa01a923
:102574001c4801f01dfb2000283001f051fa019b9a
:10258400012b09d0280001f079fa3b6b3342ebd1df
:10259400fa235b003b67e7e7134801f041fa45463d
:1025a400243503a9280001f003fb4046503001f014
:1025b40037fa02a9280001f0fbfa039801f05efa49
:1025c4003b6b334207d1029b1b021b0a074a13676a
:1025d400064f80267602fa25ad00d3e7a0860100d7
:1025e400642b0000882b0000942b00000020004284
:020000040000fa
:1025f400002941d010b4041c4c40a44601230022fd
:10260400002900d54942002800d5404288422cd3f5
:1026140001242407a14204d2814202d209011b01f0
:10262400f8e7e400a14204d2814202d249005b00ef
:10263400f8e7884201d3401a1a434c08a04202d357
:10264400001b5c0822438c08a04202d3001b9c0898
:102654002243cc08a04202d3001bdc0822430028fa
:1026640003d01b0901d00909e3e7101c6446002cc0
:1026740000d5404210bc704701b5002001f06efb4c
:1026840002bdc0460029f7d003b5fff7b3ff0ebc67
:082694004243891a1847c046b1
:020000040000fa
:10269c00f0b51f00936887b001931369040002938f
:1026ac000391d66800f0f6fe3b681818019b386061
:1026bc00002b02d1029b013b01930025019b9d4203
:1026cc0014da029b013bab4210dde36be26c9342ec
:1026dc001dd25a1ce26318780300303b072b1fd91c
:1026ec00e36c002b02d0e36b013be3630023082275
:1026fc00735505a9300001f081fa039b18605960ed
:10270c00059b0120b34209d10220404206e0200083
:10271c0000f0befb431cdfd1002de7d107b0f0bdac
:0c272c0070553b68013501333b60c7e786
:020000040000fa
:102738001c4b00229a619a8c80218a439a841a0041
:102748001023d1680b42fcd0174b1b689b0e3f2b04
:1027580025d09b02802292001343124a93621023d1
:10276800d1680b42fcd00f4b02229a841a00102326
:10277800d1680b42fcd00d4b0d4a5a601a005378b1
:102788005bb2002bfbdb094b0a4a5a800a4a5a8083
:102798000a4b0b4a1a62034b00221a627047203b0d
:1027a800d7e7c0460008004024608000000c0040c5
:1027b80000070100194000001a4000000004004012
:0427c800800101008b
:020000040000fa
:1027cc00f7b505000c0017001e00002a04d000f01d
:1027dc0061fe336818183060a36800240193019bd4
:1027ec00002b01d09c421fdaeb6bea6c934214d2a3
:1027fc005a1cea631878002f1dd0202803d0030040
:10280c00093b042b17d8eb6c002b02d0eb6b013b74
:10281c00eb63089b002b19d109e0280000f038fb72
:10282c00431ce8d1002c05d0089b002b0cd12000b8
:10283c00441ea041febd089b002b00d018553368e8
:10284c00013401333360cae7002ff0d00023089a1b
:04285c001355ece73d
:020000040000fa
:10286000f7b50b6916000193cb68050000938f68dc
:1028700000f016fe336818183060002f01d1019b5c
:102880005f1e0024bc4229da019b013ba34225dde7
:10289000eb6bea6c93420fd25a1cea631878030080
:1028a00002222b3b934323430ed1009b012418703b
:1028b000336801333360e5e7280000f0effa431c8a
:1028c000edd1002c0ad1febd0300303b092b09d904
:1028d000eb6c002b02d0eb6b013beb630020009b09
:1028e0001855f0e7009b1855336801340133336005
:0228f000c8e737
:020000040000fa
:1028f200f0b51600050002278369426987b002938a
:10290200d31a03939b1904910596019302ac3a00e2
:102912002100286801f027f8019b984208d1ab6892
:10292200ea68ab619a18aa626b61300007b0f0bd29
:1029320000280cda102200236968ab620a43ab61fb
:102942006b616a60022f12d06368f61aede7019b91
:102952001b1a01936368984202d9c01a0834013fd6
:1029620023681b1823606368181a6060cfe71e0093
:02297200dbe7a1
:020000040000fa
:10297400f0b5050085b019000c9b100001931a688e
:102984002b696c68013bef681d00002c00da012400
:102994000026fe540a9e0123361b02960226164088
:1029a4000b9ad2170392002d04dc002b17d02800b9
:1029b40005b0f0bd02000a4307d1002c05dc029ae1
:1029c4001219002af1dd002eefd00b9a039b00f0c0
:1029d40045fd013d130030327a55013ce3e71023f5
:0e29e400019a12689a431300019a1360dfe70c
:020000040000fa
:1029f20030b588292cd012dc812930d003dc802923
:102a02002dd0002030bd82290ed08429f9d1196839
:102a120000680a1d1a600b6818800120f2e7a029dd
:102a22000fd00adc9029ecd10468456819680a1da8
:102a32001a600b681c605d60efe7c02901d0f029c5
:102a4200dfd11a680168101d186013681960e4e785
:102a5200196800680a1d1a600b681870dde71968aa
:0c2a620000680a1d1a600b681860d6e7b7
:020000040000fa
:102a6e00f8b5846a05000f001600002c0ad0ab6a78
:102a7e006a699b1ab3420cd2320039002800fff764
:102a8e0031ff05e001f03af803002000002beed0f4
:102a9e00f8bd002ef0d02b0034331b785bb2002b28
:102aae001adb3400dbb2621eb95c994212d12200ed
:102abe0039002800fff716ffa042e9d33f19341b57
:102ace0022003900686901f0bff86b6930001c19eb
:0c2ade006c61dde7141ee6d13400f1e766
:020000040000fa
:102aea00f0b51d00012389b014000e9a06001a40a1
:102afa000391029201d1a5420ad82200039930001b
:102b0a0000f063fda54203d82500280009b0f0bdf6
:102b1a002f1b01973a00102f00d91022202104a858
:102b2a0001f0a6f8019b0f2b0ed80f2204a93a40f8
:102b3a00300000f04afd029b002be6d122000399e7
:102b4a00300000f042fde0e7102204a9300000f056
:0a2b5a003cfd019b103b0193e4e7f2
:020000040000fa
:102b6400656e74657220796573283129206f72202f
:102b74004e6f28302920666f72206368616e676526
:102b84000000000025640000666a6c640000000018
:102b9400656e746572207468652076616c75652055
:102ba4006f66206672657175656e63793a00000020
:102bb400656e746572207468652076616c75652035
:102bc4006f662064757479206379636c653a0000dc
:020000040000fa
:102bd4000021f0b5174b184a934208d30027174a2f
:102be40013685168002b05d1002903d1f0bd197079
:102bf4000133f1e7100095680c305c18002d16d0f5
:102c04000b25ed1a5219a3420ad10b0003221340db
:102c14005a1e934189085918890040180200dfe7b9
:102c24005d1cae5c1e702b00ede71f700133a342e8
:102c3400fbd1f3e700000020000000208017000013
:020000040000fa
:102c4400f0b50b680c008f68cd68496887b0060042
:102c54000593002902db02218b43059305a95368e0
:102c6400126802910821009701912000fff780fe6d
:102c7400059bdb0602d5302301382b54059b1b072b
:102c840002d5202301382b54236929185a1e059b89
:102c9400121a009330003b00fff725ff7368db0531
:0e2ca40003d56368984200da180007b0f0bd4f
:020000040000fa
:102cb20010b584291fd007dc812915d0822922d0a2
:102cc200802911d0002010bd90291cd008dc882951
:102cd200f8d119680c1d1c600b6803601a7010e0b3
:102ce200a02901d0c029edd119680c1d1c600b6808
:102cf20003601a6005e019680c1d1c600b68036014
:102d02001a800120dfe719680c1d1c600b68036044
:082d12001a60d2175a60f4e7c1
:020000040000fa
:102d1a007fb51600c2680d0013000091591e8b4141
:102d2a00f31a019383680400039269460222006839
:102d3a00029300f000fe002808dc18220823024053
:102d4a005340626813436360060010e0019b8342ac
:102d5a00fad2a268c01ae3681018e2632064002b52
:102d6a0005d0531ce3631378ad19013d2b70300075
:042d7a0004b070bd74
:020000040000fa
:102d7e004b1801225205da4217d25b0d0722d201ff
:102d8e009b1a0fd9ff2b13d2db05ca0fd2071343a1
:102d9e000903020d1143490ac200524100d9013103
:102dae00c8187047c80fc007704706d1002804d155
:102dbe00c80f0002ff30c00570470123db070a0071
:102dce00c900400f084398431a4010435b0a18434a
:022dde0070473c
:020000040000fa
:102de000002370b59cb004000d00160005931390ed
:102df000069098421edb114bc318002104a81493bf
:102e000000f076fe209a219b31000092019304a8e5
:102e10000122fdf725fe002d0ad0139b0293149b7f
:102e20000393039a029b9b1a199a9b18e4182c602f
:102e30001cb070bd01235b42dfe7c046ffffff7f90
:020000040000fa
:102e400000230e4a10b513600d4a13600d4a13603b
:102e50000d4a13600d4a13600d4a5362136101332a
:102e6000936000f012ff00f0cef80a4c0a4b9c422f
:102e700000d310bd08cc9847f8e7c046a406002050
:102e80002406002020060020180600201c06002032
:0c2e900028060020c4000000c80000005c
:020000040000fa
:102e9c00036d70b50400002b07d0426d934204dc27
:102eac0000230120e364404270bd200000f02efda1
:102ebc000028f5db236de16b226c002b14d0656dc3
:102ecc005b1b551aab420fdc013bcb18e364002aa9
:102edc0004d0636d521a01329a18626501390b786d
:0c2eec008342e1d00870dfe71300efe73d
:020000040000fa
:102ef8002021222324242525262627272828282878
:102f0800292929292a2a2a2a2b2b2b2b2c2c2c2c11
:102f18002c2c2c2c2d2d2d2d2d2d2d2d2e2e2e2ed9
:102f28002e2e2e2e2f2f2f2f2f2f2f2f000117024f
:102f38001d1813031e1b190b1408040d1f161c1251
:0c2f48001a0a070c1511090610050f0edf
:020000040000fa
:102f540070b504000d00002801d1002070bd436845
:102f64009b0607d543698269934215d80023a3625f
:102f7400a3616361e16b236c994204d2c91a0122f3
:102f8400206800f0edfe00232364e3639d42e4d057
:102f9400206800f0dbfee1e70022c36a11009847d5
:0c2fa4006369002be2d101204042d7e716
:020000040000fa
:102fb000f0b50b680c008f68cd68496887b00600d3
:102fc0000593002902db02218b43059305a9536871
:102fd000126802910a21009701912000fff7cafcb4
:102fe000236929185a1e059b121a009330003b00d2
:102ff000fff77bfd7368db0503d56368984200da51
:06300000180007b0f0bd4e
:020000040000fa
:02300600704711
:020000040000fa
:10300800f8b505000c000020002d20d000f004fccd
:10301800002c17d000200e4a0421072605e0178d42
:103028004300ef52013084420dd0137e0b42fcd096
:10303800538b334207d153683340012befd0138da4
:103048002b54efe72000201a44426041c0b2f8bd7b
:04305800001c004216
:020000040000fa
:10305c00124b01221a6019008b681a42fcd10f4bdb
:10306c00802292001a6000225a6158690c4901436f
:10307c0059610221d963c63159649a64da641a65bc
:10308c00fa2292001a640222ff321a87013aff3a9e
:10309c009a621a009368002bfcd170470020004202
:0430ac00000f404091
:020000040000fa
:1030b00070b5040016001d00022a1cd043689b0650
:1030c00019d4002908d1002d01d18025ed00280058
:1030d0000830fef7ebfc010020236268a160134377
:1030e00063602300e5603433ff22012e00d10a2201
:1030f0001a70024be362002070bdc0466f2a0000c8
:020000040000fa
:1031000070b5c668856804000a00ae4211d101207e
:10311000002100f037fdc043c943431c03d00b4bd3
:103120001a68104018604b1c03d0084a53681940b5
:103130005160012319006268b56011439a43ee6043
:103140006160a41822681343236070bd100400203e
:020000040000fa
:10315000f0b50f0087b0039015001049072204a8ae
:103160001c0000f078fdbb687e6802933f68002d6c
:1031700000d104ad002c03d1280000f09efd040016
:10318000002e02dbb44200d934000097029b2200db
:1031900029000398fff7a9fc07b0f0bd483d0000e7
:020000040000fa
:1031a00010b50f4b06225a600e4b1b6818680021a1
:1031b00000f048fd0c4b1b681868002100f042fd30
:1031c00000f082fbfff7b8fa00f09efdfff746ff24
:1031d00000f0f2fb00f01afa00f062fb10bdc046ee
:0c31e00000400041b406002098070020c9
:020000040000fa
:1031ec0010b581290fd0832903d0802914d0002059
:1031fc0010bd1368191d11601b68416800681860c8
:10320c0059600120f4e71368191d11601b680168ef
:10321c00426819605a60f4e71368416800681c1d25
:0c322c0014601c68fff7a5fd2060eae7b5
:020000040000fa
:103238000200002310b54832d3560400591e0b4330
:10324800137043698269934203d90022c36a11004b
:10325800984700236068a362a3616361830705d56b
:103268001023184360600120404210bda368e26843
:0c32780000079b182364e363c017f6e70f
:020000040000fa
:1032840010b5064c2378002b07d1054b002b02d038
:10329400044800e000bf0123237010bd680600202d
:1032a4000000000000000000044b10b5002b03d008
:1032b4000349044800e000bf10bdc0460000000000
:0832c4006c0600200000000070
:020000040000fa
:1032cc0010b50a4b98470a4b984700f02efd094b56
:1032dc00ff229343084a9360084b9847084b984742
:1032ec00084b9847fff728f9fee7c0464325000036
:1032fc00432500000000000000ed00e0412e00001e
:08330c004325000043250000e9
:020000040000fa
:1033140070b5002818d0002918d000250c4a0124c3
:10332400072605e06b00c35a13850135a94209d06d
:10333400137e2342fcd053683340012bf2d0435d0b
:103344001385f2e7012070bd0020fce70120fae7b5
:04335400001c004217
:020000040000fa
:1033580030b401256d054c00e54215d85c00e54206
:1033680012d80c001c436400044314430fd005d248
:1033780082428b418041013030bc70479042994174
:103388008041013030bc7047002030bc70470120bc
:0433980030bc70478e
:020000040000fa
:10339c00f7b597b201933b00140c86b2050c73433e
:1033ac006f4366436543f6191c0ca4199c46a7424f
:1033bc0002d980235b02ed186346260c7519240490
:1033cc009eb2019ba4194343200051435b19591829
:0433dc0003b0f0bd8d
:020000040000fa
:1033e000030010b51a78202a0dd0110009390429dc
:1033f00009d900212b2a02d02d2a01d10131013314
:1034000000200a2404e00133ece760430133801a12
:103410001a78303a092af8d9002900d1404210bd63
:020000040000fa
:103420000c4a036810b5546a0b4a591e121b91428c
:103430000bd9002b05d00c220120084b40421a600a
:1034400010bd102202600020fae70f2217339343c9
:103450000360f8e728060020efffff7fa8060020a2
:020000040000fa
:10346000002b11d1002a0fd1002900d1002802d051
:103470000021c943081c07b4024802a14018029069
:1034800003bdc046dd08000003b4684601b50298dc
:10349000fef70bfe019b9e4602b00cbc7047c04677
:020000040000fa
:1034a00070b504000025e36be26c934211d25a1c04
:1034b000e263187820280ad00938042807d9e36c79
:1034c000002b02d0e36b013be363280070bd0135a4
:0e34d000e9e72000fff7e2fc431cebd1f5e733
:020000040000fa
:1034de0030b401256d054c00e54215d85c00e5427f
:1034ee0012d80c001c436400044314430cd005d2c4
:1034fe0082428b418041404230bc7047904299419c
:0e350e008041404230bc7047002030bc704706
:020000040000fa
:10351c0030b401256d054c00e54215d85c00e54240
:10352c0012d80c001c436400044314430cd005d285
:10353c00904299418041404230bc704782428b415d
:0e354c008041404230bc7047002030bc7047c8
:020000040000fa
:02355a007047b8
:020000040000fa
:10355c000309013b1800202b07d90a4a934205d8ce
:10356c000948db08c318043b18787047e0223f2059
:10357c0052019342f9d80448db09c318043b18786c
:0c358c001030f2e7ff010000f82e0000f4
:020000040000fa
:103598001c2101231b04984201d3000c10391b0a7b
:1035a800984201d3000a08391b09984201d300093f
:1035b800043902a2105c40187047c0460403020296
:0c35c800010101010000000000000000f3
:020000040000fa
:1035d400436870b50400d80510d52569954200d913
:1035e40015002a00606900f034fb226963695b19e5
:1035f400551b0022636125611a7070bddb06fcd483
:08360400200000f013fbf8e7c1
:020000040000fa
:10360c000a4b0b4a1a60d22252429a81c022920271
:10361c005a601a00d369002bfcd1044a13680221aa
:10362c000b431360d369002bfcd17047001c004284
:04363c000401204025
:020000040000fa
:10364000f0b5050000200a4c4200165d002e02d1a4
:10365000a2185078f0bd296801300f78c0b2b74287
:1036600003d1a2180131507829600a28ecd9f1e77a
:04367000d43a000048
:020000040000fa
:10367400f4464a1805d200f0bbf801d5c01740083b
:10368400604701235b05d34206d200f0b1f801d5af
:103694000120c0074042604701d10042f5d0d01755
:0436a4004008704723
:020000040000fa
:1036a80010b50b680c001b78202b03d0093b0022b7
:1036b800042b0bd8fff7f0fe02002368591c216089
:1036c8005b78202bf9d0093b042bf6d9100010bdec
:020000040000fa
:1036d800f8b5050001262c68344201d000200ee020
:1036e8002000fff737ff070000f0a8f92868a0427c
:1036f800f1d1b043281a3900fff7fefc0120f8bdcc
:020000040000fa
:10370800084b02001968002901d107491960186897
:10371800064982188a4201d81a607047012040423f
:10372800fbe7c046ac060020a0070020a009002047
:020000040000fa
:1037380037b50d00d46811001a00fff78df8431c47
:103748000cd00a2201a9200000f064fa019b28602d
:0e37580069600120a34201d1022040423ebd23
:020000040000fa
:1037660037b50d00d46811001a00fff776f8431c30
:103776000cd00a2201a9200000f043fa019b286020
:0e37860069600120a34201d1022040423ebdf5
:020000040000fa
:10379400f8b5050001276c683c4201d000200de01b
:1037a4002000fff7d9fe060000f04af96b68a34237
:0e37b400f1d128003100fff7a1fc0120f8bd83
:020000040000fa
:1037c20070b4012676054c005d00e6420cd8ee424c
:1037d2000ad825430543154303d0994204d19042a8
:0e37e20002d1012070bc7047002070bc7047ff
:020000040000fa
:1037f0004a0010d2520d03231b02ff33d21a0ad4ff
:1038000052421f3209d4400dc90208430123db078d
:0e3810001843d040704700207047d017704713
:020000040000fa
:02381e007047f1
:020000040000fa
:10382000094b5b8b5b070dd0074b80221a76793ae8
:103830005a831b7e5b0705d5034b04211a8d1a7e24
:0c3840000a42fbd17047c046001c004249
:020000040000fa
:10384c00020000234832d356591e0b431370042335
:10385c004268134005d010231343436001204042bb
:0a386c0070470364c3631800fae715
:020000040000fa
:10387600002380290fdb812901dd83290bd1072154
:10388600136807338b431900083111601a685b68a7
:0a3896000260436001231800704730
:020000040000fa
:1038a000bff35f8f62b6074ac320800013581b0224
:1038b0001b0ac02109060b43135080231b0213600f
:0838c0007047c04600e100e082
:020000040000fa
:1038c800084b012244215a5412315a5424390420f5
:1038d80058542f39373019549b301a54ba329954e6
:0838e8007047c0460044004196
:020000040000fa
:1038f00010b5064bd86a064ada62db6a054b1b68cc
:10390000002b02d0034a5168984710bd00200042a6
:083910000ff80f0090060020e3
:020000040000fa
:1039180037b50400fff78cfc002802d00120404294
:103928003ebd6b46dd1d0122636c290020009847cf
:083938000128f3d12878f3e720
:020000040000fa
:10394000f7b5002507000c002e000192019b9e4256
:1039500001db2800febd62682168380000f050f8e5
:0839600001362d180834f1e7cf
:020000040000fa
:10396800f7b5002507000c002e000192019b9e422e
:1039780001db2800febd62682168380000f08af883
:0839880001362d180834f1e7a7
:020000040000fa
:10399000012370b544689c43651a102d0ad942185a
:1039a00019432b43116053600832035141601000ea
:0639b000fef7ecfb70bd08
:020000040000fa
:1039b800054a002313609360044951600621116091
:1039c800034a93601360704710e000e07fbb00007b
:0439d8008406002041
:020000040000fa
:1039dc0010b5064b1b68064b9a6801329a601b683f
:1039ec00002b02d0024a5068984710bd10e000e04e
:0439fc00840600201d
:020000040000fa
:103a000010b50c000023002809d10300002a06d0bd
:103a100001212000fff7f8fa0028f9d0012318004f
:023a200010bdd7
:020000040000fa
:103a24000fb407b5054b04aa1b6802ca18680192b3
:103a340000f082f803b008bc04b0184798070020cf
:020000040000fa
:103a4400064b0130c000c258002a05d10200083ad2
:103a5400d21819184a60c2507047c046100400209a
:020000040000fa
:103a6400054a136802210b431360110002228b687c
:0c3a74001a42fcd17047c04600200042fe
:020000040000fa
:103a8000054b1a6b0023120604d40002000a024bf5
:0c3a9000d8660123180070470020004297
:020000040000fa
:103a9c0070b50d001400012801d0200070bd21006c
:0c3aac002800fff731fc0028f9d0f6e7f5
:020000040000fa
:103ab8000300303b02000120092b06d920230020f7
:0c3ac80013430522613b9a4240417047c5
:020000040000fa
:103ad40068076c094c836a9074a07ac00080688877
:0c3ae40000846c820081286e696c29004f
:020000040000fa
:103af000036cc26b10b59c1a01654465002902d0a5
:0a3b00008c4200dd5318c36410bdb1
:020000040000fa
:103b0a0010b50400fff79dfe002805d1a368e268fe
:0a3b1a00a36163619b18a36210bd54
:020000040000fa
:103b240010b5044b0a001b680100186800f010f877
:083b340010bdc046b4060020dc
:020000040000fa
:103b3c0013b50400019201aafdf7a6fb6368db062e
:083b4c0001d50120404216bd25
:020000040000fa
:103b540013b50400019201aafdf796f96368db0628
:083b640001d50120404216bd0d
:020000040000fa
:103b6c00d0400b1cd1409c46203ad34018435242c3
:103b7c0063469340184370479140031c90409c4609
:103b8c00203a9340194352426346d340194370473d
:103b9c0010b5002903d1fff7f9fc203002e0081c16
:083bac00fff7f4fc10bdc04658
:020000040000fa
:103bb4000fb407b504a901c90191fff7b1ff03b020
:063bc40008bc04b0184724
:020000040000fa
:103bca00006810b5002801da002010bdfff797fd44
:063bda00431cfad1f8e7dc
:020000040000fa
:103be000034b00229a601a6801210a431a60704749
:043bf00010e000e001
:020000040000fa
:103bf40010b500f0a3f8024b1860586010bdc04621
:043c040098060020fe
:020000040000fa
:103c080037b501246442e51700940195fff7e4f8fd
:043c180003b030bd08
:020000040000fa
:103c1c0037b5802500242d0600940195fff7daf8be
:043c2c0003b030bdf4
:020000040000fa
:103c3000c36a10b5002b01d0984710bd0068fff78c
:043c40002dfffae773
:020000040000fa
:103c44004a424a41802310b55200db00fff72efaa6
:023c540010bda1
:020000040000fa
:103c5600002310b59a4200d110bdcc5cc454013388
:023c6600f8e77d
:020000040000fa
:103c680003000a7818001a7001310133002af8d1cc
:023c7800704793
:020000040000fa
:103c7a0003001218934200d1704719700133f9e713
:020000040000fa
:103c8a0010b5fff7b2fffff763fcfff761fc10bd49
:020000040000fa
:103c9a00494e4600696e66004e414e006e616e00e6
:103caa00494e4600696e66004e414e006e616e00d6
:020000040000fa
:103cba0003001a78002a01d1181a70470133f8e76d
:020000040000fa
:103ccc0010b5fdf743fe029a039bfdf76ffc10bd88
:020000040000fa
:103cdc00f0b40125ed076b40004c2047bf150000e8
:020000040000fa
:0e3cec000300413b192b01d8202318437047d9
:020000040000fa
:0e3cfa000300613b192b01d85f23184070476f
:020000040000fa
:0c3d0800014b82225a60704700400041cd
:020000040000fa
:0c3d14000138014b5860704710e000e0df
:020000040000fa
:0c3d200010b50400fff7a0ff200010bd4c
:020000040000fa
:0a3d2c0010b50068fff7b4fe10bdeb
:020000040000fa
:083d360010b5fef74cff10bdb3
:020000040000fa
:083d4000004870471c07002039
:020000040000fa
:073d4800286e756c6c290068
:020000040000fa
:063d500001204042704713
:020000040000fa
:043d56000020704792
:020000040000fa
:043d5a00002070478e
:020000040000fa
:043d60007047c046a2
:020000040000fa
:043d64000020704784
:020000040000fa
:0200000400807a
:0440000077c700d8a6
:020000040000fa
:0200000400807a
:044004005c00ffff5e
:00000001FF
