:020000040000fa
:10000000f03f0020110c00004f0e0000d30e000046
:1000100000000000000000000000000000000000e0
:10002000000000000000000000000000ef070000da
:100030000000000000000000ef070000ef070000d4
:10004000ef070000ef070000ef070000ef070000d8
:10005000ef070000ef070000ef070000ef070000c8
:10006000ef070000ef070000ef070000d9000000d5
:10007000ef070000ef070000ef070000ef070000a8
:10008000ef070000ef070000ef070000ef07000098
:10009000ef0700000000000000000000ef07000074
:1000a000ef070000ef070000ef070000ef07000078
:0800b00000000000ef07000052
:020000040000fa
:1000b800f8b5c046f8bc08bc9e467047a90b0000be
:1000c800f8b5c046f8bc08bc9e467047810b0000d6
:020000040000fa
:1000d80010b5694b9b7d002b17d0674b5b8b9b073b
:1000e80014d5664b2022ff2199540132fd399954c9
:1000f800624a2023d35c5bb2013300d18be05f4ab4
:100108002023d35c062b00d19de010bd5a4b5b8b9e
:10011800db0707d5594b2022ff2199540132fd39bd
:100128009954e5e7544b5b8b5b0707d5534b20226b
:10013800ff2199540132fe399954d9e74f4a2023b7
:10014800d35c5bb2032b44d0042b0fd0022bcfd14e
:100158001369002b04d09088002100f069fcc7e7e0
:10016800464b9888012100f063fcc1e7434a936934
:10017800126993420cd0414a9168cc5c3e482821d0
:100188004454013393610200d369002bfcd1afe7db
:100198003a4b5b69002b0ed0384b9b885b000122e1
:1001a8001343354a5362d369002bfcd1334a2033b9
:1001b8000321d1549ce7304a5168c0239b020b436a
:1001c8005360d369002bfcd12c4a20330621d1542b
:1001d8008ee72a4a5369013bd2699a420dd0264ad2
:1001e800d369002bfcd1254ad36923482821415cd7
:1001f800d068c1540133d3617ae71f4a5168e023bc
:10020800db020b435360d369002bfcd11b4a20331c
:100218000621d154e3e720230021d154164a51681e
:10022800c0239b020b435360d369002bfcd1124bb4
:1002380083221a76114b5b6a002b00d165e70f4abf
:10024800906a984761e71300002220215a5401312f
:100258005a54094b83321a761900533a4b8b134080
:10026800102bfbd1054b5b6a002b00d14de7034aed
:10027800906a984749e7c046001000426806002087
:020000040000fa
:10028800940600201c000000000000006806002002
:100298002c00000000000000b80600200400000048
:1002a80000000000180600205000000000000000b8
:1002b800c80600206c00000001000000d4060020e1
:1002c800d0060020d4060020000000002500000011
:1002d80008000020000400000000000000000000ea
:1002e8000000000000000000000000000000000006
:1002f8000000000000000000c7100000000000001f
:10030800000000000000000000000000610800007c
:1003180000000000000000000000000000000000d5
:100328000000000000000000000000200804000099
:1003380000000000940700202000000001000000d9
:1003480001000000030000000000000000000000a1
:10035800000000000000000000000000b0060020bf
:10036800b00600200800000000000000bc060020c5
:100378000400000000000000080400201002000033
:1003880000000000340700206000000001000000a9
:100398000100000003000000000000000000000051
:1003a800000000000000000000000000dd0900005f
:1003b800000000000000000000000000a510000080
:1003c800cf10000000000000000000000000000046
:1003d8000000000000000000000000000000000015
:1003e8000000000000000000000000000000000005
:1003f800c00600200400000000000000c406002021
:1004080004000000000000000000000000000000e0
:020000040000fa
:10041800f0b587b0039003a800f03cfc002802da8e
:10042800002007b0f0bd039b1b095d1e202d09d9d4
:100438004f49023b4f4a8b4224d8db08d318043b70
:100448001d7801352a000120002100f0e5fd002477
:1004580043428c4100930194474f00983a687b6867
:100468001040020001990b401a433fd1039b05a895
:100478001033059300f0dcfd002809d10c223f4b16
:100488001a60cee7db09d318043b1d781135d9e78c
:100498003b490c68a04206d0059b0400103b05931d
:1004a8000123103483600125059be2180a602b4361
:1004b800083a083c28c26360002cb1d0200000f044
:1004c8007bfc00280bd023686168ab43e31a5a68a9
:1004d800aa4352185a606168a94362501c00200060
:1004e800039900f02ffd200008309ae7214a25499a
:1004f8003c32002831d1584203404b43db0ed65cd6
:100508002036300000f042fd731cdb00fc58083b2d
:10051800fb189c42a0d0272e25dd0235ae4201dc17
:100528003f2e20d101226368039f9343dd1b2800df
:10053800009300f0edfb864215d1e268a168e3194b
:10054800da60996093609a68d360012217431f604c
:100558005d60009be5506760c1e7434203404b4341
:10056800db0ed65ccde73100200000f0ddfab6e7ff
:10057800ff0100008009000010040020c0060020d0
:080588000804002029e66b07be
:020000040000fa
:10059000f7b5002858d00838436801221e0096435a
:1005a00085192a680400934200d0ffde01276b689a
:1005b000226813403b420ed1200000f001fc0028cd
:1005c00043d1280000f02cfc0028f0d06b68bb431e
:1005d000f618ed18ebe73b003343636030002b6007
:1005e00000f09afb019000f0d5fc6b682268134084
:1005f0003b42e1d0184b019a1868596800f004fd9d
:10060000384212d1019a0120002100f009fd0b00af
:10061000002804d0104a126802430f480260002be1
:1006200003d00d4a53680b435360019b0a4a0133c0
:10063000db00d3181a005b68083a66602e60e3603e
:10064000a260d460e3689c60f7bd2368bb43e41af2
:0c0650006368bb43f618b4e710040020f8
:020000040000fa
:10065c001c4b00229a619a8c80218a439a841a003e
:10066c001023d1680b42fcd0174b1b689b0e3f2b01
:10067c0025d09b02802292001343124a93621023ce
:10068c00d1680b42fcd00f4b02229a841a00102323
:10069c00d1680b42fcd00d4b0d4a5a601a005378ae
:1006ac005bb2002bfbdb094b0a4a5a800a4a5a8080
:1006bc000a4b0b4a1a62034b00221a627047203b0a
:1006cc00d7e7c0460008004024608000000c0040c2
:1006dc000007010016400000194000000004004013
:0406ec009000010079
:020000040000fa
:1006f000f0b51600050002278369426987b00293ae
:10070000d31a03939b1904910596019302ac3a0006
:100710002100286800f006fc019b984208d1ab68d4
:10072000ea68ab619a18aa626b61300007b0f0bd4d
:1007300000280cda102200236968ab620a43ab611f
:100740006b616a60022f12d06368f61aede7019bb5
:100750001b1a01936368984202d9c01a0834013ffa
:1007600023681b1823606368181a6060cfe71e00b7
:02077000dbe7c5
:020000040000fa
:10077200f8b5846a05000f001600002c0ad0ab6a97
:100782006a699b1ab3420cd2320039002800fff783
:10079200aeff05e000f029fc03002000002beed0a4
:1007a200f8bd002ef0d02b0034331b785bb2002b47
:1007b2001adb3400dbb2621eb95c994212d122000c
:1007c20039002800fff793ffa042e9d33f19341bf9
:1007d20022003900686900f04dfc6b6930001c1979
:0c07e2006c61dde7141ee6d13400f1e785
:020000040000fa
:0207ee00fee724
:020000040000fa
:1007f0000021f0b5174b184a934208d30027174a37
:1008000013685168002b05d1002903d1f0bd197080
:100810000133f1e7100095680c305c18002d16d0fc
:100820000b25ed1a5219a3420ad10b0003221340e3
:100830005a1e934189085918890040180200dfe7c1
:100840005d1cae5c1e702b00ede71f700133a342f0
:10085000fbd1f3e700000020000000208802000028
:020000040000fa
:100860007fb51600c2680d0013000091591e8b4120
:10087000f31a019383680400039269460222006818
:10088000029300f03bfb002808dc182208230240fa
:100890005340626813436360060010e0019b83428b
:1008a000fad2a268c01ae3681018e2632064002b31
:1008b00005d0531ce3631378ad19013d2b70300054
:0408c00004b070bd53
:020000040000fa
:1008c400144b01221a601a00d369002bfcd1114b7e
:1008d400802252005a601a00d369002bfcd10d4bc0
:1008e400e822da600c4a1a601a00d369002bfcd1a2
:1008f400084b10225a831a00d369002bfcd1074bf2
:10090400002221215a5401395a54024b83329a75d8
:100914007047c04600100042160010006806002010
:020000040000fa
:1009240000230e4a10b513600d4a13600d4a13607c
:100934000d4a13600d4a13600d4a5362136101336b
:10094400936000f09ffb00f080fb0a4c0a4b9c4232
:1009540000d310bd08cc9847f8e7c046bc06002079
:100964002406002020060020180600201c06002073
:0c09740028060020c4000000c80000009d
:020000040000fa
:100980002021222324242525262627272828282815
:10099000292929292a2a2a2a2b2b2b2b2c2c2c2caf
:1009a0002c2c2c2c2d2d2d2d2d2d2d2d2e2e2e2e77
:1009b0002e2e2e2e2f2f2f2f2f2f2f2f00011702ed
:1009c0001d1813031e1b190b1408040d1f161c12ef
:0c09d0001a0a070c1511090610050f0e7d
:020000040000fa
:1009dc0070b504000d00002801d1002070bd4368e3
:1009ec009b0607d543698269934215d80023a362fd
:1009fc00a3616361e16b236c994204d2c91a012291
:100a0c00206800f05cfb00232364e3639d42e4d088
:100a1c00206800f04ffbe1e70022c36a1100984701
:0c0a2c006369002be2d101204042d7e7b3
:020000040000fa
:100a380010b5114b00229a61da61104b83321a7695
:100a48005a680f4c22405a601a00d369002bfcd117
:100a580000290cd0084a20330324d454400008430a
:100a6800064b58621a00d369002bfcd110bd024a0c
:100a780020230424d454f1e7680600200010004223
:040a8800fffffbff72
:020000040000fa
:100a8c00f8b505000c000020002d20d000f0f0f986
:100a9c00002c17d000200e4a0421072605e0178de4
:100aac004300ef52013084420dd0137e0b42fcd038
:100abc00538b334207d153683340012befd0138d46
:100acc002b54efe72000201a44426041c0b2f8bd1d
:040adc00001c0042b8
:020000040000fa
:100ae00070b5040016001d00022a1cd043689b0646
:100af00019d4002908d1002d01d18025ed0028004e
:100b00000830fff789fc010020236268a1601343cd
:100b100063602300e5603433ff22012e00d10a22f6
:100b20001a70024be362002070bdc04673070000dc
:020000040000fa
:100b300070b5c668856804000a00ae4211d1012074
:100b4000002100f06dfac043c943431c03d00b4b96
:100b50001a68104018604b1c03d0084a53681940ab
:100b60005160012319006268b56011439a43ee6039
:100b70006160a41822681343236070bd1004002034
:020000040000fa
:100b800010b5064c2378002b07d1054b002b02d063
:100b9000044800e000bf0123237010bd940600202c
:100ba0000000000000000000044b10b5002b03d033
:100bb0000349044800e000bf10bdc046000000002b
:080bc00098060020000000006f
:020000040000fa
:100bc80010b50e4b06225a600d4b1b6818680021a1
:100bd80000f044fa0b4b1b681868002100f03efa3d
:100be80000f032f9fff736fd00f052fafff766fe23
:100bf80000f0c8f800f06af910bdc0460040004196
:080c0800cc060020b00700201b
:020000040000fa
:100c100010b50a4b98470a4b984700f048fa094b21
:100c2000ff229343084a9360084b9847084b984724
:100c3000084b984700f052f8fee7c0460710000046
:100c4000071000000000000000ed00e02509000092
:080c500007100000071000006e
:020000040000fa
:100c580070b5002818d0002918d000250c4a0124a6
:100c6800072605e06b00c35a13850135a94209d050
:100c7800137e2342fcd053683340012bf2d0435dee
:100c88001385f2e7012070bd0020fce70120fae798
:040c9800001c0042fa
:020000040000fa
:100c9c000c4a036810b5546a0b4a591e121b914238
:100cac000bd9002b05d00c220120084b40421a60b6
:100cbc0010bd102202600020fae70f221733934375
:100ccc000360f8e728060020efffff7fc006002036
:020000040000fa
:100cdc0010b590b00020fff771ff09a90a4b0a006c
:100cec0013cb13c213cb13c21b6813601c240094c8
:100cfc0002ab220009a9242000f026f8210002a84a
:0c0d0c00fff7a4fff3e7c046d00f000083
:020000040000fa
:100d18000309013b1800202b07d90a4a934205d83a
:100d28000948db08c318043b18787047e0223f20c5
:100d380052019342f9d80448db09c318043b1878d8
:0c0d48001030f2e7ff01000080090000fd
:020000040000fa
:100d540070b50c4d20242d5d0024002d01d0200001
:100d640070bd084ca080e360049b6361a1602261b4
:100d74000023a37023702122a3540021fff75afefd
:080d84000124ece768060020e1
:020000040000fa
:100d8c000a4b0b4a1a60d22252429a81c02292021a
:100d9c005a601a00d369002bfcd1044a1368022153
:100dac000b431360d369002bfcd17047001c00422d
:040dbc0004012040ce
:020000040000fa
:100dc000f8b5050001262c68344201d000200ee061
:100dd0002000fff7a1ff070000f0dcf82868a04220
:100de000f1d1b043281a3900fff7a2fe0120f8bd67
:020000040000fa
:100df000084b02001968002901d1074919601868d9
:100e0000064982188a4201d81a6070470120404280
:100e1000fbe7c046c4060020b8070020b809002040
:020000040000fa
:100e2000f8b5050001276c683c4201d000200de0b8
:100e30002000fff771ff060000f0acf86b68a342da
:0e0e4000f1d128003100fff773fe0120f8bd4c
:020000040000fa
:020e4e00fee7bd
:020000040000fa
:100e5000094b01224c215a5401315a5409315a5438
:100e60002039222058543339193019549b301a54e0
:0c0e7000ba3299547047c046004400415b
:020000040000fa
:100e7c00094b5b8b5b070dd0074b80221a76793ab6
:100e8c005a831b7e5b0705d5034b04211a8d1a7ef2
:0c0e9c000a42fbd17047c046001c004217
:020000040000fa
:100ea800020000234832d356591e0b431370042303
:100eb8004268134005d01023134343600120404289
:0a0ec80070470364c3631800fae7e3
:020000040000fa
:020ed200fee739
:020000040000fa
:100ed400bff35f8f62b6074ac220800013581b021b
:100ee4001b0ac02109060b43135080231b01136006
:080ef4007047c04600e100e078
:020000040000fa
:100efc00f7b5002507000c002e000192019b9e42c5
:100f0c0001db2800febd62682168380000f02bf878
:080f1c0001362d180834f1e73d
:020000040000fa
:100f2400f7b5002507000c002e000192019b9e429c
:100f340001db2800febd62682168380000f038f843
:080f440001362d180834f1e715
:020000040000fa
:100f4c00012370b544689c43651a102d0ad94218c8
:100f5c0019432b4311605360083203514160100058
:060f6c00fff710fb70bd51
:020000040000fa
:100f720010b50c000023002809d10300002a06d076
:100f820001212000fff781fd0028f9d0012318007c
:020f920010bd90
:020000040000fa
:100f9400064b0130c000c258002a05d10200083aad
:100fa400d21819184a60c2507047c0461004002075
:020000040000fa
:100fb40070b50d001400012801d0200070bd21007f
:0c0fc4002800fff747fe0028f9d0f6e7f0
:020000040000fa
:100fd0006162636465666768696a6b6c6d6e6f7089
:0c0fe0007172737475767778797a0a0064
:020000040000fa
:100fec0010b50400fff75aff002805d1a368e2688a
:0a0ffc00a36163619b18a36210bd9e
:020000040000fa
:02100600704731
:020000040000fa
:10100800d0400b1cd1409c46203ad3401843524252
:1010180063469340184370479140031c90409c4698
:10102800203a9340194352426346d34019437047cc
:020000040000fa
:10103800006810b5002801da002010bdfff7d4fec3
:06104800431cfad1f8e799
:020000040000fa
:02104e007047e9
:020000040000fa
:1010500010b500f031f8024b1860586010bdc04662
:04106000b0060020b6
:020000040000fa
:101064004a424a41802310b55200db00fff736fda7
:0210740010bdad
:020000040000fa
:10107600002310b59a4200d110bdcc5cc454013394
:02108600f8e789
:020000040000fa
:1010880010b5fff7e1ff00f012f800f010f810bdfe
:020000040000fa
:0c109800014b82225a607047004000416a
:020000040000fa
:0a10a40010b50068fff784ff10bdcf
:020000040000fa
:0810ae0010b5fff79efb10bd19
:020000040000fa
:0210b600704781
:020000040000fa
:0810b8000048704734070020d6
:020000040000fa
:0610c000012040427047d0
:020000040000fa
:0410c600002070474f
:020000040000fa
:0410ca00002070474b
:020000040000fa
:0210ce00704769
:020000040000fa
:0200000400807a
:0440000077c700d8a6
:020000040000fa
:0200000400807a
:044004005c00ffff5e
:00000001FF
