:020000040000fa
:10000000f03f0020011000004b120000cf12000052
:1000100000000000000000000000000000000000e0
:100020000000000000000000000000002b0900009c
:1000300000000000000000002b0900002b09000058
:100040002b0900002b0900002b0900002b090000e0
:10005000b90f00002b0900002b0900002b0900003c
:100060002b090000c10500002b09000099020000c7
:100070002b0900002b0900002b0900002b090000b0
:100080002b0900002b0900002b0900007113000050
:100090002b09000000000000000000002b090000f8
:1000a0002b0900002b0900002b0900002b09000080
:0800b000000000002b09000014
:020000040000fa
:1000b800f8b5c046f8bc08bc9e467047990f0000ca
:1000c800f8b5c046f8bc08bc9e467047710f0000e2
:020000040000fa
:1000d800840700201c000000000000001806002013
:1000e800c000000000000000580700202c0000009d
:1000f8000000000028070020300000000000000079
:10010800a00700200800000000000000b007002041
:100118000500000000000000b807002004000000ef
:1001280000000000d8060020500000000000000079
:10013800c80700206c00000001000000d407002060
:10014800d0070020d4070020000000002500000090
:10015800080000200004000000000000000000006b
:100168000000000000000000000000000000000087
:10017800000000000000000033150000000000002f
:10018800000000000000000000000000fd0a000060
:100198000000000000000000000000000000000057
:1001a800000000000000000000000020080400001b
:1001b800000000009408002020000000010000005a
:1001c8000100000003000000000000000000000023
:1001d800000000000000000000000000a807002048
:1001e800a80700200800000000000000bc0700204d
:1001f80004000000000000000804002010020000b5
:100208000000000034080020600000000100000029
:1002180001000000030000000000000000000000d2
:10022800000000000000000000000000d90c0000e1
:100238000000000000000000000000001115000090
:100248006f14000000000000000000000000000023
:100258000000000000000000000000000000000096
:100268000000000000000000000000000000000086
:10027800c00700200400000000000000c4070020a0
:100288000400000000000000000000000000000062
:020000040000fa
:1002980010b5694b9b7d002b17d0674b5b8b9b0779
:1002a80014d5664b2022ff2199540132fd39995407
:1002b800624a2023d35c5bb2013300d18be05f4af2
:1002c8002023d35c062b00d19de010bd5a4b5b8bdd
:1002d800db0707d5594b2022ff2199540132fd39fc
:1002e8009954e5e7544b5b8b5b0707d5534b2022aa
:1002f800ff2199540132fe399954d9e74f4a2023f6
:10030800d35c5bb2032b44d0042b0fd0022bcfd18c
:100318001369002b04d09088002100f007fdc7e77f
:10032800464b9888012100f001fdc1e7434a9369d3
:10033800126993420cd0414a9168cc5c3e4828210e
:100348004454013393610200d369002bfcd1afe719
:100358003a4b5b69002b0ed0384b9b885b0001221f
:100368001343354a5362d369002bfcd1334a2033f7
:100378000321d1549ce7304a5168c0239b020b43a8
:100388005360d369002bfcd12c4a20330621d15469
:100398008ee72a4a5369013bd2699a420dd0264a10
:1003a800d369002bfcd1254ad36923482821415c15
:1003b800d068c1540133d3617ae71f4a5168e023fa
:1003c800db020b435360d369002bfcd11b4a20335b
:1003d8000621d154e3e720230021d154164a51685d
:1003e800c0239b020b435360d369002bfcd1124bf3
:1003f80083221a76114b5b6a002b00d165e70f4afe
:10040800906a984761e71300002220215a5401316d
:100418005a54094b83321a761900533a4b8b1340be
:10042800102bfbd1054b5b6a002b00d14de7034a2b
:10043800906a984749e7c0460010004258070020d4
:020000040000fa
:10044800f0b587b0039003a800f03efe002802da5a
:10045800002007b0f0bd039b1b095d1e202d09d9a4
:100468004f49023b4f4a8b4224d8db08d318043b40
:100478001d7801352a000120002100f0ddff00244d
:1004880043428c4100930194474f00983a687b6837
:100498001040020001990b401a433fd1039b05a865
:1004a8001033059300f0d4ff002809d10c223f4bec
:1004b8001a60cee7db09d318043b1d781135d9e75c
:1004c8003b490c68a04206d0059b0400103b0593ed
:1004d8000123103483600125059be2180a602b4331
:1004e800083a083c28c26360002cb1d0200000f014
:1004f80061fe00280bd023686168ab43e31a5a6891
:10050800aa4352185a606168a94362501c0020002f
:10051800039900f015ff200008309ae7214a254981
:100528003c32002831d1584203404b43db0ed65ca5
:100538002036300000f03cff731cdb00fc58083b01
:10054800fb189c42a0d0272e25dd0235ae4201dce7
:100558003f2e20d101226368039f9343dd1b2800af
:10056800009300f0d1fd864215d1e268a168e31935
:10057800da60996093609a68d360012217431f601c
:100588005d60009be5506760c1e7434203404b4311
:10059800db0ed65ccde73100200000f097fcb6e713
:1005a800ff0100007c0c000010040020c0070020a0
:0805b8000804002029e66b078e
:020000040000fa
:1005c000f0b5c64600b5574b9b7d002b17d0554a5a
:1005d000137edbb2927d52b2002a13db514a137ea6
:1005e000dbb2927dd20702d5db0700d582e04d4a0f
:1005f000137edbb2927d520701d55b074bd404bc5e
:100600009046f0bd5bb2002be8da464b5b8b0722cd
:100610001340e3d0444ce38500f018fe414b8422a4
:100620001a752c230022e254636a002bd6d03e4a6e
:10063000906a9847d2e7bb68f35c0b8593680133f7
:100640009360936898460b7e23420bd0404509d9ae
:100650004b682b40012beed163469b685b009b5b94
:100660000b85ebe7304b9a685b689a42bfd32e4b01
:1006700000221a755a602b4a01211175db68002b84
:10068000b5d0294a10699847b1e727490a6a8969ac
:100690005200535215e0244a2c23d35c002baed0d9
:1006a000214b1a6adb699a42a9d21e4a138d9bb26a
:1006b000516807220a40012ae7d01b4a116a926951
:1006c0005354194b1a6a01321a621a6adb699a4248
:1006d00000d094e7144b00222c215a54da61114abd
:1006e000583111755b6a002b00d188e70e4a906a79
:1006f000984784e70c4b1b7d002b00d177e70a4b12
:100700009a685868074b1b7edb07abd58242a9d29b
:10071000054b1e68034907259c461f001a0001244b
:0c07200096e7c0460008004228070020b1
:020000040000fa
:10072c00f7b5002858d00838436801221e009643bc
:10073c0085192a680400934200d0ffde01276b68fc
:10074c00226813403b420ed1200000f031fd0028fe
:10075c0043d1280000f05cfd0028f0d06b68bb434f
:10076c00f618ed18ebe73b003343636030002b6069
:10077c0000f0c8fc019000f019fe6b682268134071
:10078c003b42e1d0184b019a1868596800f046febc
:10079c00384212d1019a0120002100f04bfe0b00cf
:1007ac00002804d0104a126802430f480260002b44
:1007bc0003d00d4a53680b435360019b0a4a013323
:1007cc00db00d3181a005b68083a66602e60e360a1
:1007dc00a260d460e3689c60f7bd2368bb43e41a55
:0c07ec006368bb43f618b4e7100400205b
:020000040000fa
:1007f800204b00229a619a8c80218a439a841a009d
:100808001023d1680b42fcd01b4b1b689b0e3f2b5f
:100818002ed09b02802292001343164a9362102323
:10082800d1680b42fcd0134b02229a841a00102381
:10083800d1680b42fcd0114b05221a72104b114a99
:100848005a601a0053785bb2002bfbdb0c4b0e4a44
:100858005a800e4a5a800e4a5a800e4a5a800e4ac8
:100868005a80064b0d4a1a62024b00221a627047e0
:10087800203bcee7000800402460800000040040d0
:10088800000c004000070100054000001440000073
:1008980016400000194000001c40000094100100a0
:020000040000fa
:1008a800f0b51600050002278369426987b00293f4
:1008b800d31a03939b1904910596019302ac3a004d
:1008c8002100286800f028fd019b984208d1ab68f8
:1008d800ea68ab619a18aa626b61300007b0f0bd94
:1008e80000280cda102200236968ab620a43ab6166
:1008f8006b616a60022f12d06368f61aede7019bfc
:100908001b1a01936368984202d9c01a0834013f40
:1009180023681b1823606368181a6060cfe71e00fd
:02092800dbe70b
:020000040000fa
:02092a00fee7e6
:020000040000fa
:10092c001d4a137801210b43137053785bb2002bd3
:10093c00fbdb194940238b610023cb610233cb6075
:10094c00164b10221a72012018751f301a540c30d5
:10095c001a540c301a540c301a540c301a540c30e3
:10096c001a540c301a540c301a540c301a540c30d3
:10097c001a540c301a540c301a540c301a540c30c3
:10098c001a540b78022213430b700a0053785bb293
:10099c00002bfbdb7047c0460018004018060020f7
:020000040000fa
:1009ac00f8b5846a05000f001600002c0ad0ab6a5b
:1009bc006a699b1ab3420cd2320039002800fff747
:1009cc006dff05e000f010fd03002000002beed0c1
:1009dc00f8bd002ef0d02b0034331b785bb2002b0b
:1009ec001adb3400dbb2621eb95c994212d12200d0
:1009fc0039002800fff752ffa042e9d33f19341bfe
:100a0c0022003900686900f040fd6b6930001c1948
:0c0a1c006c61dde7141ee6d13400f1e748
:020000040000fa
:100a28000021f0b5174b184a934208d30027174afc
:100a380013685168002b05d1002903d1f0bd197046
:100a48000133f1e7100095680c305c18002d16d0c2
:100a58000b25ed1a5219a3420ad10b0003221340a9
:100a68005a1e934189085918890040180200dfe787
:100a78005d1cae5c1e702b00ede71f700133a342b6
:100a8800fbd1f3e70000002000000020d8000000a0
:020000040000fa
:100a9800bff35f8f62b6154bc12189005a58ff20fa
:100aa80082437f3802435a5010221a60c2208000c5
:100ab8001a580f491140c02212020a431a508022c4
:100ac80092001a601a581202120ac02109060a4333
:100ad8001a50802212011a6008301a581202120a9b
:100ae8000a431a50802212031a60704700e100e09e
:040af800ff00fffffd
:020000040000fa
:100afc007fb51600c2680d0013000091591e8b4182
:100b0c00f31a019383680400039269460222006879
:100b1c00029300f0ebfb002808dc182208230240ab
:100b2c005340626813436360060010e0019b8342ec
:100b3c00fad2a268c01ae3681018e2632064002b92
:100b4c0005d0531ce3631378ad19013d2b703000b5
:040b5c0004b070bdb4
:020000040000fa
:100b600010b5164b0d221a600b3a40215a54013130
:100b70000520585401315a5401315a54013a013177
:100b80005a5402315a5406315a5401315a540931d7
:100b90005a5400212b3019540130195403310130bb
:100ba000195401301954033022241c5405301954af
:100bb0009b301a54ba32995410bdc04600440041cb
:020000040000fa
:100bc000144b01221a601a00d369002bfcd1114b7f
:100bd000802252005a601a00d369002bfcd10d4bc1
:100be000e822da600c4a1a601a00d369002bfcd1a3
:100bf000084b10225a831a00d369002bfcd1074bf3
:100c0000002221215a5401395a54024b83329a75d9
:100c10007047c04600100042160010005807002020
:020000040000fa
:100c200000230e4a10b513600d4a13600d4a13607d
:100c30000d4a13600d4a13600d4a5362136101336c
:100c4000936000f039fc00f0b6fb0a4c0a4b9c4262
:100c500000d310bd08cc9847f8e7c046bc07002079
:100c6000e4060020e0060020d8060020dc06002074
:0c0c7000e8060020c4000000c8000000de
:020000040000fa
:100c7c002021222324242525262627272828282816
:100c8c00292929292a2a2a2a2b2b2b2b2c2c2c2cb0
:100c9c002c2c2c2c2d2d2d2d2d2d2d2d2e2e2e2e78
:100cac002e2e2e2e2f2f2f2f2f2f2f2f00011702ee
:100cbc001d1813031e1b190b1408040d1f161c12f0
:0c0ccc001a0a070c1511090610050f0e7e
:020000040000fa
:100cd80070b504000d00002801d1002070bd4368e4
:100ce8009b0607d543698269934215d80023a362fe
:100cf800a3616361e16b236c994204d2c91a012292
:100d0800206800f014fc00232364e3639d42e4d0d0
:100d1800206800f007fce1e70022c36a1100984749
:0c0d28006369002be2d101204042d7e7b4
:020000040000fa
:100d340010b5114b00229a61da61104b83321a7696
:100d44005a680f4c22405a601a00d369002bfcd118
:100d540000290cd0084a20330324d454400008430b
:100d6400064b58621a00d369002bfcd110bd024a0d
:100d740020230424d454f1e7580700200010004233
:040d8400fffffbff73
:020000040000fa
:100d8800114b124a1a60d22252429a81c022920210
:100d98005a601a00d369002bfcd10b4a1368022150
:100da8000b431360d369002bfcd1094b00229a61d5
:100db800da611a622c215a545a621a605a609a608f
:100dc8001a75da60da85704700080042040120408d
:040dd80028070020c8
:020000040000fa
:100ddc00f8b505000c000020002d20d000f046fadc
:100dec00002c17d000200e4a0421072605e0178d91
:100dfc004300ef52013084420dd0137e0b42fcd0e5
:100e0c00538b334207d153683340012befd0138df2
:100e1c002b54efe72000201a44426041c0b2f8bdc9
:040e2c00001c004264
:020000040000fa
:100e300010b5114b06225a60104b1b681868002130
:100e400000f020fb0e4b1b681868002100f01afb15
:100e5000fff786fefff7d0fc00f036fbfff7b0fe91
:100e6000fff792ff00f08ef9fff760fd00f00ef93a
:100e7000fff712fe10bdc04600400041cc07002025
:040e8000b008002096
:020000040000fa
:100e840070b5040016001d00022a1cd043689b069e
:100e940019d4002908d1002d01d18025ed002800a6
:100ea4000830fff7cffa010020236268a1601343e2
:100eb40063602300e5603433ff22012e00d10a224f
:100ec4001a70024be362002070bdc046ad090000f9
:020000040000fa
:100ed40070b5c668856804000a00ae4211d10120cd
:100ee400002100f0abfac043c943431c03d00b4bb1
:100ef4001a68104018604b1c03d0084a5368194004
:100f04005160012319006268b56011439a43ee6091
:100f14006160a41822681343236070bd100400208c
:020000040000fa
:100f240010b50020fff782ff00f070fa00210b4893
:100f340000f0d4fa012000f0b5fa0022084901209b
:100f440000f0c4f90021074800f0c2fa064c05225b
:100f54002100242000f0f8f8f9e7c046f914000055
:0c0f6400ed14000005150000b00700208f
:020000040000fa
:100f700010b5064c2378002b07d1054b002b02d06f
:100f8000044800e000bf0123237010bd8407002047
:100f90000000000000000000044b10b5002b03d03f
:100fa0000349044800e000bf10bdc0460000000037
:080fb00088070020000000008a
:020000040000fa
:100fb800f0b5c64600b50e4d00240e4f01239846e5
:100fc80004e03e6101340c35102c0ed02a7ae3b2cd
:100fd8009a42f7d13b694646a6401e42f2d02b689a
:100fe800002beed068689847ebe704bc9046f0bd4c
:080ff80018060020001800405b
:020000040000fa
:1010000010b50a4b98470a4b984700f086fa094bef
:10101000ff229343084a9360084b9847084b984730
:10102000084b9847fff77efffee7c0466f130000ae
:101030006f1300000000000000ed00e0210c000034
:081040006f1300006f130000a4
:020000040000fa
:1010480070b5002818d0002918d000250c4a0124b2
:10105800072605e06b00c35a13850135a94209d05c
:10106800137e2342fcd053683340012bf2d0435dfa
:101078001385f2e7012070bd0020fce70120fae7a4
:04108800001c004206
:020000040000fa
:10108c000d4b01221a801a00d37b5bb2002bfbdbc9
:10109c00094bec22d2001a80084a1a833b229a731d
:1010ac00074a0021116001225a731a00d37b5bb2ec
:1010bc00002bfbdb7047c046003000421bb7ffff24
:0410cc00a007002059
:020000040000fa
:1010d0000c4a036810b5546a0b4a591e121b914200
:1010e0000bd9002b05d00c220120084b40421a607e
:1010f00010bd102202600020fae70f22173393433d
:101100000360f8e7e8060020efffff7fc00700203c
:020000040000fa
:101110000309013b1800202b07d90a4a934205d83e
:101120000948db08c318043b18787047e0223f20c9
:1011300052019342f9d80448db09c318043b1878dc
:0c1140001030f2e7ff0100007c0c000002
:020000040000fa
:10114c0010b50c4c2023e45c0023002c01d01800bb
:10115c0010bd084b9880d9605a6100229a601a61c0
:10116c00012199701a7020315a542039fff7dcfd97
:08117c000123ece758070020f5
:020000040000fa
:101184000a4b0b4a1a600b4a9a81c02292025a6097
:101194001a00d369002bfcd1044a136802210b43c3
:1011a4001360d369002bfcd17047c046001c004279
:0811b400040120402bf6ffffaf
:020000040000fa
:1011bc00f8b5050001262c68344201d000200ee061
:1011cc002000fff79fff070000f0f0f82868a0420e
:1011dc00f1d1b043281a3900fff776fe0120f8bd93
:020000040000fa
:1011ec00084b02001968002901d1074919601868d9
:1011fc00064982188a4201d81a6070470120404281
:10120c00fbe7c046c4070020b8080020b80a00203d
:020000040000fa
:10121c00f8b5050001276c683c4201d000200de0b8
:10122c002000fff76fff060000f0c0f86b68a342c8
:0e123c00f1d128003100fff747fe0120f8bd78
:020000040000fa
:02124a00fee7bd
:020000040000fa
:10124c00094b5b8b5b070dd0074b80221a76793ae2
:10125c005a831b7e5b0705d5034b04211a8d1a7e1e
:0c126c000a42fbd17047c0460008004257
:020000040000fa
:10127800094b5b8b5b070dd0074b80221a76793ab6
:101288005a831b7e5b0705d5034b04211a8d1a7ef2
:0c1298000a42fbd17047c046001c004217
:020000040000fa
:1012a400020000234832d356591e0b431370042303
:1012b4004268134005d01023134343600120404289
:0a12c40070470364c3631800fae7e3
:020000040000fa
:0212ce00fee739
:020000040000fa
:1012d00030b543001b189b00064ce3181b7a834271
:1012e00000d030bd43001d18ad0029516019426087
:0812f000f7e7c04618060020d4
:020000040000fa
:1012f800f7b5002507000c002e000192019b9e42c5
:1013080001db2800febd62682168380000f03ef865
:0813180001362d180834f1e73d
:020000040000fa
:10132000f7b5002507000c002e000192019b9e429c
:1013300001db2800febd62682168380000f04cf82f
:0813400001362d180834f1e715
:020000040000fa
:10134800012370b544689c43651a102d0ad94218c8
:1013580019432b4311605360083203514160100058
:06136800fff7e0f970bd83
:020000040000fa
:02136e007047c6
:020000040000fa
:1013700010b5064b987bc0b23b229a73044b1b6896
:10138000002b02d0024a5168984710bd003000423d
:04139000a007002092
:020000040000fa
:1013940010b50c000023002809d10300002a06d050
:1013a40001212000fff718fd0028f9d001231800bf
:0213b40010bd6a
:020000040000fa
:0213b60070477e
:020000040000fa
:1013b800064b0130c000c258002a05d10200083a85
:1013c800d21819184a60c2507047c046100400204d
:020000040000fa
:1013d80070b50d001400012801d0200070bd210057
:0c13e8002800fff72dfe0028f9d0f6e7e2
:020000040000fa
:1013f40010b50400fff754ff002805d1a368e26884
:0a140400a36163619b18a36210bd91
:020000040000fa
:02140e00704725
:020000040000fa
:10141000044a138802210b431380d37b5bb2002b59
:08142000fbdb704700300042c5
:020000040000fa
:10142800d0400b1cd1409c46203ad340184352422e
:1014380063469340184370479140031c90409c4674
:10144800203a9340194352426346d34019437047a8
:020000040000fa
:10145800006810b5002801da002010bdfff7c2feb1
:06146800431cfad1f8e775
:020000040000fa
:02146e007047c5
:020000040000fa
:1014700010b500f057f8024b1860586010bdc04618
:04148000a807002099
:020000040000fa
:101484004a424a41802310b55200db00fff7f8fcc2
:0214940010bd89
:020000040000fa
:10149600002310b59a4200d110bdcc5cc454013370
:0214a600f8e765
:020000040000fa
:1014a80001238340014ad3607047c04600180040ba
:020000040000fa
:1014b80010b5fff7d9fffff7a6fffff7a4ff10bd90
:020000040000fa
:0c14c800014b80225a6070470040004138
:020000040000fa
:0c14d400014b58629962704758070020d5
:020000040000fa
:0c14e000014b186059607047a007002005
:020000040000fa
:0c14ec00014b0422da617047004400410b
:020000040000fa
:0c14f800014b0122da6170470044004102
:020000040000fa
:0c150400014b0822da61704700440041ee
:020000040000fa
:0a15100010b50068fff760ff10bd82
:020000040000fa
:08151a0010b5fff784fa10bdc3
:020000040000fa
:08152400004870473408002064
:020000040000fa
:06152c000120404270475f
:020000040000fa
:0415320000207047de
:020000040000fa
:0415360000207047da
:020000040000fa
:0200000400807a
:0440000077c700d8a6
:020000040000fa
:0200000400807a
:044004005c00ffff5e
:00000001FF
