:020000040000fa
:10000000f83f0020b10200003b0400003d04000066
:1000100000000000000000000000000000000000e0
:100020000000000000000000000000003904000093
:1000300000000000000000003904000095030000eb
:1000400039040000390400003904000039040000bc
:1000500039040000390400003904000039040000ac
:10006000390400003904000039040000390400009c
:10007000390400003904000039040000390400008c
:10008000390400003904000039040000390400007c
:1000900039040000000000000000000039040000e6
:1000a000390400003904000039040000390400005c
:0800b00000000000390400000b
:020000040000fa
:1000b800f8b5c046f8bc08bc9e46704791020000df
:1000c800f8b5c046f8bc08bc9e46704769020000f7
:020000040000fa
:1000d800184b00229a619a8c80218a439a841a00cc
:1000e8001023d1680b42fcd0134b1b689b0e3f2b8f
:1000f8001dd09b028022920013430e4a9362102364
:10010800d1680b42fcd00b4b02229a841a001023b0
:10011800d1680b42fcd0094b094a5a601a0053783f
:100128005bb2002bfbdb034b00221a627047203bbb
:10013800dfe7c0460008004024608000000c004053
:0401480000070100ab
:020000040000fa
:10014c000021f0b5174b184a934208d30027174ae1
:10015c0013685168002b05d1002903d1f0bd19702b
:10016c000133f1e7100095680c305c18002d16d0a7
:10017c000b25ed1a5219a3420ad10b00032213408e
:10018c005a1e934189085918890040180200dfe76c
:10019c005d1cae5c1e702b00ede71f700133a3429b
:1001ac00fbd1f3e700000020000000201802000043
:020000040000fa
:1001bc0000230e4a10b513600d4a13600d4a1360ec
:1001cc000d4a13600d4a13600d4a536213610133db
:1001dc00936000f02ff900f02df90a4c0a4b9c4269
:1001ec0000d310bd08cc9847f8e7c0467c0000202f
:1001fc000c0000200800002000000020040000205b
:0c020c0010000020c4000000c80000002a
:020000040000fa
:10021800500000201c000000000000006c000020be
:100228000c0000000000000078000020040000001e
:100238000000000000000020500000000000000046
:100248007c00002004000000000000000000000006
:100258000000000044444444444444444444444466
:020000040000fa
:1002680010b5064c2378002b07d1054b002b02d084
:10027800044800e000bf0123237010bd5000002097
:100288000000000000000000044b10b5002b03d054
:100298000349044800e000bf10bdc046000000004c
:0802a8005400002000000000da
:020000040000fa
:1002b00010b50a4b98470a4b984700f0b9f8094b1c
:1002c000ff229343084a9360084b9847084b98478e
:1002d000084b984700f030f8fee7c0463f040000a6
:1002e0003f0400000000000000ed00e0bd01000040
:0802f0003f0400003f04000080
:020000040000fa
:1002f80070b50d4b5e681b68db0714d50b4b584374
:10030800094b9b6800280ed00021074c013605e0f8
:10031800b51aeb18c9181300884204d9a2689a4282
:10032800f6d89b1af6e770bd10e000e080bb00002d
:020000040000fa
:10033800f8b5002000f03cf800f05cf8084800f040
:1003480069f8084d802676023700af61fa24a400c8
:100358002000fff7cdff6e612000fff7c9fff4e72b
:08036800a086010000440041e1
:020000040000fa
:10037000054a00231360936004495160062111600f
:10038000034a93601360704710e000e07fbb0000f9
:040390006c000020dd
:020000040000fa
:1003940010b5064b1b68064b9a6801329a601b68bd
:1003a400002b02d0024a5068984710bd10e000e0cc
:0403b4006c000020b9
:020000040000fa
:1003b80010b5074b06225a6000f00cf8fff788fecc
:1003c80000f022f8fff7d0ff00f02af810bdc04671
:0403d80000400041a0
:020000040000fa
:1003dc00064bc02292021a60022250215a5401315b
:1003ec005a543632002199547047c046004400419b
:020000040000fa
:1003fc00034b00229a601a6801210a431a60704765
:04040c0010e000e01c
:020000040000fa
:0c041000014b82225a60704700400041fe
:020000040000fa
:0c041c000138014b5860704710e000e010
:020000040000fa
:08042800bff35f8f62b670475d
:020000040000fa
:0804300010b5fff78bfe10bdb3
:020000040000fa
:02043800fee7dd
:020000040000fa
:02043a00fee7db
:020000040000fa
:02043c00fee7d9
:020000040000fa
:02043e00704705
:020000040000fa
:02044000704703
:020000040000fa
:0200000400807a
:0440000077c700d8a6
:020000040000fa
:0200000400807a
:044004005c00ffff5e
:00000001FF
