:020000040000fa
:10000000f03f0020c9020000ed030000ef030000f4
:1000100000000000000000000000000000000000e0
:10002000000000000000000000000000cf030000fe
:100030000000000000000000cf030000cf0300001c
:10004000cf030000cf030000cf030000cf03000068
:10005000cf030000cf030000cf030000cf03000058
:10006000cf030000cf030000cf030000cf03000048
:10007000cf030000cf030000cf030000cf03000038
:10008000cf030000cf030000cf030000cf03000028
:10009000cf0300000000000000000000cf030000bc
:1000a000cf030000cf030000cf030000cf03000008
:0800b00000000000cf03000076
:020000040000fa
:1000b800f8b5c046f8bc08bc9e467047a9020000c7
:1000c800f8b5c046f8bc08bc9e46704781020000df
:020000040000fa
:1000d8001c4b00229a619a8c80218a439a841a00c8
:1000e8001023d1680b42fcd0174b1b689b0e3f2b8b
:1000f80026d09b02802292001343124a9362102357
:10010800d1680b42fcd00f4b02229a841a001023ac
:10011800d1680b42fcd00d4b0d4a5a60a022120147
:100128009a601a0053785bb2002bfbdb074b094a35
:100138005a80094b094a1a62024b00221a62704718
:10014800203bd6e70008004024608000000c0040f7
:10015800000701001a4000000004004000010100ef
:020000040000fa
:100168000021f0b5174b184a934208d30027174ac5
:1001780013685168002b05d1002903d1f0bd19700f
:100188000133f1e7100095680c305c18002d16d08b
:100198000b25ed1a5219a3420ad10b000322134072
:1001a8005a1e934189085918890040180200dfe750
:1001b8005d1cae5c1e702b00ede71f700133a3427f
:1001c800fbd1f3e70000002000000020100300002e
:020000040000fa
:1001d80000230e4a10b513600d4a13600d4a1360d0
:1001e8000d4a13600d4a13600d4a536213610133bf
:1001f800936000f0faf800f0f8f80a4c0a4b9c42b9
:1002080000d310bd08cc9847f8e7c046700000201e
:100218000c0000200800002000000020040000203e
:0c02280010000020c4000000c80000000e
:020000040000fa
:10023400104b01221a6019008b681a42fcd10d4b35
:1002440000221a605a6158690b490143596102211d
:10025400d963f331ff3159649a64da641a65fa2276
:1002640092001a6401221a871a009368002bfcd1a9
:0c0274007047c04600200042000f4040d0
:020000040000fa
:1002800010b5064c2378002b07d1054b002b02d06c
:10029000044800e000bf0123237010bd500000207f
:1002a0000000000000000000044b10b5002b03d03c
:1002b0000349044800e000bf10bdc0460000000034
:0802c0005400002000000000c2
:020000040000fa
:1002c80010b50a4b98470a4b984700f087f8094b36
:1002d800ff229343084a9360084b9847084b984776
:1002e800084b984700f068f8fee7c046f1030000a5
:1002f800f10300000000000000ed00e0d90100005b
:08030800f1030000f103000005
:020000040000fa
:10031000500000201c000000000000006c000020c5
:100320000400000000000000000000205000000059
:100330000000000070000020040000000000000029
:10034000000000000000000044444444444444448d
:020000040000fa
:100350000a4b442201219954002247315a54013159
:100360005a5403315a5401315a541b3904205854f9
:1003700002315a5402315a547047c0460044004179
:020000040000fa
:1003800010b5074b06225a60fff7e2fffff7a4fe05
:1003900000f01ef8fff74eff00f020f810bdc04639
:0403a00000400041d8
:020000040000fa
:1003a400054a136802210b431360110002228b6873
:0c03b4001a42fcd17047c04600200042f5
:020000040000fa
:0e03c00010b50020fff7dcfffff7ecfffee7b3
:020000040000fa
:0203ce00fee748
:020000040000fa
:0c03d000014b80225a6070470040004141
:020000040000fa
:0803dc00bff35f8f62b67047aa
:020000040000fa
:0803e40010b5fff7bffe10bdcc
:020000040000fa
:0203ec00fee72a
:020000040000fa
:0203ee00fee728
:020000040000fa
:0203f000704754
:020000040000fa
:0203f200704752
:020000040000fa
:0200000400807a
:0440000077c700d8a6
:020000040000fa
:0200000400807a
:044004005c00ffff5e
:00000001FF
