:020000040000fa
:10000000f03f0020410a0000c70c00002b0e00004a
:1000100000000000000000000000000000000000e0
:100020000000000000000000000000004f0600007b
:1000300000000000000000004f060000e50d000079
:100040004f0600004f0600004f0600004f0600005c
:100050004f0600004f0600004f0600004f0600004c
:100060004f0600004f0600004f0600004f0600003c
:100070004f0600004f0600004f0600004f0600002c
:100080004f0600004f0600004f0600004f0600001c
:100090004f06000000000000000000004f060000b6
:1000a0004f0600004f0600004f0600004f060000fc
:0800b000000000004f060000f3
:020000040000fa
:1000b800f8b5c046f8bc08bc9e467047210a000047
:1000c800f8b5c046f8bc08bc9e467047f909000060
:020000040000fa
:1000d800680600201c0000000000000084060020c4
:1000e8000c0000000000000098060020040000003a
:1000f800000000001806002050000000000000006a
:10010800a80600206c00000001000000b4060020d2
:10011800b0060020b4060020000000002500000002
:10012800080000200004000000000000000000009b
:1001380000000000000000000000000000000000b7
:1001480000000000000000009f0f000000000000f9
:100158000000000000000000000000003907000057
:100168000000000000000000000000000000000087
:10017800000000000000000000000020080400004b
:1001880000000000740700202000000001000000ab
:100198000100000003000000000000000000000053
:1001a8000000000000000000000000009006002091
:1001b8009006002008000000000000009c060020b7
:1001c80004000000000000000804002010020000e5
:1001d800000000001407002060000000010000007b
:1001e8000100000003000000000000000000000003
:1001f800000000000000000000000000550800009a
:10020800000000000000000000000000750f000062
:10021800a70f000000000000000000000000000020
:1002280000000000000000000000000000000000c6
:1002380000000000000000000000000000000000b6
:10024800a00600200400000000000000a406002012
:100258000400000000000000000000000000000092
:020000040000fa
:10026800f0b587b0039003a800f06efc002802da0e
:10027800002007b0f0bd039b1b095d1e202d09d986
:100288004f49023b4f4a8b4224d8db08d318043b22
:100298001d7801352a000120002100f015fe0024f8
:1002a80043428c4100930194474f00983a687b6819
:1002b8001040020001990b401a433fd1039b05a847
:1002c8001033059300f00cfe002809d10c223f4b97
:1002d8001a60cee7db09d318043b1d781135d9e73e
:1002e8003b490c68a04206d0059b0400103b0593cf
:1002f8000123103483600125059be2180a602b4313
:10030800083a083c28c26360002cb1d0200000f0f5
:100318008ffc00280bd023686168ab43e31a5a6846
:10032800aa4352185a606168a94362501c00200011
:10033800039900f02efd200008309ae7214a25494c
:100348003c32002831d1584203404b43db0ed65c87
:100358002036300000f066fd731cdb00fc58083bbb
:10036800fb189c42a0d0272e25dd0235ae4201dcc9
:100378003f2e20d101226368039f9343dd1b280091
:10038800009300f001fc864215d1e268a168e319e8
:10039800da60996093609a68d360012217431f60fe
:1003a8005d60009be5506760c1e7434203404b43f3
:1003b800db0ed65ccde73100200000f0f1fab6e79d
:1003c800ff010000f807000010040020a00600202c
:0803d8000804002029e66b0770
:020000040000fa
:1003e000f7b5002858d00838436801221e0096430c
:1003f00085192a680400934200d0ffde01276b684c
:10040000226813403b420ed1200000f015fc00286a
:1004100043d1280000f040fc0028f0d06b68bb43bb
:10042000f618ed18ebe73b003343636030002b60b8
:1004300000f0aefb019000f0f9fc6b6822681340fd
:100440003b42e1d0184b019a1868596800f034fd1e
:10045000384212d1019a0120002100f039fd0b0031
:10046000002804d0104a126802430f480260002b93
:1004700003d00d4a53680b435360019b0a4a013372
:10048000db00d3181a005b68083a66602e60e360f0
:10049000a260d460e3689c60f7bd2368bb43e41aa4
:0c04a0006368bb43f618b4e710040020aa
:020000040000fa
:1004ac001e4b00229a619a8c80218a439a841a00ee
:1004bc001023d1680b42fcd0194b1b689b0e3f2bb1
:1004cc0029d09b02802292001343144a936210237a
:1004dc00d1680b42fcd0114b02229a841a001023d3
:1004ec00d1680b42fcd00f4b0f4a5a601a0053785c
:1004fc005bb2002bfbdb0b4b0c4a5a800c4a5a802c
:10050c000c4a5a800c4a5a800c4b0d4a1a62034b07
:10051c0000221a627047203bd3e7c0460008004017
:10052c0024608000000c0040000701000540000022
:10053c00194000001e400000214000000004004053
:04054c008000050026
:020000040000fa
:10055000f0b51600050002278369426987b002934f
:10056000d31a03939b1904910596019302ac3a00a8
:100570002100286800f0fdfb019b984208d1ab6880
:10058000ea68ab619a18aa626b61300007b0f0bdef
:1005900000280cda102200236968ab620a43ab61c1
:1005a0006b616a60022f12d06368f61aede7019b57
:1005b0001b1a01936368984202d9c01a0834013f9c
:1005c00023681b1823606368181a6060cfe71e0059
:0205d000dbe767
:020000040000fa
:1005d200f8b5846a05000f001600002c0ad0ab6a39
:1005e2006a699b1ab3420cd2320039002800fff725
:1005f200aeff05e000f045fc03002000002beed02a
:10060200f8bd002ef0d02b0034331b785bb2002be8
:100612001adb3400dbb2621eb95c994212d12200ad
:1006220039002800fff793ffa042e9d33f19341b9a
:1006320022003900686900f07ffc6b6930001c19e8
:0c0642006c61dde7141ee6d13400f1e726
:020000040000fa
:02064e00fee7c5
:020000040000fa
:10065000194b01221a701a00537e5bb2002bfbdb90
:10066000164b1a68164b1b68db0e07211140490117
:100670000b435201e021c9000a4013430e4a13857f
:100680000323d370013b53700e4b1361537e5bb257
:10069000002bfbdb084bc12292009a801a00537e8c
:1006a0005bb2002bfbdb044b0f221a761a00537e41
:1006b0005bb2002bfbdb70470040004224608000ef
:0806c000206080000118000019
:020000040000fa
:1006c8000021f0b5174b184a934208d30027174a60
:1006d80013685168002b05d1002903d1f0bd1970aa
:1006e8000133f1e7100095680c305c18002d16d026
:1006f8000b25ed1a5219a3420ad10b00032213400d
:100708005a1e934189085918890040180200dfe7ea
:100718005d1cae5c1e702b00ede71f700133a34219
:10072800fbd1f3e70000002000000020d800000003
:020000040000fa
:100738007fb51600c2680d0013000091591e8b4149
:10074800f31a019383680400039269460222006841
:10075800029300f0f6fa002808dc18220823024069
:100768005340626813436360060010e0019b8342b4
:10077800fad2a268c01ae3681018e2632064002b5a
:1007880005d0531ce3631378ad19013d2b7030007d
:0407980004b070bd7c
:020000040000fa
:10079c0000230e4a10b513600d4a13600d4a136006
:1007ac000d4a13600d4a13600d4a536213610133f5
:1007bc00936000f0c5fb00f09cfb0a4c0a4b9c427a
:1007cc0000d310bd08cc9847f8e7c0469c06002023
:1007dc002406002020060020180600201c060020fd
:0c07ec0028060020c4000000c800000027
:020000040000fa
:1007f800202122232424252526262727282828289f
:10080800292929292a2a2a2a2b2b2b2b2c2c2c2c38
:100818002c2c2c2c2d2d2d2d2d2d2d2d2e2e2e2e00
:100828002e2e2e2e2f2f2f2f2f2f2f2f0001170276
:100838001d1813031e1b190b1408040d1f161c1278
:0c0848001a0a070c1511090610050f0e06
:020000040000fa
:1008540070b504000d00002801d1002070bd43686c
:100864009b0607d543698269934215d80023a36286
:10087400a3616361e16b236c994204d2c91a01221a
:10088400206800f08cfb00232364e3639d42e4d0e2
:10089400206800f07ffbe1e70022c36a110098475b
:0c08a4006369002be2d101204042d7e73d
:020000040000fa
:1008b000f8b505000c000020002d20d000f01afa39
:1008c000002c17d000200e4a0421072605e0178dc2
:1008d0004300ef52013084420dd0137e0b42fcd016
:1008e000538b334207d153683340012befd0138d24
:1008f0002b54efe72000201a44426041c0b2f8bdfb
:04090000001c004295
:020000040000fa
:1009040010b5114b06225a60104b1b681868002161
:1009140000f008fb0e4b1b681868002100f002fb76
:1009240000f0d0f9fff7c0fd00f016fb00f046fa26
:1009340000f04af9fff78afe00f062f900f084fa49
:1009440000f01bfb10bdc04600400041ac06002077
:0409540090070020e8
:020000040000fa
:1009580070b5040016001d00022a1cd043689b06cf
:1009680019d4002908d1002d01d18025ed002800d7
:100978000830fff775fc010020236268a16013436b
:1009880063602300e5603433ff22012e00d10a2280
:100998001a70024be362002070bdc046d305000008
:020000040000fa
:1009a80070b5c668856804000a00ae4211d10120fe
:1009b800002100f089fac043c943431c03d00b4b04
:1009c8001a68104018604b1c03d0084a5368194035
:1009d8005160012319006268b56011439a43ee60c3
:1009e8006160a41822681343236070bd10040020be
:020000040000fa
:1009f80010b5064c2378002b07d1054b002b02d0ed
:100a0800044800e000bf0123237010bd68060020e1
:100a18000000000000000000044b10b5002b03d0bc
:100a28000349044800e000bf10bdc04600000000b4
:080a38006c0600200000000024
:020000040000fa
:100a400010b50a4b98470a4b984700f09cfa094b9f
:100a5000ff229343084a9360084b9847084b9847f6
:100a6000084b984700f032f8fee7c0469f0e0000a2
:100a70009f0e00000000000000ed00e09d07000058
:080a80009f0e00009f0e000014
:020000040000fa
:100a880070b5002818d0002918d000250c4a012478
:100a9800072605e06b00c35a13850135a94209d022
:100aa800137e2342fcd053683340012bf2d0435dc0
:100ab8001385f2e7012070bd0020fce70120fae76a
:040ac800001c0042cc
:020000040000fa
:100acc0070b50020fff718ff00f014fa0c4800f086
:100adc0045fae125ad00c824a0b200f0dbf90a20ec
:100aec0000f010f80134ac42f6d1a0b200f0d2f90b
:100afc000a2000f007f8013cc82cf6d1ebe7c04601
:040b0c0010270000ae
:020000040000fa
:100b100070b50d4b5e681b68db0714d50b4b584353
:100b2000094b9b6800280ed00021074c013605e0d8
:100b3000b51aeb18c9181300884204d9a2689a4262
:100b4000f6d89b1af6e770bd10e000e080bb00000d
:020000040000fa
:100b50000c4a036810b5546a0b4a591e121b914285
:100b60000bd9002b05d00c220120084b40421a6003
:100b700010bd102202600020fae70f2217339343c2
:100b80000360f8e728060020efffff7fa0060020a3
:020000040000fa
:100b90000309013b1800202b07d90a4a934205d8c4
:100ba0000948db08c318043b18787047e0223f204f
:100bb00052019342f9d80448db09c318043b187862
:0c0bc0001030f2e7ff010000f807000011
:020000040000fa
:100bcc000a4b0b4a1a600b4a9a81c02292025a6055
:100bdc001a00d369002bfcd1044a136802210b4381
:100bec001360d369002bfcd17047c046001c004237
:080bfc00040100402bf6ffff8d
:020000040000fa
:100c04000b4a137801210b43137053785bb2002b0a
:100c1400fbdb074b00229a61da611a7802210a434e
:100c24001a701a0053785bb2002bfbdb7047c04686
:040c34000018004064
:020000040000fa
:100c3800f8b5050001262c68344201d000200ee0ea
:100c48002000fff7a1ff070000f0ecf82868a04299
:100c5800f1d1b043281a3900fff7a2fe0120f8bdf0
:020000040000fa
:100c6800084b02001968002901d107491960186862
:100c7800064982188a4201d81a607047012040420a
:100c8800fbe7c046a406002098070020980900202a
:020000040000fa
:100c9800f8b5050001276c683c4201d000200de042
:100ca8002000fff771ff060000f0bcf86b68a34254
:0e0cb800f1d128003100fff773fe0120f8bdd6
:020000040000fa
:020cc600fee747
:020000040000fa
:100cc800094b012242215a5401315a5413315a54c2
:100cd8002539112058542e392a3019549b301a546a
:0c0ce800ba3299547047c04600440041e5
:020000040000fa
:100cf400094b5b8b5b070dd0074b80221a76793a40
:100d04005a831b7e5b0705d5034b04211a8d1a7e7b
:0c0d14000a42fbd17047c046001c0042a0
:020000040000fa
:100d2000020000234832d356591e0b43137004238c
:100d30004268134005d01023134343600120404212
:0a0d400070470364c3631800fae76c
:020000040000fa
:100d4a00f7b5002507000c002e000192019b9e4278
:100d5a0001db2800febd62682168380000f04ff808
:080d6a0001362d180834f1e7f1
:020000040000fa
:100d7200f7b5002507000c002e000192019b9e4250
:100d820001db2800febd62682168380000f06bf8c4
:080d920001362d180834f1e7c9
:020000040000fa
:100d9a00012370b544689c43651a102d0ad942187c
:100daa0019432b431160536008320351416010000c
:060dba00fff711fb70bd04
:020000040000fa
:100dc000054a0023136093600449516006211160b5
:100dd000034a93601360704710e000e07fbb00009f
:040de0008406002065
:020000040000fa
:100de40010b5064b1b68064b9a6801329a601b6863
:100df400002b02d0024a5068984710bd10e000e072
:040e04008406002040
:020000040000fa
:100e080010b50c000023002809d10300002a06d0e1
:100e180001212000fff748fd0028f9d00123180020
:020e280010bdfb
:020000040000fa
:020e2a00fee7e1
:020000040000fa
:100e2c00064b0130c000c258002a05d10200083a16
:100e3c00d21819184a60c2507047c04610040020de
:020000040000fa
:100e4c00054b41225a7000229a7002321a701a0015
:0c0e5c00d379002bfcd170470048004205
:020000040000fa
:100e680070b50d001400012801d0200070bd2100cc
:0c0e78002800fff705fe0028f9d0f6e77f
:020000040000fa
:100e840010b50400fff74aff002805d1a368e26803
:0a0e9400a36163619b18a36210bd07
:020000040000fa
:020e9e0070479b
:020000040000fa
:100ea0008005800d034b18811a00d379002bfcd1eb
:080eb0007047c04600480042f3
:020000040000fa
:100eb800d0400b1cd1409c46203ad34018435242a4
:100ec80063469340184370479140031c90409c46ea
:100ed800203a9340194352426346d340194370471e
:020000040000fa
:100ee800006810b5002801da002010bdfff7b8fe31
:060ef800431cfad1f8e7eb
:020000040000fa
:020efe0070473b
:020000040000fa
:100f0000034b00229a601a6801210a431a60704755
:040f100010e000e00d
:020000040000fa
:100f140010b500f03bf8024b1860586010bdc04695
:040f24009006002013
:020000040000fa
:100f28004a424a41802310b55200db00fff710fd0a
:020f380010bdea
:020000040000fa
:100f3a00002310b59a4200d110bdcc5cc4540133d1
:020f4a00f8e7c6
:020000040000fa
:100f4c0010b5fff7e1ff00f01cf800f01af810bd27
:020000040000fa
:0c0f5c00014b82225a60704700400041a7
:020000040000fa
:0c0f68000138014b5860704710e000e0b9
:020000040000fa
:0a0f740010b50068fff776ff10bd0e
:020000040000fa
:080f7e00bff35f8f62b67047fc
:020000040000fa
:080f860010b5fff79efb10bd42
:020000040000fa
:020f8e007047aa
:020000040000fa
:080f900000487047140700201f
:020000040000fa
:060f9800012040427047f9
:020000040000fa
:040f9e000020704778
:020000040000fa
:040fa2000020704774
:020000040000fa
:020fa600704792
:020000040000fa
:0200000400807a
:0440000077c700d8a6
:020000040000fa
:0200000400807a
:044004005c00ffff5e
:00000001FF
