:020000040000fa
:10000000f03f0020150f00000f120000ff1200004b
:1000100000000000000000000000000000000000e0
:100020000000000000000000000000004309000084
:100030000000000000000000430900004309000028
:100040004309000043090000430900004309000080
:10005000cd0e0000430900004309000043090000e1
:10006000430900004309000043090000b9020000f1
:10007000e1050000430900004309000043090000b6
:100080004309000043090000430900004309000040
:1000900043090000000000000000000043090000c8
:1000a0004309000043090000430900004309000020
:0800b0000000000043090000fc
:020000040000fa
:1000b800f8b5c046f8bc08bc9e467047ad0e0000b7
:1000c800f8b5c046f8bc08bc9e467047850e0000cf
:020000040000fa
:1000d800800700201c000000000000001806002017
:1000e800c000000000000000280700202c000000cd
:1000f80000000000a9070020010000000000000027
:10010800540700202c00000000000000a407002075
:100118000500000000000000ac07002005000000fa
:1001280000000000b00800200600000001000000e8
:100138006869693263000000b40700200400000009
:1001480000000000d8060020500000000000000059
:10015800c40700206c00000001000000d007002048
:10016800cc070020d0070020000000002500000078
:10017800080000200004000000000000000000004b
:100188000000000000000000000000000000000067
:1001980000000000000000003f1400000000000004
:1001a800000000000000000000000000150b000027
:1001b8000000000000000000000000000000000037
:1001c80000000000000000000000002008040000fb
:1001d800000000009008002020000000010000003e
:1001e8000100000003000000000000000000000003
:1001f8000000000000000000000000009c07002034
:100208009c0700200800000000000000b80700203c
:100218000400000000000000080400201002000094
:10022800000000003008002060000000010000000d
:1002380001000000030000000000000000000000b2
:10024800000000000000000000000000910c000009
:100258000000000000000000000000001d14000065
:10026800471400000000000000000000000000002b
:100278000000000000000000000000000000000076
:100288000000000000000000000000000000000066
:10029800bc0700200400000000000000c007002088
:1002a8000400000000000000000000000000000042
:020000040000fa
:1002b80010b5694b9b7d002b17d0674b5b8b9b0759
:1002c80014d5664b2022ff2199540132fd399954e7
:1002d800624a2023d35c5bb2013300d18be05f4ad2
:1002e8002023d35c062b00d19de010bd5a4b5b8bbd
:1002f800db0707d5594b2022ff2199540132fd39dc
:100308009954e5e7544b5b8b5b0707d5534b202289
:10031800ff2199540132fe399954d9e74f4a2023d5
:10032800d35c5bb2032b44d0042b0fd0022bcfd16c
:100338001369002b04d09088002100f0d3fcc7e794
:10034800464b9888012100f0cdfcc1e7434a9369e8
:10035800126993420cd0414a9168cc5c3e482821ee
:100368004454013393610200d369002bfcd1afe7f9
:100378003a4b5b69002b0ed0384b9b885b000122ff
:100388001343354a5362d369002bfcd1334a2033d7
:100398000321d1549ce7304a5168c0239b020b4388
:1003a8005360d369002bfcd12c4a20330621d15449
:1003b8008ee72a4a5369013bd2699a420dd0264af0
:1003c800d369002bfcd1254ad36923482821415cf5
:1003d800d068c1540133d3617ae71f4a5168e023da
:1003e800db020b435360d369002bfcd11b4a20333b
:1003f8000621d154e3e720230021d154164a51683d
:10040800c0239b020b435360d369002bfcd1124bd2
:1004180083221a76114b5b6a002b00d165e70f4add
:10042800906a984761e71300002220215a5401314d
:100438005a54094b83321a761900533a4b8b13409e
:10044800102bfbd1054b5b6a002b00d14de7034a0b
:10045800906a984749e7c0460010004228070020e4
:020000040000fa
:10046800f0b587b0039003a800f0dafd002802da9f
:10047800002007b0f0bd039b1b095d1e202d09d984
:100488004f49023b4f4a8b4224d8db08d318043b20
:100498001d7801352a000120002100f073ff002497
:1004a80043428c4100930194474f00983a687b6817
:1004b8001040020001990b401a433fd1039b05a845
:1004c8001033059300f06aff002809d10c223f4b36
:1004d8001a60cee7db09d318043b1d781135d9e73c
:1004e8003b490c68a04206d0059b0400103b0593cd
:1004f8000123103483600125059be2180a602b4311
:10050800083a083c28c26360002cb1d0200000f0f3
:1005180033fe00280bd023686168ab43e31a5a689e
:10052800aa4352185a606168a94362501c0020000f
:10053800039900f0bcfe200008309ae7214a2549bb
:100548003c32002831d1584203404b43db0ed65c85
:100558002036300000f0d0fe731cdb00fc58083b4e
:10056800fb189c42a0d0272e25dd0235ae4201dcc7
:100578003f2e20d101226368039f9343dd1b28008f
:10058800009300f08bfd864215d1e268a168e3195b
:10059800da60996093609a68d360012217431f60fc
:1005a8005d60009be5506760c1e7434203404b43f1
:1005b800db0ed65ccde73100200000f037fcb6e753
:1005c800ff010000340c000010040020bc070020cc
:0805d8000804002029e66b076e
:020000040000fa
:1005e00010b5564b9b7d002b53d0544a51680723be
:1005f0000b40127e52075bd5504a906a50494a69b7
:10060000c9688a4254d2002b44d14d4b5968885452
:1006100001325a61494b1b7edb0718d5474b01223b
:100620001a75474a93699268934258d2444a1168ae
:10063000c85c4249886201339361414b9a699b6867
:100640009a4262d03e4b5a69db689a4269d03b4b72
:100650001b7e9b0716d53b4b1b78002b19d0384bc4
:100660005a69db689a4211d1354b00221a77334917
:100670000720087533490a701b6a002b09d0304add
:10068000506a98472f4b1b78002b02d02b4b02222d
:100690009a7510bd2a4b51005c68085301325a61ab
:1006a000264b1b7edb07d2d5244b01221a7508e0ae
:1006b000224a127ed207cad5204a01211175002b89
:1006c000afd01f4a93699268934213d21c4a5900d3
:1006d0001068085a1949886201339361ade7184bd5
:1006e0001b69002b23d0154aff219162013b144a5c
:1006f0001361a2e7124b1b69002b18d00f4a124955
:100700009162013b0e4a136197e70d4b1b69002b69
:1007100098d10c4b01221a70084b1b7e9b079ed46c
:10072000b4e7064b01229a7503321a758fe7044b22
:100730009a699b689a4200d084e7eae70014004275
:0c07400054070020a9070020ffff000064
:020000040000fa
:10074c00f7b5002858d00838436801221e0096439c
:10075c0085192a680400934200d0ffde01276b68dc
:10076c00226813403b420ed1200000f003fd00280c
:10077c0043d1280000f02efd0028f0d06b68bb435d
:10078c00f618ed18ebe73b003343636030002b6049
:10079c0000f082fc019000f0adfd6b682268134004
:1007ac003b42e1d0184b019a1868596800f0dcfd07
:1007bc00384212d1019a0120002100f0e1fd0b001a
:1007cc00002804d0104a126802430f480260002b24
:1007dc0003d00d4a53680b435360019b0a4a013303
:1007ec00db00d3181a005b68083a66602e60e36081
:1007fc00a260d460e3689c60f7bd2368bb43e41a35
:0c080c006368bb43f618b4e7100400203a
:020000040000fa
:100818001f4b00229a619a8c80218a439a841a007d
:100828001023d1680b42fcd01a4b1b689b0e3f2b40
:100838002cd09b02802292001343154a9362102306
:10084800d1680b42fcd0124b02229a841a00102362
:10085800d1680b42fcd0104b05221a720f4b104a7c
:100868005a601a0053785bb2002bfbdb0b4b0d4a26
:100878005a800d4a5a800d4a5a800d4a5a80064bb2
:100888000c4a1a62024b00221a627047203bd0e7da
:10089800000800402460800000040040000c004074
:1008a8000007010005400000164000001740000046
:0808b80019400000b00001002e
:020000040000fa
:1008c000f0b51600050002278369426987b00293dc
:1008d000d31a03939b1904910596019302ac3a0035
:1008e0002100286800f0d3fc019b984208d1ab6836
:1008f000ea68ab619a18aa626b61300007b0f0bd7c
:1009000000280cda102200236968ab620a43ab614d
:100910006b616a60022f12d06368f61aede7019be3
:100920001b1a01936368984202d9c01a0834013f28
:1009300023681b1823606368181a6060cfe71e00e5
:02094000dbe7f3
:020000040000fa
:02094200fee7ce
:020000040000fa
:1009440010b51d4a137801210b43137053785bb221
:10095400002bfbdb1849442088610023cb61023360
:10096400cb60164b10221a7201241c751f341a55c1
:100974000c341a550c341a551a540c301a540c30c1
:100984001a540c301a540c301a540c301a540c30bb
:100994001a540c301a540c301a540c301a540c30ab
:1009a4001a540b78022213430b700a0053785bb27b
:1009b400002bfbdb10bdc0460018004018060020c9
:020000040000fa
:1009c400f8b5846a05000f001600002c0ad0ab6a43
:1009d4006a699b1ab3420cd2320039002800fff72f
:1009e4006dff05e000f0b6fc03002000002beed004
:1009f400f8bd002ef0d02b0034331b785bb2002bf3
:100a04001adb3400dbb2621eb95c994212d12200b7
:100a140039002800fff752ffa042e9d33f19341be5
:100a240022003900686900f0dafc6b6930001c1997
:0c0a34006c61dde7141ee6d13400f1e730
:020000040000fa
:100a40000021f0b5174b184a934208d30027174ae4
:100a500013685168002b05d1002903d1f0bd19702e
:100a60000133f1e7100095680c305c18002d16d0aa
:100a70000b25ed1a5219a3420ad10b000322134091
:100a80005a1e934189085918890040180200dfe76f
:100a90005d1cae5c1e702b00ede71f700133a3429e
:100aa000fbd1f3e70000002000000020d800000088
:020000040000fa
:100ab00010b5164b164a1a6002211961402299544a
:100ac000013205209854403a47301a5401301a54e4
:100ad00003301a5401301a540130195451315a5408
:100ae00003315a54263900205854363022241c54dd
:100af000023011341c54013019542d39023019546c
:100b00009b301a54ba32995410bdc046004400417b
:040b100001000400dc
:020000040000fa
:100b14007fb51600c2680d0013000091591e8b4169
:100b2400f31a019383680400039269460222006861
:100b3400029300f096fb002808dc182208230240e8
:100b44005340626813436360060010e0019b8342d4
:100b5400fad2a268c01ae3681018e2632064002b7a
:100b640005d0531ce3631378ad19013d2b7030009d
:040b740004b070bd9c
:020000040000fa
:100b7800144b01221a601a00d369002bfcd1114bc7
:100b8800802252005a601a00d369002bfcd10d4b09
:100b9800e822da600c4a1a601a00d369002bfcd1eb
:100ba800084b10225a831a00d369002bfcd1074b3b
:100bb800002221215a5401395a54024b83329a7522
:100bc8007047c04600100042160010002807002099
:020000040000fa
:100bd80000230e4a10b513600d4a13600d4a1360c6
:100be8000d4a13600d4a13600d4a536213610133b5
:100bf800936000f0fbfb00f0dcfb0a4c0a4b9c42c4
:100c080000d310bd08cc9847f8e7c046b8070020c5
:100c1800e4060020e0060020d8060020dc060020bc
:0c0c2800e8060020c4000000c800000026
:020000040000fa
:100c3400202122232424252526262727282828285e
:100c4400292929292a2a2a2a2b2b2b2b2c2c2c2cf8
:100c54002c2c2c2c2d2d2d2d2d2d2d2d2e2e2e2ec0
:100c64002e2e2e2e2f2f2f2f2f2f2f2f0001170236
:100c74001d1813031e1b190b1408040d1f161c1238
:0c0c84001a0a070c1511090610050f0ec6
:020000040000fa
:100c900070b504000d00002801d1002070bd43682c
:100ca0009b0607d543698269934215d80023a36246
:100cb000a3616361e16b236c994204d2c91a0122da
:100cc000206800f0befb00232364e3639d42e4d070
:100cd000206800f0b1fbe1e70022c36a11009847e9
:0c0ce0006369002be2d101204042d7e7fd
:020000040000fa
:100cec0010b5114b00229a61da61104b83321a76df
:100cfc005a680f4c22405a601a00d369002bfcd161
:100d0c0000290cd0084a20330324d4544000084353
:100d1c00064b58621a00d369002bfcd110bd024a55
:100d2c0020230424d454f1e72807002000100042ab
:040d3c00fffffbffbb
:020000040000fa
:100d4000f8b505000c000020002d20d000f060fa5e
:100d5000002c17d000200e4a0421072605e0178d2d
:100d60004300ef52013084420dd0137e0b42fcd081
:100d7000538b334207d153683340012befd0138d8f
:100d80002b54efe72000201a44426041c0b2f8bd66
:040d9000001c004201
:020000040000fa
:100d940010b5104b06225a600f4b1b6818680021cf
:100da40000f014fb0d4b1b681868002100f00efbcb
:100db400fff77cfefff72efd00f054f900f020fb56
:100dc400fff7d8fe00f0c0f9fff7bafd00f00af90a
:100dd40010bdc04600400041c8070020ac080020f8
:020000040000fa
:100de40070b5040016001d00022a1cd043689b063f
:100df40019d4002908d1002d01d18025ed00280047
:100e04000830fff72ffb010020236268a160134321
:100e140063602300e5603433ff22012e00d10a22ef
:100e24001a70024be362002070bdc046c509000081
:020000040000fa
:100e340070b5c668856804000a00ae4211d101206d
:100e4400002100f0a1fac043c943431c03d00b4b5b
:100e54001a68104018604b1c03d0084a53681940a4
:100e64005160012319006268b56011439a43ee6032
:100e74006160a41822681343236070bd100400202d
:020000040000fa
:100e840010b5064c2378002b07d1054b002b02d05c
:100e9400044800e000bf0123237010bd8007002038
:100ea4000000000000000000044b10b5002b03d02c
:100eb4000349044800e000bf10bdc0460000000024
:080ec40084070020000000007b
:020000040000fa
:100ecc00f0b5c64600b50e4d00240e4f01239846d2
:100edc0004e03e6101340c35102c0ed02a7ae3b2ba
:100eec009a42f7d13b694646a6401e42f2d02b6887
:100efc00002beed068689847ebe704bc9046f0bd39
:080f0c00180600200018004047
:020000040000fa
:100f140010b50a4b98470a4b984700f082fa094be0
:100f2400ff229343084a9360084b9847084b98471d
:100f3400084b984700f010f8fee7c0467313000012
:100f4400731300000000000000ed00e0d90b000066
:080f5400731300007313000089
:020000040000fa
:100f5c00f8b50020fff718ff00210b4800f052fafb
:100f6c000a4f01260a4c0b4d7e61062221002420db
:100f7c0000f0ccf80621200000f00ef80521280026
:100f8c0000f00af8f0e7c0463d13000000440041b1
:080f9c00b0080020a4070020aa
:020000040000fa
:100fa40070b5002818d0002918d000250c4a012457
:100fb400072605e06b00c35a13850135a94209d001
:100fc400137e2342fcd053683340012bf2d0435d9f
:100fd4001385f2e7012070bd0020fce70120fae749
:040fe400001c0042ab
:020000040000fa
:100fe800bff35f8f62b60d4b10221a60c2208000db
:100ff8001a581202120a8021c9050a431a5080227f
:1010080012011a60c32189005a58ff2082437f3891
:1010180002435a50802252011a60704700e100e0f2
:020000040000fa
:101028000c4a036810b5546a0b4a591e121b9142a8
:101038000bd9002b05d00c220120084b40421a6026
:1010480010bd102202600020fae70f2217339343e5
:101058000360f8e7e8060020efffff7fbc070020e9
:020000040000fa
:101068000b4b00221a621a779a60da60094b8022c9
:1010780092025a601a00d369002bfcd1054b172243
:101088001a73054a1a601a00d369002bfcd17047fd
:0c10980054070020001400420e0030003d
:020000040000fa
:1010a4000309013b1800202b07d90a4a934205d8ab
:1010b4000948db08c318043b18787047e0223f2036
:1010c40052019342f9d80448db09c318043b187849
:0c10d4001030f2e7ff010000340c0000b7
:020000040000fa
:1010e00010b50c4c2023e45c0023002c01d0180028
:1010f00010bd084b9880d9605a6100229a601a612d
:10110000012199701a7020315a542039fff7eefdf1
:081110000123ece72807002091
:020000040000fa
:1011180010b50b4c2023e45c0023002c01d01800f0
:1011280010bd074b9880dc605c6199601a619c7007
:101138001c7021229c540021fff7d4fd0123eee707
:041148002807002054
:020000040000fa
:10114c000a4b0b4a1a60d22252429a81c022920256
:10115c005a601a00d369002bfcd1044a136802218f
:10116c000b431360d369002bfcd17047001c004269
:04117c00040120400a
:020000040000fa
:10118000f8b5050001262c68344201d000200ee09d
:101190002000fff787ff070000f0b2f82868a042a0
:1011a000f1d1b043281a3900fff744fe0120f8bd01
:020000040000fa
:1011b000084b02001968002901d107491960186815
:1011c000064982188a4201d81a60704701204042bd
:1011d000fbe7c046c0070020b8080020b80a00207e
:020000040000fa
:1011e000f8b5050001276c683c4201d000200de0f5
:1011f0002000fff757ff060000f082f86b68a3425b
:0e120000f1d128003100fff715fe0120f8bde6
:020000040000fa
:02120e00fee7f9
:020000040000fa
:10121000094b5b8b5b070dd0074b80221a76793a1e
:101220005a831b7e5b0705d5034b04211a8d1a7e5a
:0c1230000a42fbd17047c046001c00427f
:020000040000fa
:10123c00020000234832d356591e0b43137004236b
:10124c004268134005d010231343436001204042f1
:0a125c0070470364c3631800fae74b
:020000040000fa
:10126600f7b5002507000c002e000192019b9e4257
:1012760001db2800febd62682168380000f02bf80b
:0812860001362d180834f1e7d0
:020000040000fa
:10128e00f7b5002507000c002e000192019b9e422f
:10129e0001db2800febd62682168380000f039f8d5
:0812ae0001362d180834f1e7a8
:020000040000fa
:1012b600012370b544689c43651a102d0ad942185b
:1012c60019432b43116053600832035141601000eb
:0612d600fff739fa70bdbc
:020000040000fa
:1012dc0010b50c000023002809d10300002a06d009
:1012ec0001212000fff726fd0028f9d0012318006a
:0212fc0010bd23
:020000040000fa
:0212fe00fee709
:020000040000fa
:10130000064b0130c000c258002a05d10200083a3d
:10131000d21819184a60c2507047c0461004002005
:020000040000fa
:1013200070b50d001400012801d0200070bd21000f
:0c1330002800fff737fe0028f9d0f6e790
:020000040000fa
:10133c0010b5054c052221002420fff7cbfe05211a
:0c134c002000fff729fe10bdac070020b8
:020000040000fa
:1013580010b50400fff76eff002805d1a368e26806
:0a136800a36163619b18a36210bd2e
:020000040000fa
:021372007047c2
:020000040000fa
:10137400d0400b1cd1409c46203ad34018435242e3
:1013840063469340184370479140031c90409c4629
:10139400203a9340194352426346d340194370475d
:020000040000fa
:1013a400006810b5002801da002010bdfff7fefe2a
:0613b400431cfad1f8e72a
:020000040000fa
:0213ba0070477a
:020000040000fa
:1013bc0010b500f037f8024b1860586010bdc046ed
:0413cc009c0700205a
:020000040000fa
:1013d0004a424a41802310b55200db00fff702fd6c
:0213e00010bd3e
:020000040000fa
:1013e200002310b59a4200d110bdcc5cc454013325
:0213f200f8e71a
:020000040000fa
:1013f40010b5fff7e1ff00f018f800f016f810bd83
:020000040000fa
:0c140400014b80225a60704700400041fc
:020000040000fa
:0c141000014b58629962704728070020c9
:020000040000fa
:0a141c0010b50068fff77eff10bd59
:020000040000fa
:0814260010b5fff70afb10bd31
:020000040000fa
:02142e00704705
:020000040000fa
:0814300000487047300800205d
:020000040000fa
:0614380001204042704754
:020000040000fa
:04143e0000207047d3
:020000040000fa
:0414420000207047cf
:020000040000fa
:021446007047ed
:020000040000fa
:0200000400807a
:0440000077c700d8a6
:020000040000fa
:0200000400807a
:044004005c00ffff5e
:00000001FF
