:020000040000fa
:10000000f03f0020750900002f0b0000310b0000ad
:1000100000000000000000000000000000000000e0
:100020000000000000000000000000002d0b000098
:1000300000000000000000002d0b0000d50a0000a9
:100040002d0b00002d0b00002d0b00002d0b0000d0
:100050002d0b00002d0b0000ad0500002d0b000046
:100060002d0b0000d90000002d0b00002d0b00000f
:100070002d0b00002d0b0000450200002d0b000091
:100080002d0b00002d0b00002d0b00002d0b000090
:100090002d0b000000000000000000002d0b0000f0
:1000a0002d0b00002d0b00002d0b00002d0b000070
:0800b000000000002d0b000010
:020000040000fa
:1000b800f8b5c046f8bc08bc9e4670475509000014
:1000c800f8b5c046f8bc08bc9e4670472d0900002c
:020000040000fa
:1000d800f0b5c64600b5574b9b7d002b17d0554a47
:1000e800137edbb2927d52b2002a13db514a137e93
:1000f800dbb2927dd20702d5db0700d582e04d4afc
:10010800137edbb2927d520701d55b074bd404bc4a
:100118009046f0bd5bb2002be8da464b5b8b0722ba
:100128001340e3d0444ce38500f092fc414b842219
:100138001a752c230022e254636a002bd6d03e4a5b
:10014800906a9847d2e7bb68f35c0b8593680133e4
:100158009360936898460b7e23420bd0404509d99b
:100168004b682b40012beed163469b685b009b5b81
:100178000b85ebe7304b9a685b689a42bfd32e4bee
:1001880000221a755a602b4a01211175db68002b71
:10019800b5d0294a10699847b1e727490a6a896999
:1001a8005200535215e0244a2c23d35c002baed0c6
:1001b800214b1a6adb699a42a9d21e4a138d9bb257
:1001c800516807220a40012ae7d01b4a116a92693e
:1001d8005354194b1a6a01321a621a6adb699a4235
:1001e80000d094e7144b00222c215a54da61114aaa
:1001f800583111755b6a002b00d188e70e4a906a66
:10020800984784e70c4b1b7d002b00d177e70a4bfe
:100218009a685868074b1b7edb07abd58242a9d288
:10022800054b1e68034907259c461f001a00012438
:0c02380096e7c04600080042500000207d
:020000040000fa
:10024400f0b5c64600b5574b9b7d002b17d0554ad9
:10025400137edbb2927d52b2002a13db514a137e25
:10026400dbb2927dd20702d5db0700d582e04d4a8e
:10027400137edbb2927d520701d55b074bd404bcdd
:100284009046f0bd5bb2002be8da464b5b8b07224d
:100294001340e3d0444ce38500f0f2fb414b84224d
:1002a4001a752c230022e254636a002bd6d03e4aee
:1002b400906a9847d2e7bb68f35c0b859368013377
:1002c4009360936898460b7e23420bd0404509d92e
:1002d4004b682b40012beed163469b685b009b5b14
:1002e4000b85ebe7304b9a685b689a42bfd32e4b81
:1002f40000221a755a602b4a01211175db68002b04
:10030400b5d0294a10699847b1e727490a6a89692b
:100314005200535215e0244a2c23d35c002baed058
:10032400214b1a6adb699a42a9d21e4a138d9bb2e9
:10033400516807220a40012ae7d01b4a116a9269d0
:100344005354194b1a6a01321a621a6adb699a42c7
:1003540000d094e7144b00222c215a54da61114a3c
:10036400583111755b6a002b00d188e70e4a906af8
:10037400984784e70c4b1b7d002b00d177e70a4b91
:100384009a685868074b1b7edb07abd58242a9d21b
:10039400054b1e68034907259c461f001a000124cb
:0c03a40096e7c046001c004280000020cc
:020000040000fa
:1003b000f0b52e4e3f25745de4b2705506012c4d0c
:1003c000ad192d7b002d05d0284e4e25765d0025dc
:1003d000b6073bd0254e4e25032777550501244e01
:1003e0007619023f3773234ead5b6d0533d5c918bf
:1003f0000601204dad19696001011e4d495b0905db
:100400002ed5d21805011b4949198a6019490501e1
:100410006a5a9205920fd3409bb249194b80134af6
:100420004021535c02252b435354516c536c9b0465
:100430009b0e08220a4013430125002b06d10b4acc
:100440001169012383400b4313610125074a3f23b0
:10045000d4542800f0bd0601064dad196960cbe704
:100460000501044949198a60d0e7c04600480041a7
:08047000d0000020b0000020c4
:020000040000fa
:10047800100100201c00000000000000b000002057
:100488002000000000000000d00000202000000034
:1004980000000000f0000020200000000000000024
:1004a8005000002030000000000000008000002004
:1004b80030000000000000002c0100200c000000ab
:1004c80000000000400100200100000000000000c2
:1004d8004101002001000000010000005900000057
:1004e8003801002004000000000000000000002087
:1004f80050000000000000003c0100200400000043
:1005080000000000000000000000000044444444d3
:020000040000fa
:100518001c4b00229a619a8c80218a439a841a0083
:100528001023d1680b42fcd0174b1b689b0e3f2b46
:1005380025d09b02802292001343124a9362102313
:10054800d1680b42fcd00f4b02229a841a00102368
:10055800d1680b42fcd00d4b0d4a5a601a005378f3
:100568005bb2002bfbdb094b0a4a5a800a4a5a80c5
:100578000a4b0b4a1a62034b00221a627047203b4f
:10058800d7e7c0460008004024608000000c004007
:10059800000701001440000019400000000400405a
:0405a80084000100ca
:020000040000fa
:1005ac0030b583b0002301931a4a118c0f330b40e2
:1005bc003f21545ce4b253540f31525cd2b20192dd
:1005cc00019a0220920708d512494e22885419012b
:1005dc00114a5218002111730138019ad20709d51a
:1005ec000c494e220120885419010b4a5218002143
:1005fc00117301301901084a52185568002d03d0a7
:10060c00054a53189968a847024a3f23d45403b0ab
:0c061c0030bdc04600480041d000002066
:020000040000fa
:1006280070b5124a00215160916011735161916156
:1006380011770f480f4b58630f4c9c630f4c5c614c
:100648003f2699550e4959640e49018001211170c0
:100658004d2403251d5599550b4e5e640b4e06829d
:1006680011741d550a4a1a8070bdc046d00000207a
:10067800b000002000480041f00000208181818105
:100688000001800009080000000280000904000041
:04069800020f00004d
:020000040000fa
:10069c0070b500282fd0194b1a7d0023002a26d1c3
:1006ac00164b1860596001321a75154b1b7edb070f
:1006bc0016d500291dd00023114c0726012507e073
:1006cc00c25c22850133227e2a420ad0994208d983
:1006dc0062683240012af3d15a00825a2285f1e72e
:1006ec000023064a9360064b01229a7501231800d9
:1006fc0070bd0b00f5e70023f9e7c0468000002031
:04070c00001c00428b
:020000040000fa
:100710000021f0b5174b184a934208d30027174a17
:1007200013685168002b05d1002903d1f0bd197061
:100730000133f1e7100095680c305c18002d16d0dd
:100740000b25ed1a5219a3420ad10b0003221340c4
:100750005a1e934189085918890040180200dfe7a2
:100760005d1cae5c1e702b00ede71f700133a342d1
:10077000fbd1f3e700000020000000207804000017
:020000040000fa
:1007800000230e4a10b513600d4a13600d4a136022
:100790000d4a13600d4a13600d4a53621361013311
:1007a000936000f0c7f900f0c5f90a4c0a4b9c426f
:1007b00000d310bd08cc9847f8e7c0463c010020a4
:1007c0000c00002008000020000000200400002091
:0c07d00010000020c4000000c800000061
:020000040000fa
:1007dc0030b5bff35f8f62b6104bc12080001a5842
:1007ec000f4d2a40c02109040a431a5040221a60b6
:1007fc00c222920098580b4c0440c02000022043a7
:10080c009850093aff3a1a60c32080001a582a40bf
:10081c00114319508022d2011a6030bd00e100e072
:08082c00ffff00ffff00ffffca
:020000040000fa
:10083400114b124a1a60d22252429a81c022920269
:100844005a601a00d369002bfcd10b4a13680221a9
:100854000b431360d369002bfcd1094b00229a612e
:10086400da611a622c215a545a621a605a609a60e8
:100874001a75da60da8570470008004204012040e6
:040884005000002000
:020000040000fa
:10088800114b124a1a60d22252429a81c022920215
:100898005a601a00d369002bfcd10b4a1368022155
:1008a8000b431360d369002bfcd1094b00229a61da
:1008b800da611a622c215a545a621a605a609a6094
:1008c8001a75da60da857047001c0042040120407e
:0408d800800000207c
:020000040000fa
:1008dc0070b5002000f08cf800f008f90c4800f01e
:1008ec0015f90c4d0c4c0d4e01232a002100002053
:1008fc00fff758fd0123220031000120fff752fdc4
:10090c0001212800fff7c4fe642000f051f8ebe74a
:10091c00a08601004001002028080042410100206f
:020000040000fa
:10092c0010b5064c2378002b07d1054b002b02d0b9
:10093c00044800e000bf0123237010bd100100200b
:10094c000000000000000000044b10b5002b03d089
:10095c000349044800e000bf10bdc0460000000081
:08096c0014010020000000004e
:020000040000fa
:1009740010b50a4b98470a4b984700f0d1f8094b39
:10098400ff229343084a9360084b9847084b9847c3
:10099400084b9847fff7a0fffee7c046330b000063
:1009a400330b00000000000000ed00e081070000b0
:0809b400330b0000330b0000bf
:020000040000fa
:1009bc0070b50d4b5e681b68db0714d50b4b5843a9
:1009cc00094b9b6800280ed00021074c013605e02e
:1009dc00b51aeb18c9181300884204d9a2689a42b8
:1009ec00f6d89b1af6e770bd10e000e080bb000063
:020000040000fa
:1009fc0010b50a4b06225a6000f012f8fff786fd7c
:100a0c0000f07ef8fff710ff00f04cf8fff706fe41
:100a1c00fff734fffff7dcfe10bdc046004000417d
:020000040000fa
:100a2c00094b0121442299540232995410329954a1
:100a3c00533a32201a5401301a5408301a549b304d
:0c0a4c001954ba315a547047004400415c
:020000040000fa
:100a5800094b5b8b5b070dd0074b80221a76793ade
:100a68005a831b7e5b0705d5034b04211a8d1a7e1a
:0c0a78000a42fbd17047c0460008004253
:020000040000fa
:100a8400094b5b8b5b070dd0074b80221a76793ab2
:100a94005a831b7e5b0705d5034b04211a8d1a7eee
:0c0aa4000a42fbd17047c046001c004213
:020000040000fa
:100ab000054a0023136093600449516006211160c8
:100ac000034a93601360704710e000e07fbb0000b2
:040ad0002c010020d5
:020000040000fa
:100ad40010b5064b1b68064b9a6801329a601b6876
:100ae400002b02d0024a5068984710bd10e000e085
:040af4002c010020b1
:020000040000fa
:100af800034b00229a601a6801210a431a60704762
:040b080010e000e019
:020000040000fa
:0c0b0c00014b82225a60704700400041fb
:020000040000fa
:0c0b18000138014b5860704710e000e00d
:020000040000fa
:080b240010b5fff7f3fd10bd51
:020000040000fa
:020b2c00fee7e2
:020000040000fa
:020b2e00fee7e0
:020000040000fa
:020b3000fee7de
:020000040000fa
:020b320070470a
:020000040000fa
:020b3400704708
:020000040000fa
:0200000400807a
:0440000077c700d8a6
:020000040000fa
:0200000400807a
:044004005c00ffff5e
:00000001FF
