:020000040000fa
:10000000f83f0020b1020000530400005504000036
:1000100000000000000000000000000000000000e0
:10002000000000000000000000000000510400007b
:10003000000000000000000051040000f103000077
:10004000510400005104000051040000510400005c
:10005000510400005104000051040000510400004c
:10006000510400005104000051040000510400003c
:10007000510400005104000051040000510400002c
:10008000510400005104000051040000510400001c
:1000900051040000000000000000000051040000b6
:1000a00051040000510400005104000051040000fc
:0800b0000000000051040000f3
:020000040000fa
:1000b800f8b5c046f8bc08bc9e46704791020000df
:1000c800f8b5c046f8bc08bc9e46704769020000f7
:020000040000fa
:1000d800184b00229a619a8c80218a439a841a00cc
:1000e8001023d1680b42fcd0134b1b689b0e3f2b8f
:1000f8001dd09b028022920013430e4a9362102364
:10010800d1680b42fcd00b4b02229a841a001023b0
:10011800d1680b42fcd0094b094a5a601a0053783f
:100128005bb2002bfbdb034b00221a627047203bbb
:10013800dfe7c0460008004024608000000c004053
:0401480000070100ab
:020000040000fa
:10014c000021f0b5174b184a934208d30027174ae1
:10015c0013685168002b05d1002903d1f0bd19702b
:10016c000133f1e7100095680c305c18002d16d0a7
:10017c000b25ed1a5219a3420ad10b00032213408e
:10018c005a1e934189085918890040180200dfe76c
:10019c005d1cae5c1e702b00ede71f700133a3429b
:1001ac00fbd1f3e700000020000000201802000043
:020000040000fa
:1001bc0000230e4a10b513600d4a13600d4a1360ec
:1001cc000d4a13600d4a13600d4a536213610133db
:1001dc00936000f03bf900f039f90a4c0a4b9c4251
:1001ec0000d310bd08cc9847f8e7c0467c0000202f
:1001fc000c0000200800002000000020040000205b
:0c020c0010000020c4000000c80000002a
:020000040000fa
:10021800500000201c000000000000006c000020be
:100228000c0000000000000078000020040000001e
:100238000000000000000020500000000000000046
:100248007c00002004000000000000000000000006
:100258000000000044444444444444444444444466
:020000040000fa
:1002680010b5064c2378002b07d1054b002b02d084
:10027800044800e000bf0123237010bd5000002097
:100288000000000000000000044b10b5002b03d054
:100298000349044800e000bf10bdc046000000004c
:0802a8005400002000000000da
:020000040000fa
:1002b00010b50a4b98470a4b984700f0c5f8094b10
:1002c000ff229343084a9360084b9847084b98478e
:1002d000084b984700f010f8fee7c04657040000ae
:1002e000570400000000000000ed00e0bd01000028
:0802f000570400005704000050
:020000040000fa
:1002f80070b5002000f054f800f088f80b4800f0c2
:1003080095f80b4ca02680252d0105e080239b0243
:100318006361642000f00ef8a3592b42f6d08023c5
:100328009b02a361642000f005f8f5e710270000a0
:04033800004400413c
:020000040000fa
:10033c0070b50d4b5e681b68db0714d50b4b58432f
:10034c00094b9b6800280ed00021074c013605e0b4
:10035c00b51aeb18c9181300884204d9a2689a423e
:10036c00f6d89b1af6e770bd10e000e080bb0000e9
:020000040000fa
:10037c00094b802292021a605122022199540022c8
:10038c0036315a5458318020000158503b310620e8
:0c039c00585416395a5470470044004170
:020000040000fa
:1003a80010b5074b06225a60fff7e4fffff790feef
:1003b80000f036f800f006f800f03ef810bdc04630
:0403c80000400041b0
:020000040000fa
:1003cc00054a0023136093600449516006211160b3
:1003dc00034a93601360704710e000e07fbb00009d
:0403ec006c00002081
:020000040000fa
:1003f00010b5064b1b68064b9a6801329a601b6861
:10040000002b02d0024a5068984710bd10e000e06f
:040410006c0000205c
:020000040000fa
:10041400034b00229a601a6801210a431a6070474c
:0404240010e000e004
:020000040000fa
:0c042800014b82225a60704700400041e6
:020000040000fa
:0c0434000138014b5860704710e000e0f8
:020000040000fa
:08044000bff35f8f62b6704745
:020000040000fa
:0804480010b5fff77ffe10bda7
:020000040000fa
:02045000fee7c5
:020000040000fa
:02045200fee7c3
:020000040000fa
:02045400fee7c1
:020000040000fa
:020456007047ed
:020000040000fa
:020458007047eb
:020000040000fa
:0200000400807a
:0440000077c700d8a6
:020000040000fa
:0200000400807a
:044004005c00ffff5e
:00000001FF
