:020000040000fa
:10000000f03f0020890b0000930d0000170e000048
:1000100000000000000000000000000000000000e0
:100020000000000000000000000000005307000076
:10003000000000000000000053070000530700000c
:100040005307000053070000530700005307000048
:100050005307000053070000530700005307000038
:10006000530700005307000053070000110400006d
:100070005307000053070000530700005307000018
:100080005307000053070000530700005307000008
:1000900053070000000000000000000053070000ac
:1000a00053070000530700005307000053070000e8
:0800b0000000000053070000ee
:020000040000fa
:1000b800f8b5c046f8bc08bc9e467047210b000046
:1000c800f8b5c046f8bc08bc9e467047f90a00005f
:020000040000fa
:1000d800680600201c0000000000000084060020c4
:1000e8000c00000000000000a4060020040000002e
:1000f80000000000900600200a0000000000000038
:10010800a40700200b0000000100000068656c6c6b
:100118006f5f6d616e730000a80600200400000088
:100128000000000018060020500000000000000039
:10013800b80600206c00000001000000c406002082
:10014800c0060020c40600200000000025000000b2
:10015800080000200004000000000000000000006b
:100168000000000000000000000000000000000087
:1001780000000000000000007f10000000000000e8
:10018800000000000000000000000000310800002e
:100198000000000000000000000000000000000057
:1001a800000000000000000000000020080400001b
:1001b800000000008407002020000000010000006b
:1001c8000100000003000000000000000000000023
:1001d8000000000000000000000000009c06002055
:1001e8009c0600200800000000000000ac0600206b
:1001f80004000000000000000804002010020000b5
:10020800000000002407002060000000010000003a
:1002180001000000030000000000000000000000d2
:10022800000000000000000000000000a909000014
:100238000000000000000000000000005d10000049
:10024800871000000000000000000000000000000f
:100258000000000000000000000000000000000096
:100268000000000000000000000000000000000086
:10027800b00600200400000000000000b4060020c2
:100288000400000000000000000000000000000062
:020000040000fa
:10029800f0b587b0039003a800f0d8fc002802da74
:1002a800002007b0f0bd039b1b095d1e202d09d956
:1002b8004f49023b4f4a8b4224d8db08d318043bf2
:1002c8001d7801352a000120002100f051fe00248c
:1002d80043428c4100930194474f00983a687b68e9
:1002e8001040020001990b401a433fd1039b05a817
:1002f8001033059300f048fe002809d10c223f4b2b
:100308001a60cee7db09d318043b1d781135d9e70d
:100318003b490c68a04206d0059b0400103b05939e
:100328000123103483600125059be2180a602b43e2
:10033800083a083c28c26360002cb1d0200000f0c5
:10034800ddfc00280bd023686168ab43e31a5a68c8
:10035800aa4352185a606168a94362501c002000e1
:10036800039900f091fd200008309ae7214a2549b9
:100378003c32002831d1584203404b43db0ed65c57
:100388002036300000f0a4fd731cdb00fc58083b4d
:10039800fb189c42a0d0272e25dd0235ae4201dc99
:1003a8003f2e20d101226368039f9343dd1b280061
:1003b800009300f06bfc864215d1e268a168e3194e
:1003c800da60996093609a68d360012217431f60ce
:1003d8005d60009be5506760c1e7434203404b43c3
:1003e800db0ed65ccde73100200000f059fbb6e704
:1003f800ff0100004c09000010040020b006002096
:080408000804002029e66b073f
:020000040000fa
:1004100070b5364b1c7ee4b29b7d23423ad0a307d5
:1004200013d5334a012313709370304b5b8bdb067b
:10043000db0f53705368002b1ad091680120984746
:10044000002828d0002000f025fa630710d5284b9b
:100450005d68002d0cd000f0d7fd002823d1244b7f
:1004600099680230a847002819d0002000f012fa3d
:10047000e3070cd51e4b00221a705b68002b03d0db
:100480001b4a916804209847184b01221a7664b2df
:10049000002c1edb70bd012000f0fcf9d5e7012027
:1004a00000f0f8f9e4e700f0b7fd002803d0104ba6
:1004b0009b78002b09d00e4eb1680320a84700237b
:1004c000b370022000f0e6f9d2e7032000f0e2f971
:1004d000cee7074b5b68002b03d0054a91680520e7
:1004e0009847024b80221a76d4e7c046001000429b
:0404f000840600205e
:020000040000fa
:1004f400f7b5002858d00838436801221e009643f7
:1005040085192a680400934200d0ffde01276b6836
:10051400226813403b420ed1200000f0f1fb00287a
:1005240043d1280000f01cfc0028f0d06b68bb43ca
:10053400f618ed18ebe73b003343636030002b60a3
:1005440000f0a6fb019000f0c5fc6b682268134024
:100554003b42e1d0184b019a1868596800f0fefc40
:10056400384212d1019a0120002100f003fd0b0052
:10057400002804d0104a126802430f480260002b7e
:1005840003d00d4a53680b435360019b0a4a01335d
:10059400db00d3181a005b68083a66602e60e360db
:1005a400a260d460e3689c60f7bd2368bb43e41a8f
:0c05b4006368bb43f618b4e71004002095
:020000040000fa
:1005c0001c4b00229a619a8c80218a439a841a00db
:1005d0001023d1680b42fcd0174b1b689b0e3f2b9e
:1005e00025d09b02802292001343124a936210236b
:1005f000d1680b42fcd00f4b02229a841a001023c0
:10060000d1680b42fcd00d4b0d4a5a601a0053784a
:100610005bb2002bfbdb094b0a4a5a800a4a5a801c
:100620000a4b0b4a1a62034b00221a627047203ba6
:10063000d7e7c0460008004024608000000c00405e
:1006400000070100164000001940000000040040af
:040650009000010015
:020000040000fa
:10065400f0b51600050002278369426987b002934a
:10066400d31a03939b1904910596019302ac3a00a3
:100674002100286800f0f6fb019b984208d1ab6882
:10068400ea68ab619a18aa626b61300007b0f0bdea
:1006940000280cda102200236968ab620a43ab61bc
:1006a4006b616a60022f12d06368f61aede7019b52
:1006b4001b1a01936368984202d9c01a0834013f97
:1006c40023681b1823606368181a6060cfe71e0054
:0206d400dbe762
:020000040000fa
:1006d600f8b5846a05000f001600002c0ad0ab6a34
:1006e6006a699b1ab3420cd2320039002800fff720
:1006f600aeff05e000f00bfc03002000002beed05f
:10070600f8bd002ef0d02b0034331b785bb2002be3
:100716001adb3400dbb2621eb95c994212d12200a8
:1007260039002800fff793ffa042e9d33f19341b95
:1007360022003900686900f05bfc6b6930001c1907
:0c0746006c61dde7141ee6d13400f1e721
:020000040000fa
:02075200fee7c0
:020000040000fa
:100754000021f0b5174b184a934208d30027174ad3
:1007640013685168002b05d1002903d1f0bd19701d
:100774000133f1e7100095680c305c18002d16d099
:100784000b25ed1a5219a3420ad10b000322134080
:100794005a1e934189085918890040180200dfe75e
:1007a4005d1cae5c1e702b00ede71f700133a3428d
:1007b400fbd1f3e70000002000000020d800000077
:020000040000fa
:1007c40010b5164b1c6800f0b1fb154b185564238b
:1007d400013b002bfcd1114b1b68124ad05c00f08a
:1007e400e1fb00f033fc002803d10c4a1368013309
:1007f40013600a4b1b680a2b08d000f0ddfb0a4b80
:100804009c466044431e9841c0b210bd0a2104486e
:1008140000f0dcf9014b00221a60eee7a406002088
:0c08240090060020a4070020bdfdffff8f
:020000040000fa
:100830007fb51600c2680d0013000091591e8b4150
:10084000f31a019383680400039269460222006848
:10085000029300f0f5fa002808dc18220823024071
:100860005340626813436360060010e0019b8342bb
:10087000fad2a268c01ae3681018e2632064002b61
:1008800005d0531ce3631378ad19013d2b70300084
:0408900004b070bd83
:020000040000fa
:10089400002808d112494b68124a1a40c0239b020f
:1008a40013434b60704701280cd0022811d0032851
:1008b400f8d10b494b680c4a1a4080239b0213431e
:1008c4004b60efe7064a5168e023db020b435360b9
:1008d400e8e7034a5168c0239b020b435360e1e7f6
:0c08e40000100042fffff8fffffffcffc8
:020000040000fa
:1008f00000230e4a10b513600d4a13600d4a1360b1
:100900000d4a13600d4a13600d4a5362136101339f
:10091000936000f089fb00f046fb0a4c0a4b9c42b6
:1009200000d310bd08cc9847f8e7c046ac060020bd
:100930002406002020060020180600201c060020a7
:0c09400028060020c4000000c8000000d1
:020000040000fa
:10094c002021222324242525262627272828282849
:10095c00292929292a2a2a2a2b2b2b2b2c2c2c2ce3
:10096c002c2c2c2c2d2d2d2d2d2d2d2d2e2e2e2eab
:10097c002e2e2e2e2f2f2f2f2f2f2f2f0001170221
:10098c001d1813031e1b190b1408040d1f161c1223
:0c099c001a0a070c1511090610050f0eb1
:020000040000fa
:1009a80070b504000d00002801d1002070bd436817
:1009b8009b0607d543698269934215d80023a36231
:1009c800a3616361e16b236c994204d2c91a0122c5
:1009d800206800f052fb00232364e3639d42e4d0c7
:1009e800206800f045fbe1e70022c36a1100984740
:0c09f8006369002be2d101204042d7e7e8
:020000040000fa
:100a0400f8b505000c000020002d20d000f0d6f928
:100a1400002c17d000200e4a0421072605e0178d6c
:100a24004300ef52013084420dd0137e0b42fcd0c0
:100a3400538b334207d153683340012befd0138dce
:100a44002b54efe72000201a44426041c0b2f8bda5
:040a5400001c004240
:020000040000fa
:100a580070b5040016001d00022a1cd043689b06ce
:100a680019d4002908d1002d01d18025ed002800d6
:100a78000830fff70dfc010020236268a1601343d2
:100a880063602300e5603433ff22012e00d10a227f
:100a98001a70024be362002070bdc046d706000002
:020000040000fa
:100aa80070b5c668856804000a00ae4211d10120fd
:100ab800002100f05dfac043c943431c03d00b4b2f
:100ac8001a68104018604b1c03d0084a5368194034
:100ad8005160012319006268b56011439a43ee60c2
:100ae8006160a41822681343236070bd10040020bd
:020000040000fa
:100af80010b5064c2378002b07d1054b002b02d0ec
:100b0800044800e000bf0123237010bd68060020e0
:100b18000000000000000000044b10b5002b03d0bb
:100b28000349044800e000bf10bdc04600000000b3
:080b38006c0600200000000023
:020000040000fa
:100b400010b50e4b06225a600d4b1b681868002129
:100b500000f048fa0b4b1b681868002100f042fabd
:100b600000f018f9fff72cfd00f066fa00f052f8db
:100b700000f0aef800f050f910bdc0460040004152
:080b8000bc060020a0070020c4
:020000040000fa
:100b880010b50a4b98470a4b984700f068fa094b8a
:100b9800ff229343084a9360084b9847084b9847ad
:100ba800084b984700f0ccf9fee7c0462f0f00002d
:100bb8002f0f00000000000000ed00e0f108000029
:080bc8002f0f00002f0f0000a9
:020000040000fa
:100bd00070b5002818d0002918d000250c4a01242f
:100be000072605e06b00c35a13850135a94209d0d9
:100bf000137e2342fcd053683340012bf2d0435d77
:100c00001385f2e7012070bd0020fce70120fae720
:040c1000001c004282
:020000040000fa
:100c14000d4b01221a601a00d369002bfcd10a4b38
:100c24000a4a1a601a00d369002bfcd1064ba82289
:100c34005a62213a9a751a6802210a431a601a0004
:100c4400d369002bfcd17047001000421000300023
:020000040000fa
:100c54000c4a036810b5546a0b4a591e121b914280
:100c64000bd9002b05d00c220120084b40421a60fe
:100c740010bd102202600020fae70f2217339343bd
:100c84000360f8e728060020efffff7fb00600208e
:020000040000fa
:100c94000309013b1800202b07d90a4a934205d8bf
:100ca4000948db08c318043b18787047e0223f204a
:100cb40052019342f9d80448db09c318043b18785d
:0c0cc4001030f2e7ff0100004c090000b6
:020000040000fa
:100cd0000a4b0b4a1a60d22252429a81c0229202d7
:100ce0005a601a00d369002bfcd1044a1368022110
:100cf0000b431360d369002bfcd17047001c0042ea
:040d0000040120408a
:020000040000fa
:100d0400f8b5050001262c68344201d000200ee01d
:100d14002000fff7bdff070000f0dcf82868a042c0
:100d2400f1d1b043281a3900fff7bcfe0120f8bd09
:020000040000fa
:100d3400084b02001968002901d107491960186895
:100d4400064982188a4201d81a607047012040423d
:100d5400fbe7c046b4060020b0070020b00900201d
:020000040000fa
:100d6400f8b5050001276c683c4201d000200de075
:100d74002000fff78dff060000f0acf86b68a3427b
:0e0d8400f1d128003100fff78dfe0120f8bdef
:020000040000fa
:020d9200fee77a
:020000040000fa
:100d9400094b01224c215a5401315a5409315a54f5
:100da4002039222058543339193019549b301a549d
:0c0db400ba3299547047c0460044004118
:020000040000fa
:100dc000094b5b8b5b070dd0074b80221a76793a73
:100dd0005a831b7e5b0705d5034b04211a8d1a7eaf
:0c0de0000a42fbd17047c046001c0042d4
:020000040000fa
:100dec00020000234832d356591e0b4313700423c0
:100dfc004268134005d01023134343600120404246
:0a0e0c0070470364c3631800fae79f
:020000040000fa
:020e1600fee7f5
:020000040000fa
:100e1800bff35f8f62b6074ac220800013581b02d7
:100e28001b0ac02109060b43135080231b011360c2
:080e38007047c04600e100e034
:020000040000fa
:100e4000f7b5002507000c002e000192019b9e4281
:100e500001db2800febd62682168380000f02bf835
:080e600001362d180834f1e7fa
:020000040000fa
:100e6800f7b5002507000c002e000192019b9e4259
:100e780001db2800febd62682168380000f038f800
:080e880001362d180834f1e7d2
:020000040000fa
:100e9000012370b544689c43651a102d0ad9421885
:100ea00019432b4311605360083203514160100015
:060eb000fff720fb70bdfe
:020000040000fa
:100eb60010b50c000023002809d10300002a06d033
:100ec60001212000fff79bfd0028f9d0012318001f
:020ed60010bd4d
:020000040000fa
:100ed800064b0130c000c258002a05d10200083a6a
:100ee800d21819184a60c2507047c0461004002032
:020000040000fa
:100ef80070b50d001400012801d0200070bd21003c
:0c0f08002800fff761fe0028f9d0f6e792
:020000040000fa
:100f140010b50400fff768ff002805d1a368e26854
:0a0f2400a36163619b18a36210bd76
:020000040000fa
:020f2e0070470a
:020000040000fa
:100f3000044ad369002bfcd1024a2833d05cc0b2ea
:080f40007047c046001000429a
:020000040000fa
:100f480010b50020fff7f8fd0021024800f076f800
:080f5800fee7c046c5070000da
:020000040000fa
:100f6000d0400b1cd1409c46203ad34018435242fb
:100f700063469340184370479140031c90409c4641
:100f8000203a9340194352426346d3401943704775
:020000040000fa
:100f9000006810b5002801da002010bdfff7cafe76
:060fa000431cfad1f8e742
:020000040000fa
:020fa600704792
:020000040000fa
:100fa800034a2823d054d369002bfcd17047c0468c
:040fb80000100042e3
:020000040000fa
:100fbc00024a508b024b538318407047001000427a
:040fcc0043020000dc
:020000040000fa
:100fd00010b500f04df8024b1860586010bdc046c7
:040fe0009c0600204b
:020000040000fa
:100fe4004a424a41802310b55200db00fff732fd2c
:020ff40010bd2e
:020000040000fa
:100ff600002310b59a4200d110bdcc5cc454013315
:02100600f8e709
:020000040000fa
:10100800024b588b0007c00f7047c04600100042c3
:020000040000fa
:10101800024b588b4007c00f7047c0460010004273
:020000040000fa
:1010280010b5fff7d1ff00f01ef800f01cf810bd56
:020000040000fa
:0c103800014b82225a60704700400041ca
:020000040000fa
:0c104400014b5860996070478406002042
:020000040000fa
:0c105000014b18787047c0468406002051
:020000040000fa
:0a105c0010b50068fff74aff10bd51
:020000040000fa
:0810660010b5fff774fb10bd8b
:020000040000fa
:02106e007047c9
:020000040000fa
:0810700000487047240700202e
:020000040000fa
:0610780001204042704718
:020000040000fa
:04107e000020704797
:020000040000fa
:041082000020704793
:020000040000fa
:021086007047b1
:020000040000fa
:0200000400807a
:0440000077c700d8a6
:020000040000fa
:0200000400807a
:044004005c00ffff5e
:00000001FF
