:020000040000fa
:10000000f83f00205d0c0000df0e0000f30f000041
:1000100000000000000000000000000000000000e0
:10002000000000000000000000000000ef080000d9
:100030000000000000000000ef080000ef080000d2
:10004000ef080000ef080000ef080000ef080000d4
:10005000ef080000ef080000ef080000ef080000c4
:10006000ef080000ef080000ef080000ef080000b4
:10007000f1030000ef080000ef080000ef080000a7
:10008000ef080000ef080000ef080000ef08000094
:10009000ef0800000000000000000000ef08000072
:1000a000ef080000ef080000ef080000ef08000074
:0800b00000000000ef08000051
:020000040000fa
:1000b800f8b5c046f8bc08bc9e467047f50b000072
:1000c800f8b5c046f8bc08bc9e467047cd0b00008a
:020000040000fa
:1000d800940600201c00000000000000c806002054
:1000e8000100000000000000680600202c0000004d
:1000f80000000000b8060020040000000000000016
:10010800180600205000000000000000cc06002067
:100118006c00000001000000d8060020d406002072
:10012800d80600200000000025000000080000207c
:1001380000040000000000000000000000000000b3
:1001480000000000000000000000000000000000a7
:100158000000000043110000000000000000000043
:10016800000000000000000061090000000000001d
:100178000000000000000000000000000000000077
:10018800000000000000002008040000000000003b
:100198009807002020000000010000000100000076
:1001a8000300000000000000000000000000000044
:1001b8000000000000000000b0060020b00600208b
:1001c8000800000000000000bc0600200400000039
:1001d80000000000080400201002000000000000d9
:1001e8003807002060000000010000000100000046
:1001f80003000000000000000000000000000000f4
:1002080000000000000000007d0a0000000000005f
:100218000000000000000000211100004b11000048
:1002280000000000000000000000000000000000c6
:1002380000000000000000000000000000000000b6
:10024800000000000000000000000000c0060020c0
:100258000400000000000000c406002004000000a4
:100268000000000000000000000000004444444476
:020000040000fa
:10027800f0b587b0039003a800f052fd002802da19
:10028800002007b0f0bd039b1b095d1e202d09d976
:100298004f49023b4f4a8b4224d8db08d318043b12
:1002a8001d7801352a000120002100f0e5fe002418
:1002b80043428c4100930194474f00983a687b6809
:1002c8001040020001990b401a433fd1039b05a837
:1002d8001033059300f0dcfe002809d10c223f4bb7
:1002e8001a60cee7db09d318043b1d781135d9e72e
:1002f8003b490c68a04206d0059b0400103b0593bf
:100308000123103483600125059be2180a602b4302
:10031800083a083c28c26360002cb1d0200000f0e5
:1003280093fd00280bd023686168ab43e31a5a6831
:10033800aa4352185a606168a94362501c00200001
:10034800039900f01cfe200008309ae7214a25494d
:100358003c32002831d1584203404b43db0ed65c77
:100368002036300000f042fe731cdb00fc58083bce
:10037800fb189c42a0d0272e25dd0235ae4201dcb9
:100388003f2e20d101226368039f9343dd1b280081
:10039800009300f021fd864215d1e268a168e319b7
:1003a800da60996093609a68d360012217431f60ee
:1003b8005d60009be5506760c1e7434203404b43e3
:1003c800db0ed65ccde73100200000f0d3fbb6e7aa
:1003d800ff010000200a000010040020c0060020d1
:0803e8000804002029e66b0760
:020000040000fa
:1003f00010b5564b9b7d002b53d0544a51680723b0
:100400000b40127e52075bd5504a906a50494a69a8
:10041000c9688a4254d2002b44d14d4b5968885444
:1004200001325a61494b1b7edb0718d5474b01222d
:100430001a75474a93699268934258d2444a1168a0
:10044000c85c4249886201339361414b9a699b6859
:100450009a4262d03e4b5a69db689a4269d03b4b64
:100460001b7e9b0716d53b4b1b78002b19d0384bb6
:100470005a69db689a4211d1354b00221a77334909
:100480000720087533490a701b6a002b09d0304acf
:10049000506a98472f4b1b78002b02d02b4b02221f
:1004a0009a7510bd2a4b51005c68085301325a619d
:1004b000264b1b7edb07d2d5244b01221a7508e0a0
:1004c000224a127ed207cad5204a01211175002b7b
:1004d000afd01f4a93699268934213d21c4a5900c5
:1004e0001068085a1949886201339361ade7184bc7
:1004f0001b69002b23d0154aff219162013b144a4e
:100500001361a2e7124b1b69002b18d00f4a124946
:100510009162013b0e4a136197e70d4b1b69002b5b
:1005200098d10c4b01221a70084b1b7e9b079ed45e
:10053000b4e7064b01229a7503321a758fe7044b14
:100540009a699b689a4200d084e7eae70014004267
:0c05500068060020c8060020ffff000025
:020000040000fa
:10055c0070b5060000294fd000284dd04648007fca
:10056c00002800d085e0454c656807242c40012c00
:10057c0049d04148066042600024446184610461b2
:10058c003000441ea041404201403b488160501e57
:10059c00824152421a403848c260012404773748dd
:1005ac00007e400705d5354c0420a56a257e054202
:1005bc00fbd13248448b04252c434483047e802594
:1005cc002c4304768a4202d9501a2b4c20612b48ba
:1005dc00406840072bd1284a92698a421cd2307855
:1005ec0026498862013224498a61002b3cd0234b76
:1005fc0004229a7501203de00020002b3ad0002afd
:10060c00acd1002036e0002901d0cc0732d4002b2d
:10061c00afd0dc07add52de0174a1269002ae4d023
:10062c001649ff208862013a13490a61dde749083f
:10063c00114881600469640804615208c2608269cf
:10064c00914208d93188c905c90d0c488162013223
:10065c0009498a61c9e7002cc7d0084a0849916248
:10066c00013c054a1461c0e7044b01229a75012034
:10067c0000e0002070bdc046680600200014004257
:04068c00ff0100006a
:020000040000fa
:10069000f7b5002858d00838436801221e00964359
:1006a00085192a680400934200d0ffde01276b6899
:1006b000226813403b420ed1200000f0c9fb002805
:1006c00043d1280000f0f4fb0028f0d06b68bb4356
:1006d000f618ed18ebe73b003343636030002b6006
:1006e00000f07efb019000f085fc6b6822681340ef
:1006f0003b42e1d0184b019a1868596800f0b4fced
:10070000384212d1019a0120002100f0b9fc0b00ff
:10071000002804d0104a126802430f480260002be0
:1007200003d00d4a53680b435360019b0a4a0133bf
:10073000db00d3181a005b68083a66602e60e3603d
:10074000a260d460e3689c60f7bd2368bb43e41af1
:0c0750006368bb43f618b4e710040020f7
:020000040000fa
:10075c001c4b00229a619a8c80218a439a841a003d
:10076c001023d1680b42fcd0174b1b689b0e3f2b00
:10077c0025d09b02802292001343124a93621023cd
:10078c00d1680b42fcd00f4b02229a841a00102322
:10079c00d1680b42fcd00d4b0d4a5a601a005378ad
:1007ac005bb2002bfbdb094b0a4a5a800a4a5a807f
:1007bc000a4b0b4a1a62034b00221a627047203b09
:1007cc00d7e7c0460008004024608000000c0040c1
:1007dc000007010017400000194000000004004011
:0407ec00a000010068
:020000040000fa
:1007f000f0b51600050002278369426987b00293ad
:10080000d31a03939b1904910596019302ac3a0005
:100810002100286800f0a3fb019b984208d1ab6837
:10082000ea68ab619a18aa626b61300007b0f0bd4c
:1008300000280cda102200236968ab620a43ab611e
:100840006b616a60022f12d06368f61aede7019bb4
:100850001b1a01936368984202d9c01a0834013ff9
:1008600023681b1823606368181a6060cfe71e00b6
:02087000dbe7c4
:020000040000fa
:10087200f8b5846a05000f001600002c0ad0ab6a96
:100882006a699b1ab3420cd2320039002800fff782
:10089200aeff05e000f0d9fb03002000002beed0f4
:1008a200f8bd002ef0d02b0034331b785bb2002b46
:1008b2001adb3400dbb2621eb95c994212d122000b
:1008c20039002800fff793ffa042e9d33f19341bf8
:1008d20022003900686900f0fdfb6b6930001c19c9
:0c08e2006c61dde7141ee6d13400f1e784
:020000040000fa
:0208ee00fee723
:020000040000fa
:1008f0000021f0b5174b184a934208d30027174a36
:1009000013685168002b05d1002903d1f0bd19707f
:100910000133f1e7100095680c305c18002d16d0fb
:100920000b25ed1a5219a3420ad10b0003221340e2
:100930005a1e934189085918890040180200dfe7c0
:100940005d1cae5c1e702b00ede71f700133a342ef
:10095000fbd1f3e70000002000000020d8000000d9
:020000040000fa
:100960007fb51600c2680d0013000091591e8b411f
:10097000f31a019383680400039269460222006817
:10098000029300f0d8fa002808dc1822082302405d
:100990005340626813436360060010e0019b83428a
:1009a000fad2a268c01ae3681018e2632064002b30
:1009b00005d0531ce3631378ad19013d2b70300053
:0409c00004b070bd52
:020000040000fa
:1009c40000230e4a10b513600d4a13600d4a1360dc
:1009d4000d4a13600d4a13600d4a536213610133cb
:1009e400936000f087fb00f060fb0a4c0a4b9c42ca
:1009f40000d310bd08cc9847f8e7c046bc060020d9
:100a04002406002020060020180600201c060020d2
:0c0a140028060020c4000000c8000000fc
:020000040000fa
:100a20002021222324242525262627272828282874
:100a3000292929292a2a2a2a2b2b2b2b2c2c2c2c0e
:100a40002c2c2c2c2d2d2d2d2d2d2d2d2e2e2e2ed6
:100a50002e2e2e2e2f2f2f2f2f2f2f2f000117024c
:100a60001d1813031e1b190b1408040d1f161c124e
:0c0a70001a0a070c1511090610050f0edc
:020000040000fa
:100a7c0070b504000d00002801d1002070bd436842
:100a8c009b0607d543698269934215d80023a3625c
:100a9c00a3616361e16b236c994204d2c91a0122f0
:100aac00206800f04afb00232364e3639d42e4d0fa
:100abc00206800f03dfbe1e70022c36a1100984773
:0c0acc006369002be2d101204042d7e713
:020000040000fa
:100ad800f8b505000c000020002d20d000f0fcf92e
:100ae800002c17d000200e4a0421072605e0178d98
:100af8004300ef52013084420dd0137e0b42fcd0ec
:100b0800538b334207d153683340012befd0138df9
:100b18002b54efe72000201a44426041c0b2f8bdd0
:040b2800001c00426b
:020000040000fa
:100b2c0070b5040016001d00022a1cd043689b06f9
:100b3c0019d4002908d1002d01d18025ed00280001
:100b4c000830fff793fb010020236268a160134378
:100b5c0063602300e5603433ff22012e00d10a22aa
:100b6c001a70024be362002070bdc046730800008f
:020000040000fa
:100b7c0070b5c668856804000a00ae4211d1012028
:100b8c00002100f077fac043c943431c03d00b4b40
:100b9c001a68104018604b1c03d0084a536819405f
:100bac005160012319006268b56011439a43ee60ed
:100bbc006160a41822681343236070bd10040020e8
:020000040000fa
:100bcc0010b5064c2378002b07d1054b002b02d017
:100bdc00044800e000bf0123237010bd94060020e0
:100bec000000000000000000044b10b5002b03d0e7
:100bfc000349044800e000bf10bdc04600000000df
:080c0c00980600200000000022
:020000040000fa
:100c140010b50e4b06225a600d4b1b681868002154
:100c240000f04efa0b4b1b681868002100f048fadc
:100c340000f058f8fff790fd00f094f800f062fa25
:100c440000f0eaf800f0b0f910bdc04600400041e1
:080c5400d0060020b4070020c7
:020000040000fa
:100c5c0010b50a4b98470a4b984700f060fa094bbd
:100c6c00ff229343084a9360084b9847084b9847d8
:100c7c00084b984700f090f8fee7c046671000005c
:100c8c00671000000000000000ed00e0c509000046
:080c9c00671000006710000062
:020000040000fa
:100ca40070b5002818d0002918d000250c4a01245a
:100cb400072605e06b00c35a13850135a94209d004
:100cc400137e2342fcd053683340012bf2d0435da2
:100cd4001385f2e7012070bd0020fce70120fae74c
:040ce400001c0042ae
:020000040000fa
:100ce8000e4b8022d2021a60012250215a5401313f
:100cf8005a5401310220585401315a5403315a547c
:100d08001e393130585401310338585436390b30b4
:100d180019549b301a54ba32995470470044004110
:020000040000fa
:100d28000c4a036810b5546a0b4a591e121b9142ab
:100d38000bd9002b05d00c220120084b40421a6029
:100d480010bd102202600020fae70f2217339343e8
:100d58000360f8e728060020efffff7fc0060020a9
:020000040000fa
:100d68000b4b00221a621a779a60da60094b8022cc
:100d780092025a601a00d369002bfcd1054bef226e
:100d88001a73054a1a601a00d369002bfcd1704700
:0c0d980068060020001400420e0030002d
:020000040000fa
:100da40010b58eb00020fff733ff07a90a4b0a00e5
:100db40013cb13c213cb13c21b6813601c2107a8e7
:100dc40000f0a6f91c21684600f08cf91c21684645
:0c0dd400fff766fff2e7c0463010000099
:020000040000fa
:100de0000309013b1800202b07d90a4a934205d872
:100df0000948db08c318043b18787047e0223f20fd
:100e000052019342f9d80448db09c318043b18780f
:0c0e10001030f2e7ff010000200a000093
:020000040000fa
:100e1c000a4b0b4a1a60d22252429a81c022920289
:100e2c005a601a00d369002bfcd1044a13680221c2
:100e3c000b431360d369002bfcd17047001c00429c
:040e4c00040120403d
:020000040000fa
:100e5000f8b5050001262c68344201d000200ee0d0
:100e60002000fff7bdff070000f0c4f82868a0428b
:100e7000f1d1b043281a3900fff780fe0120f8bdf8
:020000040000fa
:100e8000084b02001968002901d107491960186848
:100e9000064982188a4201d81a60704701204042f0
:100ea000fbe7c046c4060020c0070020c0090020a0
:020000040000fa
:100eb000f8b5050001276c683c4201d000200de028
:100ec0002000fff78dff060000f094f86b68a34246
:0e0ed000f1d128003100fff751fe0120f8bdde
:020000040000fa
:020ede00fee72d
:020000040000fa
:100ee000094b5b8b5b070dd0074b80221a76793a52
:100ef0005a831b7e5b0705d5034b04211a8d1a7e8e
:0c0f00000a42fbd17047c046001c0042b2
:020000040000fa
:100f0c00020000234832d356591e0b43137004239e
:100f1c004268134005d01023134343600120404224
:0a0f2c0070470364c3631800fae77e
:020000040000fa
:100f3600f7b5002507000c002e000192019b9e428a
:100f460001db2800febd62682168380000f03df82c
:080f560001362d180834f1e703
:020000040000fa
:100f5e00f7b5002507000c002e000192019b9e4262
:100f6e0001db2800febd62682168380000f04bf8f6
:080f7e0001362d180834f1e7db
:020000040000fa
:100f8600012370b544689c43651a102d0ad942188e
:100f960019432b431160536008320351416010001e
:060fa600fff773fb70bdb4
:020000040000fa
:100fac00bff35f8f62b6064ac32189005358ff20f6
:100fbc0083433f380343535080235b0113607047d6
:040fcc0000e100e060
:020000040000fa
:100fd00010b50c000023002809d10300002a06d018
:100fe00001212000fff778fd0028f9d00123180027
:020ff00010bd32
:020000040000fa
:020ff200fee718
:020000040000fa
:100ff400064b0130c000c258002a05d10200083a4d
:10100400d21819184a60c2507047c0461004002014
:020000040000fa
:1010140070b50d001400012801d0200070bd21001e
:0c1024002800fff73dfe0028f9d0f6e799
:020000040000fa
:101030006162636465666768696a6b6c6d6e6f7028
:0c1040007172737475767778797a0a0003
:020000040000fa
:10104c0010b50400fff75cff002805d1a368e26827
:0a105c00a36163619b18a36210bd3d
:020000040000fa
:021066007047d1
:020000040000fa
:10106800d0400b1cd1409c46203ad34018435242f2
:1010780063469340184370479140031c90409c4638
:10108800203a9340194352426346d340194370476c
:020000040000fa
:10109800006810b5002801da002010bdfff7ecfe4b
:0610a800431cfad1f8e739
:020000040000fa
:0210ae00704789
:020000040000fa
:1010b00010b500f03ff8024b1860586010bdc046f4
:0410c000b006002056
:020000040000fa
:1010c4004a424a41802310b55200db00fff72cfd51
:0210d40010bd4d
:020000040000fa
:1010d600002310b59a4200d110bdcc5cc454013334
:0210e600f8e729
:020000040000fa
:1010e80010b502000b0000210020fff733fa10bdf5
:020000040000fa
:1010f80010b5fff7d9ff00f018f800f016f810bd8a
:020000040000fa
:0c110800014b82225a60704700400041f9
:020000040000fa
:0c11140010b500230022fff71ffa10bde9
:020000040000fa
:0a11200010b50068fff776ff10bd60
:020000040000fa
:08112a0010b5fff7e0fb10bd5a
:020000040000fa
:02113200704704
:020000040000fa
:08113400004870473807002055
:020000040000fa
:06113c0001204042704753
:020000040000fa
:0411420000207047d2
:020000040000fa
:0411460000207047ce
:020000040000fa
:02114a007047ec
:020000040000fa
:0200000400807a
:0440000077c700d8a6
:020000040000fa
:0200000400807a
:044004005c00ffff5e
:00000001FF
